:020000040800F2
:10000000502F0020690100087101000873010008E9
:100010007501000877010008790100080000000060
:100020000000000000000000000000007B0100084C
:100030007D010008000000007F0100085530000825
:100040008301000883010008830100088301000880
:10005000830100088301000853270008830100087A
:100060008301000883010008830100088301000860
:100070008301000883010008830100088301000850
:100080008301000883010008830100088301000840
:10009000D9050008830100081D0600088301000837
:1000A0008301000883010008830100088301000820
:1000B0008301000883010008830100088301000810
:1000C0008301000883010008830100088301000800
:1000D0008301000883010008D13000088301000873
:1000E000830100088301000883010008000000006C
:1000F0000000000000000000000000000000000000
:1001000000000000000000008301000883010008D7
:1001100083010008830100088301000883010008AF
:10012000830100088301000883010008830100089F
:10013000830100088301000883010008830100088F
:100140007106000883010008910600088301000879
:10015000DFF810D000F02CF800480047E133000829
:10016000AFF30080502F0020064880470648004724
:10017000FEE7FEE7FEE7FEE7FEE7FEE7FEE7FEE757
:10018000FEE7FEE7653000085101000840EA010380
:100190009B0703D009E008C9121F08C0042AFAD23D
:1001A00003E011F8013B00F8013B521EF9D2704701
:1001B000064C074D06E0E06840F0010394E80700B4
:1001C00098471034AC42F6D3FFF7C6FF2C3C00082A
:1001D0004C3C000810B5002002F0B8F8002001F0F7
:1001E00024FDFF21002001F034FE4B4801F0AAFC61
:1001F0004948006820F02000203047490860084640
:10020000006820F480400860002001F03FFC434873
:1002100002F0ECF84148006820F4F85000F5E06086
:100220003E4908600846006820F4604000F56040E0
:1002300008600846006820F03E00801C08600A46FE
:100240000221002002F096F8354801F05FFF3448A3
:10025000006820F03E001E30314908600846006802
:1002600020F4E07000F5E07008600A4601210020EB
:1002700001F018FF00202B490860084600686FF362
:100280000A00DA3008600846006820F08040086004
:1002900000212448006861F3DC20224908600A46F6
:1002A0000021084601F020FD00201F490860084693
:1002B00000686FF30A0008600846006820F080407C
:1002C000086000211848006861F3DC2016490860C6
:1002D0000A460021084601F0EFFC01231A460021DE
:1002E000084601F019FD002302221021184600F0F3
:1002F0001DFD00221146104601F031FD012211467C
:10030000002001F01FFF0321002001F054FD002117
:10031000084601F078FD10BD040000200C0000200C
:1003200014000020180000201C00002008B502F076
:10033000FFF901211C2002F0EFFC0121084602F028
:10034000EBFC0121274802F001FC1020ADF8000071
:1003500003208DF8020048208DF8030069462248EA
:1003600002F068FB0220ADF8000003208DF80200C7
:1003700048208DF8030069461B4802F05BFB012012
:10038000ADF8000003208DF8020048208DF803002E
:100390006946154802F04EFB4FF40040ADF80000EE
:1003A00003208DF8020010208DF8030069460F48E5
:1003B00002F040FB4FF48050ADF8000003208DF8B0
:1003C000020048208DF803006946094802F032FB1C
:1003D00002F0D0F901200749087000200649087092
:1003E00008BD00000002300000100140000801407C
:1003F000000C01402C0000200000002010B5044635
:100400002CB94FF40041034802F0F3FB00E000BFB9
:1004100000BF10BD0008014010B504462CB94FF4D0
:100420000041034802F0E3FB00E000BF00BF10BD45
:10043000000801407CB50020FFF7EEFF322400BF2A
:10044000154A0221002001F0F9FF44B900BF00BFA6
:10045000124B134A1349002001F00AFC7CBD601EB8
:10046000C4B20D48007800F001000028E8D00E4921
:10047000097901F00F0001F0B5FBC5B201200B4B6B
:10048000094A0221CDE90050002001F0F7FF0020C9
:10049000FFF7B4FF00BFE1E71000002038000020A4
:1004A0003700002036000020600000206C00002093
:1004B00010B50446304800F049F900202F498871F2
:1004C000C8710872487288720120C8720020887052
:1004D000FA2C21D006DC322C3CD0642C30D07D2C80
:1004E00042D123E0B4F5FA7F0CD0B4F57A7F3BD14A
:1004F00000202249C870012008710020487109209D
:10050000088031E000201D49C870032008710020D8
:1005100048710C20088027E000201849C870052089
:10052000087100204871122008801DE00020134946
:10053000C87005200871002048712420088013E04D
:1005400000200E49C87005200871002048712D2038
:10055000088009E000200949C870052008710020C2
:1005600048715A20088000BF00BF0449024800F0CB
:10057000F8F902F041FB10BD00640040281F002084
:100580002DE9F04105460E461746984600240E2EEA
:1005900001DBBDE8F0811FB9002040EA455402E0CC
:1005A000042000EBC5040B48867280F80B80012004
:1005B00008490873200C08804C80200C8880CC806F
:1005C0000020088101204873084600F0DBF800BFD6
:1005D000DFE70000341F002010B502210C4800F0B6
:1005E00061F80C48007800EB80000B4901EB8002B9
:1005F0000021074800F03FFA06480078401C0549F2
:10060000087008460078642801DB0020087010BDDF
:10061000006400403A0000206C1F0020034800687E
:1006200040F4806001490860704700003C000020F1
:100630000FB470B500240025002604A90A4800F074
:1006400092FA054605E0641C0848844201D301265D
:1006500005E02946044800F019FB0128F3D100BF4A
:10066000304670BC5DF814FB00640040A0860100B9
:1006700010B50221044800F015F8044A0021024890
:1006800000F0F9F910BD0000006800403C27002090
:100690000348006840F4806001490860704700002A
:1006A00040000020B1F5007F3AD00FDC202928D08F
:1006B00006DC01291CD004291DD0082940D11DE0E9
:1006C000402921D0B1F5807F3AD126E0B1F5004F25
:1006D00031D006DCB1F5806F25D0B1F5006F2FD198
:1006E00024E0B1F5803F12D0B1F5003F28D111E0F0
:1006F000154A826025E00822C26022E01022C26012
:100700001FE0082202611CE01022026119E00822A9
:10071000426016E01022426013E00422426010E0C2
:10072000042242600DE0042242600AE0002282615D
:100730000422426005E0002282610422426000E05F
:1007400000BF00BF704700000101010010B5044662
:100750000B48844209D10121480602F0CDFA00215C
:100760004FF0007002F0C8FA08E00121880602F09C
:10077000C3FA00214FF0806002F0BEFA10BD000005
:100780000064004010B50021837A012202FA03F1CF
:100790003D4A126842F001023B4B1A603A4A1C3251
:1007A00012688A43384B1C331A60027BCAB9364A36
:1007B0000C3212688A43344B0C331A604288C38867
:1007C00042EA0343304A4032847A42F834300288A5
:1007D000838842EA03432C4A4032847A02EBC40203
:1007E0005360027B012A19D1274A0C3212680A434E
:1007F000254B0C331A604288038842EA0343224A9D
:100800004032847A42F83430C288838842EA034313
:100810001D4A4032847A02EBC4025360C27A3AB96C
:10082000194A121D12688A43174B1B1D1A6006E0F5
:10083000154A121D12680A43134B1B1D1A600289C8
:1008400032B9114A143212688A430F4B14331A60BA
:100850000289012A06D10C4A143212680A430A4B53
:1008600014331A60427B012A06D1074A1C321268EF
:100870000A43054B1C331A60034A126822F0010236
:10088000014B1A6010BD00000066004008B5012150
:10089000144802F0A3F918BB1CE040200090124855
:1008A0001249097800EB81131048007800EB4000F2
:1008B0000F4901EB80020121002001F090FC0B4860
:1008C0000078401C0949087008460078642801D166
:1008D000002008700121034802F080F90028DCD0D4
:1008E00008BD0000001001405C050020220000202F
:1008F000AC00002008B50121084602F00DFA0121E4
:10090000082002F009FA0121480602F0E5F9012168
:100910004FF4EA1002F01AF94FF48070ADF80000BD
:1009200048208DF803006946084802F083F84FF428
:100930000070ADF8000018208DF8030003208DF83A
:1009400002006946014802F075F808BD000C01403C
:100950001AB143690B43436102E043698B4343612E
:10096000704730B5024600200023146824F00204CA
:100970001460146844F00104146000E05B1C5468C7
:1009800004F001041CB94FF6FF74A342F6D1546879
:1009900004F001040CB900206CE08C79012C04D126
:1009A000146844F08004146003E0146824F08004A8
:1009B0001460CC79012C04D1146844F04004146014
:1009C00003E0146824F0400414600C7A012C04D174
:1009D000146844F02004146003E0146824F0200438
:1009E00014604C7A012C04D1146844F01004146093
:1009F00003E0146824F0100414608C7A012C04D1F4
:100A0000146844F00804146003E0146824F0080437
:100A10001460CC7A012C04D1146844F004041460EE
:100A200003E0146824F0040414608C78A407CD78E3
:100A300044EA05640D7944EA05444D7944EA0554D5
:100A40000D886D1E2C43D461146824F001041460D9
:100A5000002300E05B1C546804F001041CB14FF655
:100A6000FF74A342F6D1546804F001040CB10020D5
:100A700000E0012030BD10B500F5D87303EB011381
:100A80001B6803F004031372137A53B900F5D8738B
:100A900003EB01131B6840F2FF7404EA5353136025
:100AA00009E000F5D87303EB01131B686FF0604495
:100AB00004EAD303536000F5D87303EB01131B68FA
:100AC00003F00203537200F5D87303EB01135B6864
:100AD00003F00F03937200F5D87303EB01135B6807
:100AE0001B0AD37400F5D87303EB01139B68D37210
:100AF00000F5D87303EB01139B681C0A147300F50F
:100B0000D87303EB01139B681C0C547300F5D87366
:100B100003EB01139B681B0E937300F5D87303EB73
:100B20000113DB68D37300F5D87303EB0113DB68A3
:100B30001C0A147400F5D87303EB0113DB681C0C5A
:100B4000547400F5D87303EB0113DB681B0E937428
:100B500021B9C36843F02003C36003E0036943F095
:100B60002003036110BD10B502460020936803F016
:100B70008063B3F1806F00D110E0936803F00063ED
:100B8000B3F1006F01D1012008E0936803F08053B6
:100B9000B3F1805F01D1022000E00420042874D06A
:100BA00002F5C07303EB00131B6803F0010402F5A8
:100BB000C07303EB00131C600B7A7BB94B7A0C8873
:100BC00043EA445302F5C07404EB00142468234341
:100BD00002F5C07404EB0014236010E00B7A4C683B
:100BE00043EAC4034C7A234302F5C07404EB0014B7
:100BF0002468234302F5C07404EB001423608B7A4D
:100C000003F00F038B7202F5C07303EB00135B68F4
:100C100023F00F0402F5C07303EB00135C6002F5D0
:100C2000C07303EB00135B688C7A234302F5C07436
:100C300004EB001463608B7B1C064B7B44EA03448B
:100C40000B7B44EA0323CC7A234302F5C07404EB04
:100C50000014A3608B7C1C064B7C44EA03440B7C91
:100C600044EA0323CC7B234302F5C07404EB001455
:100C7000E36002F5C07303EB00131B6843F001044B
:100C800002F5C07303EB00131C6010BD10B50246E3
:100C9000002321B1012907D002290FD109E0906872
:100CA0001D4C00EA04030BE090681C4C00EA0403AE
:100CB00006E090681A4C00EA040301E0002300BF3C
:100CC00000BF184C181BA34216D007DC83B16FF08D
:100CD0008060184470B1022818D111E0B0F5007F8F
:100CE00010D0114C204448B1B0F5003F0ED10BE0BC
:100CF00002230DE000230BE0002309E0002307E0BE
:100D0000012305E0012303E0012301E0002300BFEC
:100D100000BFD8B210BD00000300000400030008AB
:100D200000000310000100080001FFF72DE9F04169
:100D300006460F4690461D46002425B1012D12D0CF
:100D4000022D2ED11EE03946304600F015FE044635
:100D500014B12046BDE8F08142463946304600F0E5
:100D6000C3FA044620E03946304600F079FD0446D7
:100D70000CB12046EEE742463946304600F028F9ED
:100D8000044611E03946304600F0DEFC04460CB162
:100D90002046DFE742463946304600F009F804466F
:100DA00002E04FF0FF3400BF00BF2046D2E7000052
:100DB0002DE9FC4107460D46904600268348806891
:100DC000019000200090009820F4403000F50030A1
:100DD00000900024122D76D2DFE805F00929DE46C6
:100DE0004748494A50769ABABDDADB4B4C510198D4
:100DF00020F07F400190019820F4F81000F5C02009
:100E00000190019820F4706000F5807001900198C5
:100E100020F00F00401C0190009820F4FE4000F5E7
:100E2000E0600090009864F305000090B7E001983E
:100E300020F07F400190019820F4F81000F5003078
:100E40000190019820F470600190019820F00F004B
:100E50000190009820F4FE4000F54070009000984A
:100E600064F3050000909AE000BF00BF00BF00BF20
:100E700000BF00BF4FF0FF30BDE8FC8100BF01980C
:100E800020F07F400190019820F4F81000F56020D8
:100E90000190019820F4706000F540700190019875
:100EA00020F00F00C01C0190009820F4FE4000F5D7
:100EB00070600090009864F305000090009820F4A2
:100EC000403000906BE067E0019820F07F40019097
:100ED000019820F4F81000F5E0200190019820F42A
:100EE000706000F500700190019820F00F00801CE8
:100EF0000190009820F4FE4000F5006000900098FA
:100F000064F305000090009820F44030009046E023
:100F1000019820F07F400190019820F4F81000F52E
:100F2000C0200190019820F4706000F5807001905D
:100F3000019820F00F00401C0190009820F4FE4022
:100F400000F5E0600090009864F30500009026E052
:100F50004FF0FF3090E7019820F07F40019001981A
:100F600020F4F81000F500300190019820F4706032
:100F70000190019820F00F000190009820F4FE40AD
:100F800000F540700090009864F30500009006E0C2
:100F900000BF4FF0FF306FE74FF0FF306CE700BF4E
:100FA00008213846019A01F099FB064616B16FF008
:100FB000010061E70C213846009A01F08FFB0646DC
:100FC00016B16FF0020057E7304655E7B438000815
:100FD0002DE9FC4107460D4690460026C148806831
:100FE000019000200090009820F4403000F500307F
:100FF00000900024122D7CD2DFE805F009297B49FE
:10100000678687888DB2D6FAF8F7F64A898E0198F6
:1010100020F07F400190019820F4F81000F5602046
:101020000190019820F4706000F5407001900198E3
:1010300020F00F00C01C0190009820F4FE4000F545
:1010400070600090009864F30500009033E101980F
:1010500020F07F400190019820F4F81000F5C020A6
:101060000190019820F4706000F580700190019863
:1010700020F00F00401C0190009820F4FE4000F585
:10108000E0600090009864F30500009013E100BF59
:10109000019820F07F400190019820F4F81000F5AD
:1010A00000300190019820F470600190019820F0C8
:1010B0000F000190009820F4FE4000F54070009071
:1010C000009864F305000090F5E0019820F07F405F
:1010D0000190019820F4F81000F5803001900198FB
:1010E00020F470600190019820F00F0001900098AA
:1010F00000E0DDE020F4FE4000F500700090009874
:1011000064F305000090D6E000BF00BF00BF4FF0C1
:10111000FF30BDE8FC8100BF019820F07F400190C6
:10112000019820F4F81000F5F0100190019820F4D7
:10113000706000F5E0600190019820F00F00C01D84
:101140000190009820F4FE4000F5F85000900098BF
:1011500064F305000090009820F440300090AAE06D
:10116000019820F07F400190019820F4F81000F5DC
:1011700088100190019820F4706000F58060019063
:10118000019820F00F00001D0190009820F4FE400F
:1011900000F590500090009864F3050000900098CE
:1011A00020F44030009086E0019820F07F400190CC
:1011B000019820F4F81000F560200190019820F4C7
:1011C000706000F540700190019820F00F00C01C85
:1011D0000190009820F4FE4000F5706000900098A7
:1011E00064F30500009066E045E041E020E0FFE7A1
:1011F000019820F07F400190019820F4F81000F54C
:1012000000200190019820F4706000F500700190BA
:10121000019820F00F00801C0190009820F4FE40FF
:1012200000F510600090009864F30500009042E023
:10123000019820F07F400190019820F4F81000F50B
:10124000C0200190019820F4706000F5807001903A
:10125000019820F00F00401C0190009820F4FE40FF
:1012600000F5E0600090009864F30500009022E033
:101270004FF0FF304DE7019820F07F40019001983A
:1012800020F4F81000F500300190019820F470600F
:101290000190019820F00F000190009820F4FE408A
:1012A00000F540700090009864F30500009002E0A3
:1012B0004FF0FF302DE700BF08213846019A01F0BA
:1012C0000DFA064616B16FF0010022E70C213846F0
:1012D000009A01F003FA064616B16FF0020018E713
:1012E000304616E7B43800082DE9FC4107460D46A4
:1012F00090460026FE4880680190002000900098EB
:1013000020F4403000F5003000900024122D7DD2F2
:10131000DFE805F0092949698CACC9F1EFEEEDEC85
:10132000EBEAE96ACAE8019820F07F400190019851
:1013300020F4F81000F5F0100190019820F470608E
:1013400000F5E0600190019820F00F00C01D0190B1
:10135000009820F4FE4000F5F8500090009864F3E7
:1013600005000090D9E1019820F07F40019001989C
:1013700020F4F81000F560200190019820F47060CE
:1013800000F540700190019820F00F00C01C019002
:10139000009820F4FE4000F570600090009864F31F
:1013A00005000090B9E1019820F07F40019001987C
:1013B00020F4F81000F500200190019820F47060EE
:1013C00000F500700190019820F00F00801C019042
:1013D000009820F4FE4000F510600090009864F33F
:1013E0000500009099E100BF019820F07F40019036
:1013F000019820F4F81000F5C0200190019820F425
:10140000706000F580700190019800E081E120F0AB
:101410000F00401C0190009820F4FE4000F5E060B1
:101420000090009864F30500009076E1019820F0A8
:101430007F400190019820F4F81000F58020019081
:10144000019820F4706000F580700190019820F000
:101450000F00401C0190009820F4FE4000F5A060B1
:101460000090009864F30500009056E1019820F088
:101470007F400190019820F4F81000F54030019071
:10148000019820F470600190019820F00F00019005
:10149000009820F4FE4000F580600090009864F30E
:1014A0000500009039E100BF019820F07F400190D5
:1014B000019820F4F81000F500300190019820F414
:1014C00070600190019820F00F000190009820F4C6
:1014D000FE4000F540700090009820F03F00401C56
:1014E00000901AE125E0F0E0CFE0AEE08DE06CE0A6
:1014F00045E01DE0FFE7019820F07F400190019852
:1015000020F4F81000F580300190019820F470600C
:101510000190019820F00F000190009820F4FE4007
:1015200000F500700090009820F03F000090F4E07B
:1015300000BF019820F07F4000F180700190019879
:1015400020F4F81000F5F0100190019820F470607C
:1015500000F5E0600190019820F00F00C01D01909F
:10156000009820F4FE4000F5F8500090009864F3D5
:1015700005000090009820F440300090CDE00198E4
:1015800020F07F4000F180700190019820F4F81065
:1015900000F588100190019820F4706000F58060DB
:1015A0000190019820F00F00001D0190009820F498
:1015B000FE4000F590500090009864F30500009004
:1015C000009820F440300090A7E0019820F07F4080
:1015D0000190019820F4F81000F5F01001900198A6
:1015E00020F4706000F5E0600190019820F00F0099
:1015F000C01D0190009820F4FE4000F5F8500090C6
:10160000009864F30500009087E0019820F07F4087
:101610000190019820F4F81000F5901001900198C5
:1016200020F4706000F5A0600190019820F00F0098
:10163000401D0190009820F4FE4000F59850009065
:10164000009864F30500009067E0019820F07F4067
:101650000190019820F4F81000F5602001900198A5
:1016600020F4706000F540700190019820F00F00A8
:10167000C01C0190009820F4FE4000F570600090BE
:10168000009864F30500009047E0019820F07F4047
:101690000190019820F4F81000F5002001900198C5
:1016A00020F4706000F500700190019820F00F00A8
:1016B000801C0190009820F4FE4000F5106000901E
:1016C000009864F30500009027E0019820F07F4027
:1016D0000190019820F4F81000F5C02001900198C5
:1016E00020F4706000F580700190019802E0000025
:1016F000B438000820F00F00401C0190009820F43E
:10170000FE4000F5E0600090009864F30500009052
:1017100003E04FF0FF30BDE8FC8100BF08213846F0
:10172000019A00F0DBFF064616B16FF00100F2E708
:101730000C213846009A00F0D1FF064616B16FF032
:101740000200E8E73046E6E7F8B506460C46002515
:10175000424840680090122C70D2DFE804F0090A79
:101760006F0B0C0D0E0F25262728292A2B414258D6
:1017700000BF00BF00BF00BF00BF00BF009820F047
:101780007F400090009820F47F0000F560200090DA
:10179000009820F4FE4000F540700090009820F082
:1017A0007F00C01C00904CE000BF00BF00BF00BF26
:1017B00000BF00BF009820F07F400090009820F408
:1017C0007F0000F5F0100090009820F4FE4000F536
:1017D000E0600090009820F07F00C01D009030E095
:1017E00000BF009820F07F400090009820F47F0018
:1017F00000F5E0200090009820F4FE4000F5007015
:101800000090009820F07F00801C009019E0009864
:1018100020F07F400090009820F47F0000F57810C1
:101820000090009820F4FE4000F570600090009851
:1018300020F07F000F30009003E0FFE74FF0FF3013
:10184000F8BD00BF04213046009A00F047FF05466E
:1018500015B16FF00100F3E72846F1E7B43800084E
:10186000F8B506460C460025424840680090122C08
:1018700070D2DFE804F0090A6F0B0C0D0E0F25265D
:101880002728292A2B41425800BF00BF00BF00BFB4
:1018900000BF00BF009820F07F400090009820F427
:1018A0007F0000F5F0100090009820F4FE4000F555
:1018B000E0600090009820F07F00C01D00904CE098
:1018C00000BF00BF00BF00BF00BF00BF009820F0F6
:1018D0007F400090009820F47F0000F57810009081
:1018E000009820F4FE4000F570600090009820F011
:1018F0007F000F30009030E000BF009820F07F4064
:101900000090009820F47F0000F56020009000987F
:1019100020F4FE4000F540700090009820F07F0019
:10192000C01C009019E0009820F07F4000900098C3
:1019300020F47F0000F5FC000090009820F4FE40A9
:1019400000F5F8500090009820F07F001F300090C4
:1019500003E0FFE74FF0FF30F8BD00BF0421304641
:10196000009A00F0BBFE054615B16FF00100F3E7E9
:101970002846F1E7B4380008F8B505460C460026BD
:10198000414840680090122C71D2DFE804F0090A47
:101990000B0C0D0E0F10262728292A2B2C424359F9
:1019A00000BF00BF00BF00BF00BF00BF00BF009866
:1019B00020F07F400090009820F47F0000F5781020
:1019C0000090009820F4FE4000F5706000900098B0
:1019D00020F07F000F3000904CE000BF00BF00BF40
:1019E00000BF00BF00BF009820F07F40009000982B
:1019F00020F47F0000F5FC000090009820F4FE40E9
:101A000000F5F8500090009820F07F001F30009003
:101A100030E000BF009820F07F400090009820F454
:101A20007F0000F5F0100090009820F4FE4000F5D3
:101A3000E0600090009820F07F00C01D009019E049
:101A4000009820F07F400090009820F47F0000F57F
:101A50007E000090009820F4FE4000F57C5000903D
:101A6000009820F07F003F30009003E0FFE74FF048
:101A7000FF30F8BD00BF04212846009A00F02EFE7A
:101A800006463046F5E70000B4380008F8B50646CB
:101A90000C4600252A48006800902078009960F3E1
:101AA0000401009120784109009861F345100090ED
:101AB00020788109009861F3861000902078C10990
:101AC000009861F3082000902088010A009861F3D3
:101AD0004A2000902088810A009861F30C30009021
:101AE0002088C10A009861F3104000902088010B03
:101AF000009861F3514000902088410B009861F3F9
:101B0000924000902088810B009861F3D3400090B0
:101B10002088C10B009861F3145000902068010CDC
:101B2000009861F31F70009000213046009A00F089
:101B3000D5FD054615B14FF0FF30F8BD2846FCE74E
:101B4000B438000808B501462548006800900098A0
:101B50000A6860F304020A6000984209086862F3A8
:101B60004510086000988209086862F386100860D2
:101B70000098020A086862F3C71008600098420AD9
:101B8000086862F3092008600098020B086862F395
:101B90008A2008600098020C086862F3CB20086075
:101BA0000098420C086862F30C3008600098820CC0
:101BB000086862F34D3008600098C20C086862F350
:101BC0008E3008600098020D086862F3CF3008601C
:101BD0000098020F086862F313400860002008BDF7
:101BE000B43800080146002000BF00BF092901DA0F
:101BF000084619E0A1F10902072A13D2DFE802F032
:101C00000406080A0C0E10000C200CE010200AE05C
:101C1000142008E0182006E0202004E0302002E034
:101C2000402000E000BF00BF704738B505460024E3
:101C3000002000906A4640F60C61284600F030F91A
:101C4000044614B14FF0FF3038BD9DF8000040F05D
:101C5000010000909DF8002040F60C61284600F03D
:101C6000CBFC044614B16FF00100EDE70020EBE778
:101C70002DE9F84380460C4615461E460027B94616
:101C80004FF03409002000906A464946404600F073
:101C90008BF907461FB14FF0FF30BDE8F8839DF880
:101CA000010020709DF8000028709DF8020000F0EF
:101CB0003F0030703846F0E72DE9F84306460C4601
:101CC00015464FF0000800200090286800904FF45F
:101CD000FA7000EBC40739463046009A00F0FEFC6B
:101CE00080464046BDE8F8832DE9F84306460C4699
:101CF00015464FF0000800200090286800904FF42F
:101D0000F87000EBC40739463046009A00F0E6FC54
:101D100080464046BDE8F8832DE9F84380460C46EE
:101D200015461E464FF000092EB1009820F08000A5
:101D30008030009003E0009820F080000090009830
:101D400065F30400009004F5E8779DF8002039461B
:101D5000404600F051FC81464846BDE8F8832DE935
:101D6000F84307460D4616460024A04640F607688D
:101D7000002000900DF103024146384600F090F833
:101D800004461CB14FF0FF30BDE8F883009865F3BE
:101D900018600090009866F3596000909DF8032049
:101DA0004146384600F028FC044614B16FF00100AB
:101DB000EAE72046E8E7F8B506460D460024002786
:101DC0001E270020ADF800006A463946304600F074
:101DD000B9F8044614B14FF0FF30F8BDBDF800006B
:101DE0004FF61F7129400843ADF80000BDF80020F0
:101DF0003946304600F048FC044614B16FF001004B
:101E0000EBE72046E9E7F8B506460D4600200090CE
:101E100000246A460321304600F042F8044614B11B
:101E20004FF0FF30F8BD9DF8000020F00700009053
:101E30009DF80000284300909DF8002003213046C3
:101E400000F0DAFB044614B16FF00100EAE7204627
:101E5000E8E72DE9F04198B080460E4600270024BF
:101E600002E00DF80460641C602CFAD34FF4806526
:101E7000002410E060236A462946404600F0DAFB61
:101E8000074627B14FF0FF3018B0BDE8F08105F1EB
:101E9000600085B2641C152CECD33846F4E70000D2
:101EA0002DE9F04106460C46154603274FF0000881
:101EB000C4F303203030084908704C70002088704B
:101EC0003B46064A304600F037FC8046034880789F
:101ED00028704046BDE8F081681E0020C81E002022
:101EE0002DE9F04781460D4617461E46B01C1FFAE5
:101EF00080F84FF0000AC5F3032030300F49087016
:101F00004D70022404E000200C490855601C84B286
:101F10004445F8DB43460A4A0849484600F00CFCB1
:101F20008246002405E00649A01C085C3855601C68
:101F300084B2B442F7DB5046BDE8F087681E00204B
:101F4000C81E00202DE9F04781460E4615464FF089
:101F5000040A4FF00008C6F303203030104908701F
:101F60004E7053460F4A484600F0E6FB8046B8F1F3
:101F7000000F02D04046BDE8F087002028800224F0
:101F80000AE00848075D2988A01EC00007FA00F093
:101F900008442880601CC4B2042CF2DB4046EAE707
:101FA000681E0020C81E00202DE9F04781460E461D
:101FB00015464FF0060A4FF00008C6F303203030F4
:101FC000104908704E7053460F4A484600F0B4FB63
:101FD0008046B8F1000F02D04046BDE8F0870020EF
:101FE000286002240AE00848075DA01EC00007FA26
:101FF00000F0296808442860601CC4B2062CF2DB9B
:102000004046EAE7681E0020C81E00202DE9FF4F69
:1020100081B00E4691461D46022000EB85001FFA56
:1020200080FA4FF0000BC6F3032030301B490870D4
:102030004E70022404E0002018490855601C84B248
:102040005445F8DB5346164A1449019800F074FBD6
:102050008346BBF1000F03D0584605B0BDE8F08FB2
:102060004FF00208002415E00020009000270AE04D
:102070000B4810F808000DF80700781C87B208F12B
:1020800001001FFA80F8042FF2DB009849F82400C1
:10209000601C84B2AC42E7DB5846DEE7681E0020D5
:1020A000C81E00202DE9F84306460D4614460027B9
:1020B000B8461DB96FF06300BDE8F88312480068A8
:1020C0000090009820F0800000902078410800984F
:1020D00061F31C60009020888109009861F35F70B3
:1020E00000902078009960F34511009105EB4500C0
:1020F000502101EB800841463046009A00F0EEFA8C
:1021000007463846D8E700000439000808B50146FC
:102110000B48006800900098020E086862F34500C2
:1021200008600098420F086862F388100860009801
:102130004209086862F300000860002008BD000042
:10214000043900082DE9F84307460C4616460025D9
:10215000A8461CB96FF06300BDE8F88304EB4400A7
:10216000502101EB8008002000906A464146384625
:10217000FFF796FE054615B14FF0FF30ECE79DF8EE
:10218000000006F00F0108438DF800009DF80020C4
:102190004146384600F030FA054615B16FF00100AF
:1021A000DAE72846D8E7F8B505460C4600260027AA
:1021B0000020009004EB4400502101EB8000461CFD
:1021C000009820F4807000F5807000909DF8012048
:1021D0003146284600F010FA07463846F8BD2DE98A
:1021E000FF4F9BB08A4616469846DDF8A090002423
:1021F000002500270AEB4A00502101EB800B032346
:1022000018AA59461B98FFF701FF07461FB1601E29
:102210001FB0BDE8F08F189817901798C0F3C01042
:1022200010B16FF00100F3E7199816901A98159005
:102230001598C0F30B0B0BF5806B09F10800C4B2C5
:102240001798C0F3401008B1201DC4B2E11704EB89
:1022500091718910A4EB810149B12046E11704EB8B
:1022600091718910A4EB8102211D891ACCB24C2CEA
:1022700000DD4C24234602AA59461B98FFF730FE86
:10228000074617B16FF00200C2E79DF808008DF80D
:1022900004009DF809008DF805009DF80A008DF8EE
:1022A00006009DF80B008DF80700019830609DF83E
:1022B0000C008DF804009DF80D008DF805009DF8C8
:1022C0000E008DF806009DF80F008DF807000198AC
:1022D00070601798C0F34010F0B19DF810008DF8B1
:1022E00004009DF811008DF805009DF812008DF88E
:1022F00006009DF813008DF807000198B0600025D6
:1023000007E002A905F10C00085C08F80500681C4C
:10231000C5B24D45F5DB0DE00020B060002507E0BB
:1023200002A905F10800085C08F80500681CC5B2A0
:102330004D45F5DB51461B98FFF735FF074617B1B2
:102340006FF0030064E7384662E7000070B50446AA
:102350000225002600200549087048702B46044AD3
:10236000204600F0E9F90646304670BD681E0020A0
:10237000C81E00202DE9F84306460D4614460027E6
:10238000B846194800680090009820F0800080301E
:1023900000902088010A009861F31C60009020885A
:1023A000410B009861F35F700090207881090098DC
:1023B00061F35650009020784108009861F3144072
:1023C00000902078009960F38611009105EB45009C
:1023D000502101EB800841463046009A00F07EF91A
:1023E00007463846BDE8F8830439000808B50146B9
:1023F00011480068009000988209086862F30000A4
:1024000008600098020C086862F3450008600098B4
:10241000420D086862F3871008600098020E086891
:1024200062F30C2008600098420F086862F34F3096
:102430000860002008BD0000043900082DE9F843B9
:1024400007460C4615460026B0460020009004EBD7
:102450004400542101EB80086A4641463846FFF7A4
:102460001FFD06461EB14FF0FF30BDE8F8839DF812
:10247000000000F0170028703046F6E72DE9FF4F06
:102480009BB08B461446289D00270BEB4B00502138
:1024900001EB80001A90032317AADDE91A10FFF759
:1024A000B5FD074627B14FF0FF301FB0BDE8F08FF4
:1024B000179816901698C0F3C01010B96FF001006D
:1024C000F3E7217901F00F00FFF78CFB8146A94566
:1024D00002D26FF00200E8E718981590199814904E
:1024E0001498C0F30B001A901A9800F580601A90A7
:1024F00020788DF8040060788DF80500A0788DF8BC
:102500000600E0788DF8070020798DF808006079E2
:102510008DF80900A0798DF80A00E0798DF80B009C
:10252000002607E01E98815D01AA06F108001154FB
:10253000701CC6B2AE42F5D34FF0000AD04605F08B
:102540000300A0B105F00300C0F1040A05F1080082
:10255000C6B200BF09E0002106F10800404401AA0C
:10256000115408F1010000F0FF08D045F3DB05F13C
:102570000800504483B201AADDE91A1000F05AF8AD
:10258000074617B16FF003008FE75946299A1B9849
:1025900000F007F8074617B16FF0040085E73846EA
:1025A00083E72DE9F84307460C461546002604EB61
:1025B0004400502101EB800000F101080020009050
:1025C000009820F4807000F5807000902DB1009884
:1025D00020F4007000F5007000909DF80120414645
:1025E000384600F009F806461EB14FF0FF30BDE84E
:1025F000F8833046FBE700002DE9F04106460C4623
:10260000154603274FF00008C4F303202030074984
:1026100008704C70084685703B46054A304600F00D
:102620008BF880464046BDE8F0810000681E00201F
:10263000C81E00202DE9F04781460D4616461F466C
:10264000B81C1FFA80F84FF0000AC5F303202030B1
:102650000B4908704D70022405E0A01E305C08494B
:102660000855601C84B24445F7DB4346054A0449DB
:10267000484600F061F882465046BDE8F087000009
:10268000681E0020C81E00202DE9F04707460D46B1
:1026900016464FF004084FF00009C5F30320203020
:1026A0000C4908704D70002408E0E00046FA00F084
:1026B000C1B2084AA01C1154601CC4B2022CF4DB45
:1026C0004346054A0349384600F036F881464846F5
:1026D000BDE8F087681E0020C81E00202DE9F047E5
:1026E00007460D4616464FF006084FF00009C5F3A1
:1026F000032020300C4908704D70002408E0E000F1
:1027000026FA00F0C1B2084AA01C1154601CC4B2E1
:10271000042CF4DB4346054A0349384600F00CF824
:1027200081464846BDE8F087681E0020C81E00208C
:1027300010B501F03BF810BD2DE9F04107460C46FD
:1027400015461E4632462946204601F083F8BDE86C
:10275000F08110B5012000F03BF820B1012000F01D
:1027600003F8FEF793F810BD0149086070470000B8
:10277000140401400EB50121084600F0CDFA0021F5
:10278000022000F037F90120FFF7EEFF00208DF85E
:1027900008000C208DF80900012001908DF80A0036
:1027A00001A800F029F84FF4A06000F08BFA062091
:1027B0008DF8000001208DF8010002208DF8020044
:1027C00001208DF80300684600F044FA0EBD0000B9
:1027D000014600200022074B1B6803EA0102054B5B
:1027E00014331B680B4013B10AB1012000E0002034
:1027F0007047000000040140002123498279002A2B
:102800003AD00A46126803689A430B461A600A1DBA
:10281000126803689A430B1D1A60027911440A6812
:1028200003681A430A60184A0832126803689A4318
:10283000154B08331A601A1D126803689A43124B2D
:102840000C331A604279102A0ED11A1F12680368DD
:102850001A430D4B08331A601A1D126803681A4395
:10286000094B0C331A600DE00749427911440A689C
:1028700003681A430A6005E0027911440A68036894
:102880009A430A60704700000004014008B5012126
:10289000082000F041FA0121142000F03DFA012146
:1028A000084600F039FA01214E4800F04FF94FF484
:1028B0000040ADF8000003208DF8020010208DF8D4
:1028C00003006946484800F0B5F84FF48060ADF861
:1028D000000003208DF8020010208DF803006946E7
:1028E000424800F0A7F84FF40060ADF80000032064
:1028F0008DF8020010208DF8030069463B4800F077
:1029000099F84FF48050ADF8000003208DF80200D4
:1029100010208DF803006946344800F08BF8202021
:10292000ADF8000003208DF8020010208DF80300A0
:1029300020212E4800F05BF969462C4800F07AF817
:1029400020212A4800F055F94FF48050ADF80000DE
:1029500003208DF8020048208DF8030069462448C2
:1029600000F068F84FF40050ADF8000003208DF837
:10297000020048208DF8030069461D4800F05AF80F
:102980004FF48040ADF8000003208DF8020048208D
:102990008DF803006946164800F04CF84FF40040EB
:1029A000ADF8000003208DF8020048208DF80300E8
:1029B00069460F4800F03EF84FF400410A4800F025
:1029C00016F94FF48061094800F011F94FF40061E5
:1029D000064800F00CF94FF48051044800F007F964
:1029E00008BD000000023000000801400010014056
:1029F000000C014030B500228B071C0F0F2303FA97
:102A000004F20B4B8C1053F824309343084C8D1078
:102A100044F8253023468C1053F824308C07240FBB
:102A200000FA04F42343024C8D1044F8253030BDE5
:102A3000080001402DE9F041024600250026002053
:102A400000230024002791F803C00CF00F0591F833
:102A500003C00CF0100CBCF1000F03D091F802C0C1
:102A60004CEA050591F800C0BCF1000F31D01468A4
:102A700000202BE04FF0010C0CFA00F3B1F800C07D
:102A80000CEA03069E4220D183004FF00F0C0CFA93
:102A900003F7BC4305FA03FC4CEA040491F803C0B5
:102AA000BCF1280F06D14FF0010C0CFA00FCC2F863
:102AB00014C00AE091F803C0BCF1480F05D14FF0F3
:102AC000010C0CFA00FCC2F810C0401C0828D1D33D
:102AD0001460B1F800C0BCF1FF0F34DD5468002071
:102AE0002EE000F1080C4FF0010808FA0CF3B1F8E1
:102AF00000C00CEA03069E4221D183004FF00F0C68
:102B00000CFA03F7BC4305FA03FC4CEA040491F801
:102B100003C0BCF1280F05D100F1080C08FA0CF82D
:102B2000C2F8148091F803C0BCF1480F07D100F13E
:102B3000080C4FF0010808FA0CF8C2F81080401C8D
:102B40000828CED35460BDE8F0810000F0B50A46F5
:102B5000002300240021002500F00046B6F1004FBC
:102B600002D11D4EF16901E01B4E7168C0F30345AF
:102B700083B200F44016B6F5401F08D121F0706111
:102B8000154E766826F07066134F7E6012E000F4F2
:102B90008016B6F5801F06D1032606FA05F4A14378
:102BA00041F0706106E0460D360103FA06F6B143C6
:102BB00041F0706122B1460D360103FA06F6314349
:102BC00000F00046B6F1004F02D1034EF16101E082
:102BD000014E7160F0BD000000000140024600207F
:102BE00093680B400BB1012000E000207047416169
:102BF000704701617047000008B54FF4E06000F0D5
:102C000061F814208DF8000000208DF801008DF887
:102C1000020001208DF80300684600F01BF8012235
:102C200002210B48FDF794FE16208DF800000020CD
:102C30008DF801008DF8020001208DF80300684630
:102C400000F008F8012291020148FDF781FE08BD5D
:102C50000064004070B5002100230F22C47804B343
:102C6000154C246804F4E064C4F5E064210AC1F161
:102C70000403CA40447804FA03F1847814402143E1
:102C800009010E4C0678A155047804F01F050124B3
:102C9000AC4005786D11AD0005F1E025C5F80041A7
:102CA00009E0047804F01F050124AC40044D0678C7
:102CB000761145F8264070BD0CED00E000E400E020
:102CC00080E100E002490143024A116070470000C0
:102CD0000000FA050CED00E029B1064AD269024372
:102CE000044BDA6104E0034AD2698243014BDA61A2
:102CF000704700000010024029B1064A12690243E1
:102D0000044B1A6104E0034A12698243014B1A61C1
:102D1000704700000010024029B1064A9269024340
:102D2000044B9A6104E0034A92698243014B9A6121
:102D300070470000001002402DE9F0410021002200
:102D4000002500230026002400278C46DFF8608140
:102D5000D8F8048008F00C0121B1042907D0082913
:102D600059D109E0DFF84C81C0F8008058E0DFF865
:102D70004481C0F8008053E0DFF83481D8F8048043
:102D800008F47012DFF82881D8F8048008F4803540
:102D9000920C0D2A01D0921C00E0062235B9DFF812
:102DA000188102FB08F8C0F8008033E0DFF80081EA
:102DB000D8F82C8008F48036DFF8F480D8F82C801E
:102DC00008F00F0808F1010446B9DFF8E880B8FB05
:102DD000F4F808FB02F8C0F800801BE0DFF8D080B0
:102DE000D8F82C80C8F3031808F10107DFF8C08079
:102DF000D8F82C80C8F3032808F1020CDFF8B4805F
:102E0000B8FBF7F808FB0CF8B8FBF4F808FB02F87D
:102E1000C0F8008004E0DFF89C80C0F8008000BFAC
:102E200000BFDFF88C80D8F8048008F0F0010909B1
:102E3000DFF8888018F80130D0F8008028FA03F80D
:102E4000C0F80480DFF86880D8F8048008F4E061F6
:102E5000090ADFF8688018F80130D0F8048028FAF1
:102E600003F8C0F80880DFF84880D8F8048008F438
:102E70006051C90ADFF8448018F80130D0F80480A6
:102E800028FA03F8C0F80C80DFF82480D8F8048012
:102E900008F44041890BDFF8288018F80130D0F899
:102EA0000C80B8FBF3F8C0F81080BDE8F08100009A
:102EB0000010024000127A0000093D004800002086
:102EC0005800002021B1028842F04002028004E054
:102ED00002884FF6BF731A400280704702460020F6
:102EE00013890B400BB1012000E000207047014620
:102EF000888970478181704710B50022028802F4EA
:102F000041520B884C8823438C882343CC8823432D
:102F10000C8923434C8923438C892343CC89234345
:102F20001A430280838B4FF2FF74234083830B8A02
:102F3000038210BD10B500F001F810BD0CB50020E3
:102F4000019000903F48006840F480303D4908609F
:102F500000BF3C48006800F4003000900198401C1D
:102F60000190009818B90198B0F5A06FF1D13548DB
:102F7000006800F4003010B10120009001E0002052
:102F80000090009801285CD12F48006840F01000A4
:102F90002D4908600846006820F0030008600846D4
:102FA000006840F0020008602648406825494860F3
:102FB0000846406848600846406840F480604860C1
:102FC0000846C06A214908401E49C8620846C06ACE
:102FD0001F4908431B49C8620846006840F08060EA
:102FE000086000BF1748006800F000600028F9D0B2
:102FF0001448406820F47C10124948600846406834
:1030000040F4E81048600846006840F080700860AE
:1030100000BF0C48006800F000700028F9D0094893
:10302000406820F00300074948600846406840F0C7
:103030000200486000BF0348406800F00C00082808
:10304000F9D10CBD001002400020024000F0FEFF4C
:103050001408010002480068401C014908607047DC
:103060004400002010B51648006840F001001449E3
:1030700008600846406813490840114948600846FE
:103080000068114908400E4908600846006820F4AD
:10309000802008600846406820F4FE00486008462A
:1030A000006820F0A05008604FF47F008860002086
:1030B000C862FFF73FFF4FF000600449086010BD91
:1030C000001002400000FFF0FFFFF6FE08ED00E0F8
:1030D00010B540F22551044800F02AF818B1024812
:1030E000001D0088C4B210BD0044004001F400720D
:1030F000B2F5007F00D100BFCA430280704721B102
:10310000828942F40052828104E082894DF6FF7385
:103110001A408281704702460020B1F5007F00D13D
:1031200000BF13880B400BB1012000E00020704766
:1031300070B50246002400230025002040F66A16E0
:10314000B14200D100BFC1F3421501F01F030126B7
:1031500006FA03F3012D02D19689334006E0022DD1
:1031600002D1168A334001E0968A33400C120126C0
:1031700006FA04F41688344013B10CB1012000E0C3
:10318000002070BDF0B50346002400260025002075
:1031900040F66A17B94200D100BF1846C1F3421485
:1031A00001F01F06012707FA06F5012C01D10C30AA
:1031B00004E0022C01D1103000E014301AB107688D
:1031C0002F43076002E00768AF430760F0BD0000CF
:1031D0002DE9F04786B005460E460024A24600BF02
:1031E000A1460027B08900B100BF2F462C8A4CF6BB
:1031F000FF700440F08804432C82AC894EF6F31033
:103200000440B08831890843718908430443AC8184
:10321000AC8A4FF6FF400440B0890443AC8201A859
:10322000FFF78AFD1F48874202D1DDF810A001E0B8
:10323000DDF80CA0A88900F4004040B10AEBCA00F8
:1032400000EB0A1031684900B0FBF1F807E00AEB27
:10325000CA0000EB0A1031688900B0FBF1F8642065
:10326000B8FBF0F004012009642101FB1089A88952
:1032700000F4004040B1322000EBC900B0FBF1F097
:1032800000F00700044308E0322000EB091064213D
:10329000B0FBF1F000F00F0004432C8106B0BDE854
:1032A000F087000000380140C1F3080282807047B7
:1032B00000B587B001210520FFF72EFD012148044C
:1032C000FFF70AFD0420ADF8180018208DF81B0048
:1032D00003208DF81A0006A92248FFF7ABFB08204F
:1032E000ADF8180048208DF81B0003208DF81A0057
:1032F00006A91C48FFF79EFB4FF4E1300190002027
:10330000ADF80800ADF80A00ADF80C00ADF81000FB
:103310000C20ADF80E0001A91348FFF759FF012258
:1033200040F225511048FFF72DFF40210E48FFF7CE
:10333000DDFE4FF4A060FFF7C5FC26208DF81400D9
:1033400000208DF815008DF8160001208DF817006B
:1033500005A8FFF77FFC01210348FFF7D0FE07B067
:1033600000BD00000008014000440040014A02493D
:1033700000F013B8BD3300085C00002002E008C86C
:10338000121F08C1002AFAD170477047002001E0DF
:1033900001C1121F002AFBD170472DE9F0411646EA
:1033A0000F460446002503E03946B047641C6D1CF7
:1033B00020780028F8D12846BDE8F08170B5044691
:1033C0000D46E1B20548FFF76FFF00BF80210348BB
:1033D000FFF7A1FE0028F9D0204670BD0044004050
:1033E00008B50024002700254FF00108CA49B1F1B3
:1033F000807F00D322E021F07F40401E4FF0E0228A
:10340000506150170F2200280ADA13074FEA136998
:10341000C24B00F00F0CACF1040C03F80C9005E06B
:1034200013074FEA136CBE4B03F800C000BF002027
:103430004FF0E02290610720106100BFFFF726FAED
:10344000FDF758FA4FF47A70FDF732F800231A4668
:1034500019461846FDF794F8FFF72AFFFCF766FFB8
:10346000FCF7B8FE56E1AF480078AF4909788842CA
:103470007AD04FF40041AD48FFF7B9FBACA0FFF79D
:1034800075FFA848007800EB4000B44901EB8000CC
:103490000079C0F3401018B90020B149487202E029
:1034A0000120AF4948729F48007800EB4000AB49CB
:1034B00001EB80000079C0F3001070B90020A8492A
:1034C00008729848007800EB4000A44931F82000C9
:1034D000C0F30A00A249086018E00420A04908725D
:1034E0009048007800EB40009C4951F82000C0F360
:1034F000D1208C49097801EB4101984A32F821101A
:10350000C1F30A0100EB814095494860854909787B
:1035100001EB4101914A02EB8101097901F00F00B1
:10352000FEF760FBC4B2002C39DDE11704EB5171EA
:10353000C910A4EBC10131B92046E11704EB517168
:10354000C1F3C70706E02046E11704EB5171C9102B
:10355000491CCFB2002500BF781EA84205D1A4EBBC
:10356000C5007F49887203E029E008207C49887201
:103570007C486C4B1B7800EB831000EBC50178484E
:10358000827A0B30FCF702FE75480069009074489F
:103590000FC8FDF74DF8681CC5B2BD42DCDB6148C1
:1035A0000078401C5F49087008460078642801DBF9
:1035B000002008704FF400415C48FFF71AFB6A488E
:1035C00000786A490978884271D04FF48061684870
:1035D000FFF70DFB67A0FFF7C9FE6348007800EB1B
:1035E00080006F4901EB8000417A6E48406861F3CA
:1035F00045106C4948605C48007800EB80006849E1
:1036000001EB8000007A88B95748007800EB800011
:1036100031F820106348006861F30A0061490860CE
:103620000846406820F01000486022E04E480078CC
:1036300000EB80005A4901EB80004068810C59483A
:10364000006861F30A00574908604748007800EBBA
:103650008000534901EB800041685248006861F3E3
:10366000DC20504908600846406820F01000103007
:1036700048603D48007800EB8000494901EB80003C
:10368000817A4848406861F3030046494860B8F1D0
:10369000010F0DD10846406820F0400040304860DE
:1036A0000846406820F08000803048600BE031E040
:1036B0003C48406820F040003A494860084640686D
:1036C00020F08000486000260CE02748007800EBDE
:1036D0008000334901EB80000B30805D3249885512
:1036E000701CC6B22F48007900F00F00B042ECDC2D
:1036F000FCF7A0FE1C480078401C1B4908700846D7
:103700000078642801DB002008704FF480611848BD
:10371000FFF76FFAA7E600004019010018ED00E07E
:1037200000E400E021000020220000200008014009
:1037300043414E464420746F2043414E2120434173
:103740004E46442052454356202043414E322E30AF
:10375000422053454E440D0A00000000AC000020FA
:10376000441F00205C050020390000203A000020A2
:103770000010014043414E20746F2043414E4644A7
:10378000212043414E322E304220524543562020C4
:1037900043414E46442053454E440D0A000000006C
:1037A0006C1F0020600000206C00002000B587B076
:1037B00001210803FFF7B0FA01210420FFF7ACFA5A
:1037C00001210420FFF7A8FAE020ADF8040018203A
:1037D0008DF8070003208DF8060001A91B48FFF7AC
:1037E00029F91020ADF804008DF8070003208DF8AA
:1037F000060001A91548FFF71DF910211348FFF72E
:10380000F8F90020ADF808004FF48270ADF80A0016
:103810000020ADF80C00ADF80E00ADF810004FF42C
:103820000070ADF812000820ADF814000020ADF8CB
:1038300016000720ADF8180002A90548FFF75CFB49
:1038400001210348FFF73EFB07B000BD000801401F
:10385000003001402DE9F04105460E461746002490
:1038600010211248FFF7C3F917E000BF02211048EA
:10387000FFF734FB0028F9D0295D0D48FFF73AFB2C
:1038800000BF01210A48FFF729FB0028F9D00848AA
:10389000FFF72DFB3055601C84B2BC42E5DB1021E4
:1038A0000248FFF7A6F90020BDE8F08100080140BA
:1038B00000300140600798040F0F3E0003030E0024
:1038C0000010020000000000000000004000404026
:1038D00000000000000000000000000000000000E8
:1038E00000000000000000000000200000000000B8
:1038F00000000000000400000000000000000000C4
:103900000000000000046000000000000000000053
:103910000000000000000000600400000300000040
:10392000000000000000000000000000008040C017
:1039300020A060E0109050D030B070F0088848C8E7
:1039400028A868E8189858D838B878F8048444C487
:1039500024A464E4149454D434B474F40C8C4CCC87
:103960002CAC6CEC1C9C5CDC3CBC7CFC028242C23F
:1039700022A262E2129252D232B272F20A8A4ACA87
:103980002AAA6AEA1A9A5ADA3ABA7AFA068646C627
:1039900026A666E6169656D636B676F60E8E4ECE27
:1039A0002EAE6EEE1E9E5EDE3EBE7EFE018141C1EB
:1039B00021A161E1119151D131B171F1098949C957
:1039C00029A969E9199959D939B979F9058545C5F7
:1039D00025A565E5159555D535B575F50D8D4DCDF7
:1039E0002DAD6DED1D9D5DDD3DBD7DFD038343C3AF
:1039F00023A363E3139353D333B373F30B8B4BCBF7
:103A00002BAB6BEB1B9B5BDB3BBB7BFB078747C796
:103A100027A767E7179757D737B777F70F8F4FCF96
:103A20002FAF6FEF1F9F5FDF3FBF7FFF000005805D
:103A30000F800A001B801E001400118033803600A6
:103A40003C00398028002D8027802200638066009A
:103A50006C00698078007D8077807200500055800E
:103A60005F805A004B804E0044004180C380C600F6
:103A7000CC00C980D800DD80D780D200F000F5806E
:103A8000FF80FA00EB80EE00E400E180A000A5805A
:103A9000AF80AA00BB80BE00B400B18093809600C6
:103AA0009C00998088008D808780820083818601B8
:103AB0008C01898198019D8197819201B001B58126
:103AC000BF81BA01AB81AE01A401A181E001E58112
:103AD000EF81EA01FB81FE01F401F181D381D6017E
:103AE000DC01D981C801CD81C781C2014001458176
:103AF0004F814A015B815E015401518173817601DE
:103B00007C01798168016D816781620123812601D1
:103B10002C01298138013D81378132011001158145
:103B20001F811A010B810E01040101810383060329
:103B30000C03098318031D83178312033003358395
:103B40003F833A032B832E03240321836003658381
:103B50006F836A037B837E037403718353835603ED
:103B60005C03598348034D8347834203C003C583E5
:103B7000CF83CA03DB83DE03D403D183F383F6034D
:103B8000FC03F983E803ED83E783E203A383A60341
:103B9000AC03A983B803BD83B783B20390039583B5
:103BA0009F839A038B838E038403818380028582A3
:103BB0008F828A029B829E0294029182B382B60215
:103BC000BC02B982A802AD82A782A202E382E60209
:103BD000EC02E982F802FD82F782F202D002D5827D
:103BE000DF82DA02CB82CE02C402C1824382460265
:103BF0004C02498258025D825782520270027582DD
:103C00007F827A026B826E026402618220022582C8
:103C10002F822A023B823E02340231821382160234
:103C20001C02198208020D82078202024C3C000825
:103C300000000020600000007C330008AC3C00085D
:103C400060000020F02E00008C330008000000000F
:103C50000000000000000000000000000000000064
:103C60000000000000000000000000000000000054
:103C700050C3000000000000000000000000000031
:103C80000000000000000000000000000000000034
:103C90000000000000000000010203040102030410
:0C3CA000060708090204060800000000E6
:04000005080001519D
:00000001FF
