:020000040800F2
:10000000D81A002069010008710100087301000876
:100010007501000877010008790100080000000060
:100020000000000000000000000000007B0100084C
:100030007D010008000000007F0100088101000828
:100040008301000883010008830100088301000880
:100050008301000883010008830100088301000870
:100060008301000883010008830100088301000860
:100070008301000883010008830100088301000850
:100080008301000883010008830100088301000840
:100090008301000883010008830100088301000830
:1000A0008301000883010008830100088301000820
:1000B0008301000883010008830100088301000810
:1000C0008301000883010008830100088301000800
:1000D00083010008830100088301000883010008F0
:1000E000830100088301000883010008000000006C
:1000F0000000000000000000000000000000000000
:1001000000000000000000008301000883010008D7
:1001100083010008830100088301000883010008AF
:10012000830100088301000883010008830100089F
:10013000830100088301000883010008830100088F
:100140008301000883010008830100085D2B00087B
:10015000DFF810D000F082F800480047B54F0008E3
:10016000AFF30080D81A00200648804706480047B1
:10017000FEE7FEE7FEE7FEE7FEE7FEE7FEE7FEE757
:10018000FEE7FEE775330008510100080649074AFB
:100190000868504343F23902104408604008704731
:1001A0000149086070470000E40000206D4EC64120
:1001B00040EA01039B0703D009E008C9121F08C0E9
:1001C000042AFAD203E011F8013B00F8013B521E69
:1001D000F9D27047421E12F8013F002BFBD111F8F3
:1001E000013B02F8013B002BF9D17047421C10F88B
:1001F000011B0029FBD1801A70472DE9F05F0546ED
:10020000002092469B4688460646814640241BE0D5
:10021000284641464746224600F041F853465A4692
:10022000C01A914110D311461846224600F028F812
:100230002D1A67EB01084F4622460120002100F0ED
:100240001FF817EB00094E41201EA4F10104DFDC6A
:10025000484631462A464346BDE8F09F064C074DC6
:1002600006E0E06840F0010394E807009847103486
:10027000AC42F6D3FFF770FFE056000800570008C5
:10028000202A04DB203A00FA02F100207047914056
:10029000C2F1200320FA03F3194390407047202A4B
:1002A00004DB203A21FA02F00021704721FA02F320
:1002B000D040C2F120029140084319467047000027
:1002C00010B5002002F048F9002001F0B4FDFF2134
:1002D000002001F0C4FE4C4801F03AFD4A48006895
:1002E00020F020002030484908600846006820F4CB
:1002F00080400860002001F0CFFC444802F07CF907
:100300004248006820F4F85000F5E0603F4908607A
:100310000846006820F4604000F560400860084628
:10032000006820F03E00801C08600A460221002080
:1003300002F026F9364801F0EFFF3548006820F05A
:100340003E001E30324908600846006820F4E07024
:1003500000F5E07008600A460121002001F0A8FFC6
:1003600000202C490860084600686FF30A00DA3064
:1003700008600846006820F0804008600021254899
:10038000006861F3DC20234908600A460021084622
:1003900001F0B0FD002020490860084600686FF3B6
:1003A0000A0008600846006820F0804000F18040A4
:1003B000086000211848006861F3DC2016490860D5
:1003C0000A460021084601F07DFD01231A4600215E
:1003D000084601F0A7FD002302221021184600F074
:1003E000ABFD00221146104601F0BFFD012211466F
:1003F000002001F0ADFF0321002001F0E2FD00210B
:10040000084601F006FE10BD080000201000002084
:10041000180000201C0000202000002008B502F079
:100420008BFA01211C2002F0CDFE0121084602F0CA
:10043000C9FE0121264802F01BFB1020ADF8000088
:1004400003208DF8020048208DF8030069462148FA
:1004500002F083FA0220ADF8000003208DF80200BC
:1004600048208DF8030069461A4802F076FA012008
:10047000ADF8000003208DF8020048208DF803003D
:100480006946144802F069FA4FF40040ADF80000E4
:1004900003208DF8020010208DF8030069460E48F5
:1004A00002F05BFA4FF48050ADF8000003208DF8A5
:1004B000020048208DF803006946084802F04DFA12
:1004C00001200749087000200649087008BD000097
:1004D000000230000010014000080140000C014003
:1004E000300000200400002010B504462CB94FF461
:1004F0000041034802F00FFB00E000BF00BF10BD49
:100500000008014010B504462CB94FF400410348DF
:1005100002F0FFFA00E000BF00BF10BD000801407C
:1005200070B506460124002500BF00200D49087063
:1005300012E006EA040018B12846FFF7E3FF02E0E4
:100540002846FFF7D1FF6006040E06480078401CDD
:1005500004490870681CC5B2024800780128E8DB2D
:1005600070BD00003900002010B53948007800281F
:1005700069D03848006800285FD13548007935498E
:10058000086000BF00BF344800686FF30A0000F243
:100590000130314908602E4841782F48406861F3A6
:1005A00003002D4948600846406820F0100048606C
:1005B000274841792848406861F3861026494860F9
:1005C0000846406820F08000803048602049487824
:1005D00001F00EFCC4B21E48807898B100201F497B
:1005E00008700AE0FFF7D2FD1D491C4A12788854B2
:1005F0001A480078401C1949087018480078A04231
:10060000F0DB17E00020154908700AE01048C078B8
:100610001349124A1278885410480078401C0F4938
:1006200008700E480078A042F0DB0948C078401CF2
:100630000749C87000F052FA08E006480068401EFA
:100640000449086002E000200249086010BD000073
:100650003100002028000020E800002039000020A0
:10066000F400002038B500BF00BF052401214F4829
:1006700002F046FA002870D140204D4B4D4A01212E
:100680000090002001F0B1FE00F0B6FA4948008861
:10069000C0F30A00A0F2011000285FD0FF284AD062
:1006A000B0F5807F4CD0A0F2FF1000287BD100BFB6
:1006B00000BF414800686FF30A0000F201303E4974
:1006C00008603C480079496860F303013A4841609A
:1006D0003848007901093848406861F30410364908
:1006E00048603448007981093348406861F38610D6
:1006F000314948602F480079C1092F48406861F3AB
:10070000C7102D49486000202C4908700CE028488B
:100710002A490978405C2A49284A1278885427488F
:100720000078401C25490870244800784028EEDBFA
:1007300000F0D4F937E01E490878FFF7F1FE32E007
:100740001B48007800F0010018B10020FFF7DAFE26
:1007500002E00020FFF7C8FE25E025E000BF00BF53
:100760001348007808B1012000E000201549087006
:100770000F48407848700E48807810B90120887082
:1007800002E000200F49887000200E49C870084818
:10079000C07808710648007908B1012000E0002007
:1007A0000849487100BF00BF204638BD0010014015
:1007B0004001002034010020E80000203900002022
:1007C000F40000203100002010B5614800780928AD
:1007D0007BD2DFE800F0051255B58C95A3AC9D00E7
:1007E00000BF0020FFF78EFEFFF76AFD0020FFF735
:1007F0007BFE012056490870A8E00020554908609A
:100800004860084600686FF30A0000F20130086093
:1008100000215048006861F3DC204E49086008461A
:10082000406820F04000403048600846406820F0B2
:100830000F000F3048600846406820F0800080308C
:1008400048600846406820F0100048600020424997
:1008500008700DE03F4800783F49097808443F4957
:100860003D4A127888543C480078401C3A49087048
:10087000394800784028EDDB02203549087065E0F2
:1008800000BF00BF3648006800BB3648007801282A
:1008900009DA34480178012088403349097808434F
:1008A0003149087002E000202F49087000BF2E482F
:1008B0000078FFF735FE2B480078401C2949087066
:1008C0004CF250302649086005E039E024480068C1
:1008D000401E2349086023480078022803DD0420D5
:1008E0001B49087002E00220194908702EE000BF81
:1008F00000BFFFF7B7FE164908700520087025E015
:1009000000BF00BFFFF730FE0820114908701DE04E
:1009100000F022F904200E49087017E000F026F8D4
:10092000044604B900BF0720094908700EE000F032
:1009300077F8044604B900BF06200549087005E0B1
:1009400000BF00BF00200249087000BF00BF10BDFB
:1009500004000020E800002039000020F4000020FE
:1009600028000020370000203800002070B5002546
:1009700000BF042449E00020264908700FE0FFF77B
:1009800005FC2549234A12788854FF202349214A2F
:10099000127888541F480078401C1E4908701D4872
:1009A0000078A042EBDB00BF23461B4A4FF4806176
:1009B000002001F043FF2346184A4FF480610020D5
:1009C00001F094FB002500201249087017E012483E
:1009D00010490978405C11490E4A1278895C8842B6
:1009E00001D1012000E0002005461DB900BF00BF75
:1009F000002070BD07480078401C06490870054873
:100A00000078A042E3DB201DC4B2402CB3DD0120FE
:100A1000EFE7000039000020F40000204001002032
:100A200070B5002500BF01244BE000202849087064
:100A300011E0FFF7ABFB00F07F002649244A127853
:100A40008854FF202449224A12788854204800788C
:100A5000401C1F4908701E480078A042E9DB00BF17
:100A600023461C4A4FF4F871002001F0E7FE2346AC
:100A7000194A4FF4F871002001F038FB00250020DE
:100A80001349087017E0134811490978405C12496E
:100A90000F4A1278895C884201D1012000E00020D1
:100AA00005461DB900BF00BF002070BD0848007892
:100AB000401C0749087006480078A042E3DB601C30
:100AC000C4B2402CB1DD00BF00BF0120EDE7000043
:100AD00039000020F4000020400100207CB50020F7
:100AE000FFF710FD322400BF154A0221002001F05B
:100AF000ABFD44B900BF00BF124B134A134900209D
:100B000001F0BCF97CBD601EC4B20D48007800F055
:100B100001000028E8D00E49097901F00F0001F02A
:100B200067F9C5B201200B4B094A0221CDE90050FB
:100B3000002001F0A9FD0020FFF7D6FC00BFE1E78F
:100B4000140000203C0000203B0000203A00002060
:100B5000E8000020F400002038B500BF4FF48051B9
:100B6000214801F0CDFF08B1012000E000200090F5
:100B70009DF800001D490978884201D0012000E05D
:100B80000020044654B31A4800686FF30A0000F2CC
:100B90000120174908600846406820F00F00401CFB
:100BA00048600846406820F01000486008464068E9
:100BB00020F04000403048600846406820F0800047
:100BC0008030486000200B4908709DF8000018B97B
:100BD00008460078401C0870FFF780FF9DF8000071
:100BE0000249087038BD0000000C014030000020B0
:100BF000E8000020F400002070B59AB03748007972
:100C0000C0F3001078B135480068C0F3D1203349F3
:100C10000988C1F30A0100EB81452A4630A1354815
:100C200003F074FF08E02D480088C0F30A052A4647
:100C300031A1304803F06AFF28480079C0F3401022
:100C400020B132A12B48FFF7C5FA03E032A12948B1
:100C5000FFF7C0FA2149097901F00F0001F0C8F847
:100C6000C6B21E480079C0F3801020B12DA12148E2
:100C7000FFF7B0FA03E02EA11E48FFF7ABFA1748C2
:100C80000079C0F3C01020B12CA11A48FFF7A2FAD6
:100C900003E02DA11748FFF79DFA32462DA101A8C8
:100CA00003F034FF01A91348FFF794FA00240BE086
:100CB0002D48025D2DA101A803F028FF01A90D48D0
:100CC000FFF788FA601CC4B2B442F1DB0948FFF7B1
:100CD0008DFA284908601AB070BD00003401002068
:100CE0000D0AC0A9D5B94944A3BA30782578200D9A
:100CF0000A0000008C0100200D0AB1EAD7BC49446B
:100D0000A3BA30782578200D0A000000D4B6B3CC01
:100D1000D6A1200D0A000000CAFDBEDDD6A1200D1F
:100D20000A000000BFC9B1E4CBD9C2CA200000004C
:100D3000BAE3B6A8CBD9C2CA2000000043414E2076
:100D40004644D6A1200D0A0043414E20D6A1200DD5
:100D50000A000000B3A4B6C8A3BA25640D0ACAFDF0
:100D6000BEDDA3BA0000000040010020253032782B
:100D7000200000004000002070B5054600246A48AD
:100D800000785A2872D1681E6749085C0D28F9D18D
:100D9000084640780006897800EB01406249C9782E
:100DA00000EB01206049097944185F48407900F060
:100DB000010090B1A10C5D48006861F30A005B4935
:100DC00008600846006864F3DC2008600846406854
:100DD00020F01000103048600AE05448006864F3C6
:100DE0000A00524908600846406820F01000486038
:100DF0004D48407900F0020090B14C48406820F026
:100E000040004A4948600846406820F08000486039
:100E100045488079082810DD0820434988710CE096
:100E20004248406820F04000403040494860084651
:100E3000406820F08000803048603B488079082876
:100E400008DC394881793948406861F30300374943
:100E500048604FE0344880790C2808DC334840680B
:100E600020F00F0009303149486043E05AE02E4835
:100E70008079102807DC2D48406820F00F000A30E8
:100E80002A49486036E028488079142807DC27483A
:100E9000406820F00F000B30244948602AE02248C7
:100EA0008079182807DC2148406820F00F000C30BA
:100EB0001E4948601EE01C488079202807DC1B483A
:100EC000406820F00F000D301849486012E01648C5
:100ED0008079302807DC1548406820F00F000E307C
:100EE0001249486006E01148406820F00F000F30BA
:100EF0000E49486000200E4908700DE00A490C4870
:100F00000078C01D085C0B49094A127888540848CB
:100F10000078401C06490870054800784028EDDB41
:100F2000FFF7DCFD70BD00008C050020E80000200C
:100F300039000020F40000202DE9F04106460F465C
:100F400090461D46002425B1012D12D0022D2ED130
:100F50001EE03946304600F015FE044614B1204626
:100F6000BDE8F08142463946304600F0C3FA0446F7
:100F700020E03946304600F079FD04460CB12046A9
:100F8000EEE742463946304600F028F9044611E0C3
:100F90003946304600F0DEFC04460CB12046DFE75F
:100FA00042463946304600F009F8044602E04FF068
:100FB000FF3400BF00BF2046D2E700002DE9FC410E
:100FC00007460D4690460026834880680190002021
:100FD0000090009820F4403000F50030009000248C
:100FE000122D76D2DFE805F00929DE464748494A46
:100FF00050769ABABDDADB4B4C51019820F07F4015
:101000000190019820F4F81000F5C020019001989B
:1010100020F4706000F580700190019820F00F00BE
:10102000401C0190009820F4FE4000F5E060009024
:10103000009864F305000090B7E0019820F07F402D
:101040000190019820F4F81000F50030019001980B
:1010500020F470600190019820F00F00019000983A
:1010600020F4FE4000F540700090009864F3050005
:1010700000909AE000BF00BF00BF00BF00BF00BFEC
:101080004FF0FF30BDE8FC8100BF019820F07F40A9
:101090000190019820F4F81000F56020019001986B
:1010A00020F4706000F540700190019820F00F006E
:1010B000C01C0190009820F4FE4000F57060009084
:1010C000009864F305000090009820F440300090F0
:1010D0006BE067E0019820F07F400190019820F4D8
:1010E000F81000F5E0200190019820F4706000F500
:1010F00000700190019820F00F00801C0190009872
:1011000020F4FE4000F500600090009864F30500B4
:101110000090009820F44030009046E0019820F0C4
:101120007F400190019820F4F81000F5C020019054
:10113000019820F4706000F580700190019820F013
:101140000F00401C0190009820F4FE4000F5E06084
:101150000090009864F30500009026E04FF0FF3007
:1011600090E7019820F07F400190019820F4F8105A
:1011700000F500300190019820F470600190019812
:1011800020F00F000190009820F4FE4000F5407020
:101190000090009864F30500009006E000BF4FF057
:1011A000FF306FE74FF0FF306CE700BF0821384693
:1011B000019A01F097FB064616B16FF0010061E756
:1011C0000C213846009A01F08DFB064616B16FF0EF
:1011D000020057E7304655E7E45100082DE9FC418D
:1011E00007460D4690460026C148806801900020C1
:1011F0000090009820F4403000F50030009000246A
:10120000122D7CD2DFE805F009297B4967868788A3
:101210008DB2D6FAF8F7F64A898E019820F07F4011
:101220000190019820F4F81000F5602001900198D9
:1012300020F4706000F540700190019820F00F00DC
:10124000C01C0190009820F4FE4000F570600090F2
:10125000009864F30500009033E1019820F07F408E
:101260000190019820F4F81000F5C0200190019839
:1012700020F4706000F580700190019820F00F005C
:10128000401C0190009820F4FE4000F5E0600090C2
:10129000009864F30500009013E100BF019820F06E
:1012A0007F400190019820F4F81000F50030019083
:1012B000019820F470600190019820F00F000190D7
:1012C000009820F4FE4000F540700090009864F310
:1012D00005000090F5E0019820F07F400190019812
:1012E00020F4F81000F580300190019820F470602F
:1012F0000190019820F00F000190009800E0DDE0DF
:1013000020F4FE4000F500700090009864F30500A2
:101310000090D6E000BF00BF00BF4FF0FF30BDE837
:10132000FC8100BF019820F07F400190019820F4DB
:10133000F81000F5F0100190019820F4706000F5AD
:10134000E0600190019820F00F00C01D019000980E
:1013500020F4FE4000F5F8500090009864F305007A
:101360000090009820F440300090AAE0019820F00E
:101370007F400190019820F4F81000F5881001904A
:10138000019820F4706000F580600190019820F0D1
:101390000F00001D0190009820F4FE4000F59050D1
:1013A0000090009864F305000090009820F440300D
:1013B000009086E0019820F07F400190019820F491
:1013C000F81000F560200190019820F4706000F59D
:1013D00040700190019820F00F00C01C019000980F
:1013E00020F4FE4000F570600090009864F3050062
:1013F000009066E045E041E020E0FFE7019820F042
:101400007F400190019820F4F81000F50020019031
:10141000019820F4706000F500700190019820F0B0
:101420000F00801C0190009820F4FE4000F5106031
:101430000090009864F30500009042E0019820F0CD
:101440007F400190019820F4F81000F5C020019031
:10145000019820F4706000F580700190019820F0F0
:101460000F00401C0190009820F4FE4000F5E06061
:101470000090009864F30500009022E04FF0FF30E8
:101480004DE7019820F07F400190019820F4F8107A
:1014900000F500300190019820F4706001900198EF
:1014A00020F00F000190009820F4FE4000F54070FD
:1014B0000090009864F30500009002E04FF0FF30C8
:1014C0002DE700BF08213846019A01F00BFA0646C5
:1014D00016B16FF0010022E70C213846009A01F0A6
:1014E00001FA064616B16FF0020018E7304616E71B
:1014F000E45100082DE9FC4107460D4690460026C0
:10150000FE488068019000200090009820F4403050
:1015100000F5003000900024122D7DD2DFE805F0A8
:10152000092949698CACC9F1EFEEEDECEBEAE96A07
:10153000CAE8019820F07F400190019820F4F8104B
:1015400000F5F0100190019820F4706000F5E06063
:101550000190019820F00F00C01D0190009820F428
:10156000FE4000F5F8500090009864F305000090EC
:10157000D9E1019820F07F400190019820F4F81003
:1015800000F560200190019820F4706000F5407033
:101590000190019820F00F00C01C0190009820F4E9
:1015A000FE4000F570600090009864F30500009024
:1015B000B9E1019820F07F400190019820F4F810E3
:1015C00000F500200190019820F4706000F5007093
:1015D0000190019820F00F00801C0190009820F4E9
:1015E000FE4000F510600090009864F30500009044
:1015F00099E100BF019820F07F400190019820F40C
:10160000F81000F5C0200190019820F4706000F5FA
:1016100080700190019800E081E120F00F00401CF3
:101620000190009820F4FE4000F5E06000900098E2
:1016300064F30500009076E1019820F07F4001906E
:10164000019820F4F81000F580200190019820F412
:10165000706000F580700190019820F00F00401C30
:101660000190009820F4FE4000F5A06000900098E2
:1016700064F30500009056E1019820F07F4001904E
:10168000019820F4F81000F540300190019820F402
:1016900070600190019820F00F000190009820F4F4
:1016A000FE4000F580600090009864F30500009013
:1016B00039E100BF019820F07F400190019820F4AB
:1016C000F81000F500300190019820F4706001904E
:1016D000019820F00F000190009820F4FE4000F5E2
:1016E00040700090009820F03F00401C00901AE1EC
:1016F00025E0F0E0CFE0AEE08DE06CE045E01DE0FD
:10170000FFE7019820F07F400190019820F4F81045
:1017100000F580300190019820F4706001900198EC
:1017200020F00F000190009820F4FE4000F50070BA
:101730000090009820F03F000090F4E000BF019876
:1017400020F07F4000F180700190019820F4F810A3
:1017500000F5F0100190019820F4706000F5E06051
:101760000190019820F00F00C01D0190009820F416
:10177000FE4000F5F8500090009864F305000090DA
:10178000009820F440300090CDE0019820F07F4098
:1017900000F180700190019820F4F81000F5881095
:1017A0000190019820F4706000F58060019001982C
:1017B00020F00F00001D0190009820F4FE4000F57D
:1017C00090500090009864F305000090009820F479
:1017D00040300090A7E0019820F07F4001900198F0
:1017E00020F4F81000F5F0100190019820F47060DA
:1017F00000F5E0600190019820F00F00C01D0190FD
:10180000009820F4FE4000F5F8500090009864F332
:101810000500009087E0019820F07F40019001983A
:1018200020F4F81000F590100190019820F47060F9
:1018300000F5A0600190019820F00F00401D01907C
:10184000009820F4FE4000F598500090009864F352
:101850000500009067E0019820F07F40019001981A
:1018600020F4F81000F560200190019820F47060D9
:1018700000F540700190019820F00F00C01C01900D
:10188000009820F4FE4000F570600090009864F32A
:101890000500009047E0019820F07F4001900198FA
:1018A00020F4F81000F500200190019820F47060F9
:1018B00000F500700190019820F00F00801C01904D
:1018C000009820F4FE4000F510600090009864F34A
:1018D0000500009027E0019820F07F4001900198DA
:1018E00020F4F81000F5C0200190019820F47060F9
:1018F00000F580700190019802E00000E4510008BA
:1019000020F00F00401C0190009820F4FE4000F5EC
:10191000E0600090009864F30500009003E04FF051
:10192000FF30BDE8FC8100BF08213846019A00F075
:10193000D9FF064616B16FF00100F2E70C213846D8
:10194000009A00F0CFFF064616B16FF00200E8E7FC
:101950003046E6E7F8B506460C46002542484068A2
:101960000090122C70D2DFE804F0090A6F0B0C0D06
:101970000E0F25262728292A2B41425800BF00BFD9
:1019800000BF00BF00BF00BF009820F07F40009064
:10199000009820F47F0000F560200090009820F46B
:1019A000FE4000F540700090009820F07F00C01CC1
:1019B00000904CE000BF00BF00BF00BF00BF00BFF1
:1019C000009820F07F400090009820F47F0000F500
:1019D000F0100090009820F4FE4000F5E0600090C8
:1019E000009820F07F00C01D009030E000BF0098FC
:1019F00020F07F400090009820F47F0000F5E02068
:101A00000090009820F4FE4000F5007000900098CF
:101A100020F07F00801C009019E0009820F07F40AB
:101A20000090009820F47F0000F578100090009856
:101A300020F4FE4000F570600090009820F07F00D8
:101A40000F30009003E0FFE74FF0FF30F8BD00BF1C
:101A500004213046009A00F045FF054615B16FF0AD
:101A60000100F3E72846F1E7E4510008F8B506461F
:101A70000C460025424840680090122C70D2DFE8E6
:101A800004F0090A6F0B0C0D0E0F25262728292AB2
:101A90002B41425800BF00BF00BF00BF00BF00BFC6
:101AA000009820F07F400090009820F47F0000F51F
:101AB000F0100090009820F4FE4000F5E0600090E7
:101AC000009820F07F00C01D00904CE000BF00BFD8
:101AD00000BF00BF00BF00BF009820F07F40009013
:101AE000009820F47F0000F578100090009820F412
:101AF000FE4000F570600090009820F07F000F30ED
:101B0000009030E000BF009820F07F4000900098E7
:101B100020F47F0000F560200090009820F4FE4043
:101B200000F540700090009820F07F00C01C0090ED
:101B300019E0009820F07F400090009820F47F008A
:101B400000F5FC000090009820F4FE4000F5F850ED
:101B50000090009820F07F001F30009003E0FFE726
:101B60004FF0FF30F8BD00BF04213046009A00F06E
:101B7000B9FE054615B16FF00100F3E72846F1E71D
:101B8000E4510008F8B505460C4600264148406877
:101B90000090122C71D2DFE804F0090A0B0C0D0E34
:101BA0000F10262728292A2B2C42435900BF00BF9B
:101BB00000BF00BF00BF00BF00BF009820F07F4003
:101BC0000090009820F47F0000F5781000900098B5
:101BD00020F4FE4000F570600090009820F07F0037
:101BE0000F3000904CE000BF00BF00BF00BF00BF3F
:101BF00000BF009820F07F400090009820F47F0004
:101C000000F5FC000090009820F4FE4000F5F8502C
:101C10000090009820F07F001F30009030E000BF5F
:101C2000009820F07F400090009820F47F0000F59D
:101C3000F0100090009820F4FE4000F5E060009065
:101C4000009820F07F00C01D009019E0009820F05F
:101C50007F400090009820F47F0000F57E00009007
:101C6000009820F4FE4000F57C500090009820F091
:101C70007F003F30009003E0FFE74FF0FF30F8BDFA
:101C800000BF04212846009A00F02CFE064630468C
:101C9000F5E70000E4510008F8B506460C460025BB
:101CA0002A48006800902078009960F304010091B0
:101CB00020784109009861F345100090207881094F
:101CC000009861F3861000902078C109009861F3B4
:101CD000082000902088010A009861F34A200090B3
:101CE0002088810A009861F30C3000902088C10A96
:101CF000009861F3104000902088010B009861F378
:101D0000514000902088410B009861F39240009070
:101D10002088810B009861F3D34000902088C10B8C
:101D2000009861F3145000902068010C009861F352
:101D30001F70009000213046009A00F0D3FD054648
:101D400015B14FF0FF30F8BD2846FCE7E45100081C
:101D500008B5014625480068009000980A6860F3BD
:101D600004020A6000984209086862F3451008609E
:101D700000988209086862F3861008600098020AD9
:101D8000086862F3C71008600098420A086862F3A6
:101D9000092008600098020B086862F38A20086036
:101DA0000098020C086862F3CB2008600098420C8F
:101DB000086862F30C3008600098820C086862F3CF
:101DC0004D3008600098C20C086862F38E300860DD
:101DD0000098020D086862F3CF3008600098020F87
:101DE000086862F313400860002008BDE451000851
:101DF0000146002000BF00BF092901DA084619E0AA
:101E0000A1F10902072A13D2DFE802F00406080A4A
:101E10000C0E10000C200CE010200AE0142008E04A
:101E2000182006E0202004E0302002E0402000E0FE
:101E300000BF00BF704738B5054600240020009061
:101E40006A4640F60C61284600F030F9044614B1A9
:101E50004FF0FF3038BD9DF8000040F001000090C9
:101E60009DF8002040F60C61284600F0C9FC0446AD
:101E700014B16FF00100EDE70020EBE72DE9F84326
:101E800080460C4615461E460027B9464FF03409D9
:101E9000002000906A464946404600F08BF907460C
:101EA0001FB14FF0FF30BDE8F8839DF801002070AE
:101EB0009DF8000028709DF8020000F03F0030708F
:101EC0003846F0E72DE9F84306460C4615464FF034
:101ED000000800200090286800904FF4FA7000EB92
:101EE000C40739463046009A00F0FCFC8046404664
:101EF000BDE8F8832DE9F84306460C4615464FF039
:101F0000000800200090286800904FF4F87000EB63
:101F1000C40739463046009A00F0E4FC804640464B
:101F2000BDE8F8832DE9F84380460C4615461E4669
:101F30004FF000092EB1009820F080008030009012
:101F400003E0009820F080000090009865F3040002
:101F5000009004F5E8779DF800203946404600F0EF
:101F60004FFC81464846BDE8F8832DE9F843074613
:101F70000D4616460024A04640F607680020009053
:101F80000DF103024146384600F090F804461CB1BA
:101F90004FF0FF30BDE8F883009865F318600090BB
:101FA000009866F3596000909DF80320414638463A
:101FB00000F026FC044614B16FF00100EAE7204669
:101FC000E8E7F8B506460D46002400271E27002046
:101FD000ADF800006A463946304600F0B9F80446CC
:101FE00014B14FF0FF30F8BDBDF800004FF61F717F
:101FF00029400843ADF80000BDF8002039463046BE
:1020000000F046FC044614B16FF00100EBE72046F7
:10201000E9E7F8B506460D460020009000246A4620
:102020000321304600F042F8044614B14FF0FF306F
:10203000F8BD9DF8000020F0070000909DF800001A
:10204000284300909DF800200321304600F0D8FB83
:10205000044614B16FF00100EAE72046E8E72DE9F5
:10206000F04198B080460E460027002402E00DF8AB
:102070000460641C602CFAD34FF48065002410E0E7
:1020800060236A462946404600F0D8FB074627B140
:102090004FF0FF3018B0BDE8F08105F1600085B267
:1020A000641C152CECD33846F4E700002DE9F04110
:1020B00006460C46154603274FF00008C4F30320DC
:1020C0003030084908704C70002088703B46064A42
:1020D000304600F035FC8046034880782870404642
:1020E000BDE8F0818C090020EC0900202DE9F047C3
:1020F00081460D4617461E46B01C1FFA80F84FF069
:10210000000AC5F3032030300F4908704D700224D7
:1021100004E000200C490855601C84B24445F8DBFB
:1021200043460A4A0849484600F00AFC8246002411
:1021300005E00649A01C085C3855601C84B2B44216
:10214000F7DB5046BDE8F0878C090020EC09002041
:102150002DE9F04781460E4615464FF0040A4FF030
:102160000008C6F303203030104908704E70534603
:102170000F4A484600F0E4FB8046B8F1000F02D059
:102180004046BDE8F0870020288002240AE0084885
:10219000075D2988A01EC00007FA00F008442880C7
:1021A000601CC4B2042CF2DB4046EAE78C09002034
:1021B000EC0900202DE9F04781460E4615464FF008
:1021C000060A4FF00008C6F30320303010490870AB
:1021D0004E7053460F4A484600F0B2FB8046B8F1B5
:1021E000000F02D04046BDE8F0870020286002249E
:1021F0000AE00848075DA01EC00007FA00F0296841
:1022000008442860601CC4B2062CF2DB4046EAE7B2
:102210008C090020EC0900202DE9FF4F81B00E460B
:1022200091461D46022000EB85001FFA80FA4FF010
:10223000000BC6F3032030301B4908704E70022497
:1022400004E0002018490855601C84B25445F8DBAE
:102250005346164A1449019800F072FB8346BBF1BD
:10226000000F03D0584605B0BDE8F08F4FF00208CC
:10227000002415E00020009000270AE00B4810F829
:1022800008000DF80700781C87B208F101001FFA5A
:1022900080F8042FF2DB009849F82400601C84B217
:1022A000AC42E7DB5846DEE78C090020EC09002051
:1022B0002DE9F84306460D4614460027B8461DB9D9
:1022C0006FF06300BDE8F883124800680090009842
:1022D00020F08000009020784108009861F31C6095
:1022E000009020888109009861F35F700090207849
:1022F000009960F34511009105EB4500502101EB79
:10230000800841463046009A00F0ECFA074638460D
:10231000D8E700003452000808B501460B480068B1
:1023200000900098020E086862F34500086000986B
:10233000420F086862F38810086000984209086834
:1023400062F300000860002008BD0000345200085D
:102350002DE9F84307460C4616460025A8461CB949
:102360006FF06300BDE8F88304EB4400502101EBFB
:102370008008002000906A4641463846FFF796FEE6
:10238000054615B14FF0FF30ECE79DF8000006F070
:102390000F0108438DF800009DF8002041463846A3
:1023A00000F02EFA054615B16FF00100DAE7284675
:1023B000D8E7F8B505460C46002600270020009017
:1023C00004EB4400502101EB8000461C009820F4EF
:1023D000807000F5807000909DF8012031462846FD
:1023E00000F00EFA07463846F8BD2DE9FF4F9BB0C6
:1023F0008A4616469846DDF8A0900024002500275E
:102400000AEB4A00502101EB800B032318AA59461E
:102410001B98FFF701FF07461FB1601E1FB0BDE804
:10242000F08F189817901798C0F3C01010B16FF084
:102430000100F3E7199816901A9815901598C0F3B3
:102440000B0B0BF5806B09F10800C4B21798C0F3B1
:10245000401008B1201DC4B2E11704EB917189103E
:10246000A4EB810149B12046E11704EB9171891079
:10247000A4EB8102211D891ACCB24C2C00DD4C2426
:10248000234602AA59461B98FFF730FE074617B1AC
:102490006FF00200C2E79DF808008DF804009DF877
:1024A00009008DF805009DF80A008DF806009DF8DA
:1024B0000B008DF80700019830609DF80C008DF836
:1024C00004009DF80D008DF805009DF80E008DF8B4
:1024D00006009DF80F008DF80700019870601798AE
:1024E000C0F34010F0B19DF810008DF804009DF885
:1024F00011008DF805009DF812008DF806009DF87A
:1025000013008DF807000198B060002507E002A9CC
:1025100005F10C00085C08F80500681CC5B24D45C3
:10252000F5DB0DE00020B060002507E002A905F111
:102530000800085C08F80500681CC5B24D45F5DBCD
:1025400051461B98FFF735FF074617B16FF00300A0
:1025500064E7384662E7000070B5044602250026AD
:1025600000200549087048702B46044A204600F0B8
:10257000E7F90646304670BD8C090020EC090020C2
:102580002DE9F84306460D4614460027B84619487B
:1025900000680090009820F0800080300090208833
:1025A000010A009861F31C6000902088410B00989C
:1025B00061F35F70009020788109009861F35650B4
:1025C000009020784108009861F314400090207832
:1025D000009960F38611009105EB4500502101EB55
:1025E000800841463046009A00F07CF9074638469C
:1025F000BDE8F8833452000808B501461148006868
:10260000009000988209086862F300000860009852
:10261000020C086862F3450008600098420D0868E3
:1026200062F3871008600098020E086862F30C20BD
:1026300008600098420F086862F34F30086000207D
:1026400008BD0000345200082DE9F84307460C4647
:1026500015460026B0460020009004EB44005421AB
:1026600001EB80086A4641463846FFF71FFD0646E3
:102670001EB14FF0FF30BDE8F8839DF8000000F078
:10268000170028703046F6E72DE9FF4F9BB08B46C8
:102690001446289D00270BEB4B00502101EB8000D6
:1026A0001A90032317AADDE91A10FFF7B5FD0746B4
:1026B00027B14FF0FF301FB0BDE8F08F179816908C
:1026C0001698C0F3C01010B96FF00100F3E721793C
:1026D00001F00F00FFF78CFB8146A94502D26FF095
:1026E0000200E8E718981590199814901498C0F310
:1026F0000B001A901A9800F580601A9020788DF8D7
:10270000040060788DF80500A0788DF80600E07868
:102710008DF8070020798DF8080060798DF80900A0
:10272000A0798DF80A00E0798DF80B00002607E00B
:102730001E98815D01AA06F108001154701CC6B2F2
:10274000AE42F5D34FF0000AD04605F0030098B131
:1027500005F00300C0F1040A05F10800C6B200BF8D
:1027600008E0002006EB080101AA505408F101001E
:1027700000F0FF08D045F4DB05F10800504483B2B7
:1027800001AADDE91A1000F059F8074617B16FF0F9
:10279000030090E75946299A1B9800F007F807466E
:1027A00017B16FF0040086E7384684E72DE9F84357
:1027B00007460C461546002604EB4400502101EB69
:1027C000800000F1010800200090009820F4807043
:1027D00000F5807000902DB1009820F4007000F595
:1027E000007000909DF801204146384600F008F83E
:1027F00006461EB14FF0FF30BDE8F8833046FBE7D8
:102800002DE9F04106460C46154603274FF0000817
:10281000C4F303202030074908704C7008468570C7
:102820003B46054A304600F08BF880464046BDE8FE
:10283000F08100008C090020EC0900202DE9F04710
:1028400081460D4616461F46B81C1FFA80F84FF009
:10285000000AC5F3032020300B4908704D70022494
:1028600005E0A01E305C08490855601C84B2444550
:10287000F7DB4346054A0449484600F061F88246C2
:102880005046BDE8F08700008C090020EC090020CC
:102890002DE9F04707460D4616464FF004084FF065
:1028A0000009C5F3032020300C4908704D70002446
:1028B00008E0E00046FA00F0C1B2084AA01C11543A
:1028C000601CC4B2022CF4DB4346054A0349384677
:1028D00000F036F881464846BDE8F0878C090020B4
:1028E000EC0900202DE9F04707460D4616464FF04B
:1028F00006084FF00009C5F3032020300C4908708A
:102900004D70002408E0E00026FA00F0C1B2084A49
:10291000A01C1154601CC4B2042CF4DB4346054ACD
:102920000349384600F00CF881464846BDE8F08778
:102930008C090020EC09002010B502F089FB10BDC5
:102940002DE9F04107460C4615461E4632462946FB
:10295000204602F0D1FBBDE8F0812DE9F0410246AE
:1029600000250026002000230024002791F803C042
:102970000CF00F0591F803C00CF0100CBCF1000F27
:1029800003D091F802C04CEA050591F800C0BCF1F3
:10299000000F31D0146800202BE04FF0010C0CFA2E
:1029A00000F3B1F800C00CEA03069E4220D1830078
:1029B0004FF00F0C0CFA03F7BC4305FA03FC4CEA8A
:1029C000040491F803C0BCF1280F06D14FF0010CAC
:1029D0000CFA00FCC2F814C00AE091F803C0BCF184
:1029E000480F05D14FF0010C0CFA00FCC2F810C0E2
:1029F000401C0828D1D31460B1F800C0BCF1FF0F0F
:102A000034DD546800202EE000F1080C4FF001087E
:102A100008FA0CF3B1F800C00CEA03069E4221D17B
:102A200083004FF00F0C0CFA03F7BC4305FA03FCCC
:102A30004CEA040491F803C0BCF1280F05D100F161
:102A4000080C08FA0CF8C2F8148091F803C0BCF125
:102A5000480F07D100F1080C4FF0010808FA0CF8F4
:102A6000C2F81080401C0828CED35460BDE8F08125
:102A7000F0B50A46002300240021002500F000469E
:102A8000B6F1004F02D11D4EF16901E01B4E716895
:102A9000C0F3034583B200F44016B6F5401F08D1D9
:102AA00021F07061154E766826F07066134F7E60D7
:102AB00012E000F48016B6F5801F06D1032606FA50
:102AC00005F4A14341F0706106E0460D360103FABA
:102AD00006F6B14341F0706122B1460D360103FAAA
:102AE00006F6314300F00046B6F1004F02D1034E26
:102AF000F16101E0014E7160F0BD00000000014095
:102B00000246002093680B400BB1012000E000203A
:102B100070474161704701617047000008B50121AD
:102B2000112000F04FFB01210A48FFF7A1FF2020F0
:102B3000ADF8000003208DF8020010208DF803008E
:102B400069460548FFF709FF20210348FFF7E1FF29
:102B500008BD000000023000001001402DE9F041E6
:102B60004FF0A04040694FF0A041896900EA01069A
:102B700006F4805070B101F09DFD02F009FBF948A8
:102B8000006810B1F748006880474FF480504FF05C
:102B9000A041486106F4006060B101F0F9FEF2481E
:102BA000006810B1F048006880474FF400604FF0B3
:102BB000A041486106F0004060B101F04BFEEB48D7
:102BC000006810B1E948006880474FF000404FF0BE
:102BD000A041486106F40050A8B3E548006820F021
:102BE0000300E34908604020082804D0102809D0D9
:102BF000202815D10DE0DE48006840F00300DC49D4
:102C000008600DE0DA48006840F00200D84908602A
:102C100006E0D748006840F00100D549086000BFD1
:102C200000BFD348FC38006840F48070D049FC39BC
:102C300008600846006840F4806008604FF4005067
:102C40004FF0A041486106F0080048B1C94800684B
:102C500010B1C8480068804708204FF0A041486183
:102C600006F0100088B34FF0A040D0F81C8008F0A8
:102C70000F04C8F3434002280BD0062830D1BE48C9
:102C800050F8240020B1BC4850F824100220884796
:102C90002AE04FF0A040806920F010004FF0A041E2
:102CA0008861B648E10050F82100C0F38140012856
:102CB0000CD1B3490860B34850F82410204601F005
:102CC000FBF90020AE49086009E00EE0AA4850F880
:102CD000240020B1A84850F824100420884703E0BD
:102CE0004FF0A040006A00BF00BF06F4002000289B
:102CF0007DD09F48E83800689D49E439096808405C
:102D00004FF6FF7101EA104700259CE000240AE01D
:102D100027FA05F000F0010020B12C460120A84060
:102D2000874302E06D1C032DF2D300BF93480830A7
:102D3000E10050F8210000F00200E8B38F48E10004
:102D400050F82100C0F3814001282DD18E4850F861
:102D5000240040F4002189481030E20040F822109D
:102D600001F042F900F0010050B18448E10050F850
:102D7000210040F080518148E20040F8221009E033
:102D80007E48E10050F8210040F000517B48E2000D
:102D900040F822107948E10050F8210040F0044149
:102DA0007648E20040F8221074480830E10050F8FC
:102DB000210040F0020100E004E070480830E20029
:102DC00040F822106D480830E10050F8210000F072
:102DD00001006A490831E20051F8221001F00801AF
:102DE000084380B36548E10050F8210000E02DE081
:102DF000C0F3814001281AD0634850F8240040F401
:102E000000215E481030E20040F822102CB9006822
:102E100040F000505949103108605848E10050F81E
:102E2000210040F004415548E20040F82210534888
:102E30000830E10050F8210040F001014F4808300F
:102E4000E20040F82210002F7FF460AF06F48020EB
:102E500000287DD04648E83800684549E4390968CB
:102E6000084087B20025DBE000240AE027FA05F0DD
:102E700000F0010020B12C460120A840874302E069
:102E80006D1C032DF2D300BF39480830E10050F823
:102E9000210000F0020060B3022135480830E20052
:102EA00040F822103248E10050F82100C0F3814080
:102EB00001281ED1A040354909680840C8B144F036
:102EC000800001F073F8012031490860314850F862
:102ED0002420314850F82410204601F05BFD0020EA
:102EE0002B4908600120A0402849096881432748F0
:102EF00001601F480830E10050F8210000F0400058
:102F000038B31B48E10050F82100C0F3814001288C
:102F100056D0214850F8240018B30120A0401F4982
:102F200009680840E8B1012019490860194850F8BB
:102F30002420194850F82410204601F02BFD0020D1
:102F4000134908601548006850B90948F03801E095
:102F500069E035E0006820F040000549F03908607C
:102F60005EE01DE0785500087C550008805500089B
:102F7000000900508855000890550008000B0050CB
:102F800070000020A81200204800002078000020D7
:102F90006C000020B81200205800002068000020BB
:102FA0008048E10050F8210040F080617D48E20057
:102FB00040F8221040217B480830E20040F82210FF
:102FC00078480830E10050F8210000F0010030B3EB
:102FD000012174480830E20040F8221001207249B3
:102FE00008607048E10050F82100C0F381400128DA
:102FF00009D16E4850F824206D4850F8241020461E
:1030000001F0C8FC08E06B4850F8240020B1694882
:1030100050F824100820884700206349086000BF4A
:10302000002F7FF421AF06F40040D0B301246BE001
:103030006148E10050F82100C0F38140012800D030
:1030400061E05D48E10050F82100C0F3C03000B9F4
:1030500059E04FF0A040406900F4001010B300F0B8
:10306000C3FF00F001015448E20050F82200C0F311
:103070000040814246D15048E10050F8210000F064
:103080000040E0B30020494941F824004A48E100EB
:1030900050F8210040F080414748E20040F82210FB
:1030A00030E038E0454850F8240040F40021424820
:1030B0001030E20040F8221000F096FF00F001000E
:1030C00050B13D48E10050F8210040F080513A48AD
:1030D000E20040F8221009E03748E10050F82100F2
:1030E00040F000513448E20040F822103248E1003C
:1030F00050F8210040F004412F48E20000E001E0D8
:1031000040F8221000BF641C022C91D94FF4021029
:103110004FF0A041486106F48010E8B34FF48010EE
:103120004FF0A0414861012438E01E48E10050F80A
:103130002100C0F38140012800D02CE01948E100B3
:1031400050F82100C0F3C03000B924E01548E10078
:1031500050F8210000F00040E0B100F045FF00F021
:1031600001011048E20050F82200C0F30040814203
:1031700010D10120A0401249096808431049086095
:103180000848E10050F8210040F090410548E20075
:1031900040F8221000BF00E002E0641C032CC4D3FE
:1031A000BDE8F081000900506C000020B81200203A
:1031B0005800002090550008000B005048000020E7
:1031C0007800002029B1064A92690243044B9A61B3
:1031D00004E0034A92698243014B9A617047000000
:1031E0000010024021B1028842F04002028004E057
:1031F00002884FF6BF731A400280704702460020D3
:1032000013890B400BB1012000E0002070470146FC
:10321000888970478181704710B50022028802F4C6
:1032200041520B884C8823438C882343CC8823430A
:103230000C8923434C8923438C892343CC89234322
:103240001A430280838B4FF2FF74234083830B8ADF
:10325000038210BD10B500F001F810BD0CB50020C0
:10326000019000903F48006840F480303D4908607C
:1032700000BF3C48006800F4003000900198401CFA
:103280000190009818B90198B0F5A06FF1D13548B8
:10329000006800F4003010B10120009001E000202F
:1032A0000090009801285CD12F48006840F0100081
:1032B0002D4908600846006820F0030008600846B1
:1032C000006840F0020008602648406825494860D0
:1032D0000846406848600846406840F4806048609E
:1032E0000846C06A214908401E49C8620846C06AAB
:1032F0001F4908431B49C8620846006840F08060C7
:10330000086000BF1748006800F000600028F9D08E
:103310001448406820F47C10124948600846406810
:1033200040F4E81048600846006840F0807008608B
:1033300000BF0C48006800F000700028F9D0094870
:10334000406820F00300074948600846406840F0A4
:103350000200486000BF0348406800F00C000828E5
:10336000F9D10CBD001002400020024000F0FEFF29
:103370001408010010B51648006840F00100144917
:1033800008600846406813490840114948600846EB
:103390000068114908400E4908600846006820F49A
:1033A000802008600846406820F4FE004860084617
:1033B000006820F0A05008604FF47F008860002073
:1033C000C862FFF747FF4FF000600449086010BD76
:1033D000001002400000FFF0FFFFF6FE08ED00E0E5
:1033E000002070470248D0E90C10081A704700000E
:1033F000A400002070B50B4D0C460346D5E90C0126
:1034000088420BD9401A844200DD04462246184601
:10341000FCF7CEFE686B2044686300E00024204681
:1034200070BD0000A4000020002070472DE9F0418D
:10343000194C0D460746D4E90401401A17490A8879
:10344000101A002802DC0020BDE8F081854200DD72
:103450000546D4E906020026904210D3104A098896
:10346000431911448B420AD30E1A9046324639460C
:10347000FCF79EFE3744AD1B4046C4F8188035B1BA
:103480002A463946FCF794FEA0692844A0612169C8
:10349000A81901442161D7E7A4000020685500085D
:1034A0008C0A002010B5054C6068002805D1012069
:1034B000606000F005F80020606010BDA4000020EE
:1034C0002DE9F047224CA06800283BD0D4E9040144
:1034D000421AE0684FF00006104335D01D481E4FD9
:1034E000DFF878800088DFF878903D182046C169C1
:1034F0006AB1A069814203D38818A84200D36A1A2E
:1035000099F8003038F81300904200DA0246154866
:10351000E660007840F0800001F03CFAE169014487
:10352000E16162698D420244626100D1E761216913
:1035300091420BD199F8002038F81210814205D140
:103540000120E060BDE8F087A660FBE7E660F9E7F0
:10355000A4000020685500088C0A0020705500085F
:103560007F0000206555000810B50B4C206A18B18B
:10357000A06A401CA06210BD01202062606200F0C1
:103580000DF8002060622062D4E90C018842F2D07C
:10359000401AFFF749FF10BDA400002010B5134CDE
:1035A000144A1348216B1288144B081A101A124A35
:1035B0001B7832F8132090420EDB1148007800F09F
:1035C0007BFD216B08442063A06A00280CD0616A4F
:1035D000002909D1401E06E00120E062606A00284F
:1035E00002D0A06A401CA06210BD0000A400002010
:1035F0008C0E00206A550008705500087F000020DE
:103600006655000810B50446400702D52046FFF76E
:10361000ABFF200704D52046BDE81040FFF742BFAE
:1036200010BD7047002070470020704710B50B4850
:1036300000F01CF8002810D0084A094811680170F1
:103640000B0A43700B0C8370090EC1701179017164
:103650005179417191798171012010BDDC00002008
:103660004C0A002010B500F004F810BD01460020FF
:103670007047704770470146012070470146704708
:1036800010B510480024104944608460C46004618F
:10369000C0E90541C0E9071444620C498462C0E9ED
:1036A0000B4141630480FFF7E5FF06484FF41651D4
:1036B000383001600471447108218171FFF7DEFF29
:1036C00010BD0000A40000208C0A00208C0E0020F9
:1036D00010B5FFF7D5FF10BD70B5174C00250126BA
:1036E000206A50B9D4E90C10814206D113488142B6
:1036F00003D02063E56225626063A06A70B1206A2E
:1037000060B9E06A50B92662FFF748FF2562D4E944
:103710000C01884202D0401AFFF786FED4E901016D
:10372000084308D1D4E90401884204D06660A66049
:10373000FFF7C6FE656070BDA40000208C0E00205F
:10374000002070470020704700207047024910B5E4
:103750000880FFF790FF10BDA4000020084810B5B6
:10376000C178026861F31F6206490A6002790A7132
:1037700042794A71807988710846FFF77FFF10BD52
:103780004C0A0020DC00002010B5044604F0800044
:10379000D8B92848E10050F82100C0F38140012841
:1037A00046D92448E10050F8210040F080512148DA
:1037B000E20040F82210E10050F8210020F400114E
:1037C0001C48E20040F8221032E024F080041A483D
:1037D000E10050F8210000F0004048B11648E10037
:1037E00050F8210040F080411348E20040F82210D8
:1037F00044F0800000F0DAFB0F48E10050F82100AF
:10380000C0F38140012809D90B48E10050F821009C
:1038100040F080510848E20040F822100648E100DC
:1038200050F8210020F400110348E20040F8221073
:1038300010BD0000000B00500009005070B501469B
:103840008C7824F080008A88CC7804F003038C788C
:1038500004F080040CB3284C2468012585402C43D7
:10386000254D2C60840544EA8344C2F30A052C43A9
:10387000214DE435C60045F8264003F00304012C31
:1038800038D92C46C50054F8254044F080551A4CD0
:10389000E434C60044F826502CE0C2F30A04174D65
:1038A00045F82040144C246800F110050126AE4074
:1038B0003443114D2C60C2F30A0444EA8345104C92
:1038C000C60044F82650C2F30A0444F400250C4C08
:1038D0001034C60044F8265003F00304012C09D923
:1038E000074CC50054F8254044F08055044CC600F0
:1038F00044F8265070BD00001C080050480000200D
:10390000000B00500349096821F00101014A1160D0
:10391000704700006800002058B14FF410214FF0AC
:10392000A04291630A49096821F00201084A116026
:103930000DE04FF0A041896B21F400214FF0A0422F
:1039400091630349096841F00201014A116070471F
:103950000408005010B50B4C0B48A28801788A422D
:1039600000D9CAB21AB90749002018390871802055
:10397000216801F00FF8216801442160A188081A2C
:10398000A08010BD940000206155000810B5064CC1
:103990000020216800F090FB216801442160A1888B
:1039A000081AA08010BD000094000020704700009D
:1039B00070B5002200F08004002C4CD020F0800074
:1039C000012110E05F4CCD0054F8254004F4004480
:1039D00044B15C4CCD0054F82540C4F38144012C23
:1039E00000D1521C491C0229ECD901248440564DB7
:1039F0002D68A543544C2560012A07D14FF0A044FF
:103A0000A46924F480144FF0A045AC614D4CC5006E
:103A100054F8254004F000444CB14A4CC50054F819
:103A2000254044F08045474CC60044F82650454C9C
:103A3000C50054F8254044F00065424CC60044F8E7
:103A40002650C50054F8254024F400453D4CC600DE
:103A500044F8265074E0012110E03C4CCD0054F8AD
:103A6000254004F4004444B1384CCD0054F82540BE
:103A7000C4F38144012C00D1521C491C0229ECD909
:103A8000012A07D14FF0A044A46924F400444FF068
:103A9000A045AC612B4CFC3C246844F40074294DD7
:103AA000FC3D2C604FF47A7304E01C1EA3F101036B
:103AB00000D106E04FF0A044646904F08004002CBB
:103AC000F3D000BF214CC50054F8254004F0004459
:103AD0004CB11E4CC50054F8254044F080451B4CA9
:103AE000C60044F82650194CC50054F8254044F04F
:103AF0000065164CC60044F82650C50054F8254011
:103B000024F40045114CC60044F826504FF47A7353
:103B100004E01C1EA3F1010300D108E00B4C0834A3
:103B2000C50054F8254004F00204002CF1D000BF79
:103B3000044CFC3C246844F48064024DFC3D2C6041
:103B400070BD00000009005068000020000B00500C
:103B500000F08001A1B320F080002D49C20051F88F
:103B600022102C4A11432A4AC30042F8231011465E
:103B7000C20051F8221001F0004149B12449C200AD
:103B800051F8221041F080422149C30041F823201E
:103B900001218140204A12688A431F490A601C495A
:103BA000C20051F82210C1F3814101292ED14FF0FA
:103BB000A041896941F480114FF0A042916125E054
:103BC000FFE71649C20051F82210C1F381410129D3
:103BD00012D14FF0A041896941F400414FF0A04259
:103BE00091610E49C20051F8221041F400420B4984
:103BF000C30041F8232009E00849C20051F82220FF
:103C000007490A430549C30041F8232070470000D3
:103C1000000900500080000868000020000B0050E0
:103C2000008000842DE9F047DFF844820646A8F1C1
:103C3000080580074FF0000AA5F1180424D500F00C
:103C400095FE98F800004746C009FFF7AFFEF888D8
:103C5000A8803978C1F3411010B1012877D17DE0F7
:103C600098F80120834FDFF810920C2A6FD2DFE81A
:103C700002F0060C951C952B3B953F45526100F0D8
:103C800027FB33E0FFF766FE96E0002000F05EFBC6
:103C900000285CD000F070FE386820B1616900290E
:103CA00021D0082050E0484653E0012000F04EFBB0
:103CB000002873D000F060FE38680028F3D06169F6
:103CC000002979D004203FE011F01F0F66D198F849
:103CD0000200012140F08000207000F07F0000F021
:103CE000BDFD00F049FE67E000F058FA78B3C9E77F
:103CF00011F01F0F52D15E481F3819E000F07CFB15
:103D000028B300F039FE386818B1616929B3012081
:103D10001AE05A481DE001F01F0101293ED16178E7
:103D2000A9B198F80400A178884237D254490844D0
:103D30002860A7E700F028FC48B100F01DFE3868B5
:103D400030B1616949B1022001F020FA34E025E088
:103D50004C48016809B1084680472DE011F01F006A
:103D600004D0012805D0022818D111E000F014F980
:103D700013E000F017F9F8B900F016F9E0B900F017
:103D8000B9F8C8B900F0B8F8B0B900F009F904E022
:103D900000F0AEF880B900F001F968B998F80010A9
:103DA000090604D4B8F8060008B1002000E080201D
:103DB00000F060FDA5F804A0700735D598F8000064
:103DC000474600062ED4A88858B3FFF7DFFDA88821
:103DD00038BB3878C0F34111F1B101291CD110F082
:103DE0001F0004D0012805D0022815D10EE000F0F4
:103DF00077F810E000F07AF898B900F047F880B949
:103E000000F046F868B900F06FF804E000F03CF804
:103E100038B900F067F820B9802000F02BFDA5F834
:103E200004A001E000F0AEFD300713D598F80000C3
:103E3000000606D5A888217908430BD0FFF78AFD34
:103E400008E02078010605D500F07F0020700021F1
:103E500000F004FD700602D50020FFF795FC300647
:103E600004D5BDE8F0478020FFF78EBCBDE8F087A1
:103E70009C000020DC550008D8550008D0550008EB
:103E800044000020D45500080020704700207047EF
:103E900010B51048104A01791278914203D00F4AA8
:103EA0001278914214D1417821B1022905D02029FC
:103EB0000ED10AE0FFF746FC02E04088FFF744FC21
:103EC00030B100F059FD012010BDFFF747FCF7E7C6
:103ED000002010BD9C0000206255000863550008BA
:103EE0000020704700207047002070470020704776
:103EF000002070470020704770B52249224A087997
:103F00001278904203D0214A1278904238D11D484D
:103F100049781F4C1F4D408804291FD007DC79B118
:103F200001290FD002290BD0032929D111E0202922
:103F300006D021291AD022291BD0232920D11BE009
:103F40002C6011E0FFF770FB05E02C60FFF702FD2D
:103F50000AE0FFF767FB0028F7D111E0FFF740FA0E
:103F60000CE000BF00F008FD012070BDFFF75EFB14
:103F7000F1E7FFF7EBFB01E0FFF7E2FB0028F1D1EF
:103F8000002070BD9C0000206255000863550008A9
:103F90004C0A002094000020002070470020704749
:103FA00000207047002070470020704720F08000FC
:103FB0004FF0A042126922F4F86242EA801242F005
:103FC00020024FF0A0431A610A2104E00A1EA1F169
:103FD000010100D106E04FF0A042126902F0200278
:103FE000002AF3D100BF704702480068C0F30D20DB
:103FF000704700000808005000B52348406940F4AD
:104000008050214948610846806A40F480508862A7
:10401000642001F0CFF81C48806A20F480501A49CF
:1040200088624FF4C87001F0C5F84FF080404FF03F
:10403000A041C8604FF4FA7001F0BCF800F02EF80F
:104040004FF0A040806840F081004FF0A0418860B0
:104050000846C06820F4705040F41050C8600B4807
:10406000006840F003000949086000200849086022
:104070000848006808B1082000E00020064908430D
:104080004FF0A041886100BD0010024000080050C0
:10409000000E00508855000810380C80432000F0B6
:1040A0001F02012191404209920002F1E022C2F870
:1040B000001100BF7047704770B502460C4630488B
:1040C000D60050F8260000F4004008B9002070BD6A
:1040D0002B48D60050F82600C0F38140012800D1BB
:1040E00000E000200546ADB12648006890B926489A
:1040F00050F82230002105E0244850F82200405CAE
:104100006054491C9942F7D300201F4E46F8220004
:104110001846DCE74FF0A040006AC0F30A137DB1F7
:1041200017481030D60050F82600194E304018B904
:10413000154840F8223003E00020134E46F82200D4
:10414000002104E0134800682060241D491CD81C8D
:10415000B1EB900FF6D300BF4FF0A040406900F0E4
:1041600010000028F8D04FF0A040006A4FF0A040A7
:10417000806940F010004FF0A046B0611846A6E7F5
:10418000000B005070000020C8120020A812002070
:104190000000F87F00100050704700007CB54048D8
:1041A000A0F120050178A0F1080411F01F0102D050
:1041B000012973D15CE0C378394839492038394A3C
:1041C000C0788978082B69D2DFE803F06804123FD1
:1041D0006868082C34482060122047E011780029D4
:1041E0005CD018B1314820600A203FE03048FAE73F
:1041F00012780AB9012851D018B12E480090002039
:1042000008E02D48FAE7009A137813B153881A444E
:104210000092401C8142F6D100980178E9B32060F9
:10422000408823E01278C2B318B1244800900020DF
:1042300008E02348FAE7009A137813B153881A4428
:104240000092401C8142F6D1E6E71E480090002013
:1042500005E0009B1A780AB11A440092401C814282
:10426000F7D100980178C1B120600078019005E095
:1042700001A9684600F02AF800280DD0A18801980D
:10428000814208D9104980B2A0800978491E0842AD
:1042900001D10120287101207CBDFFE70020FBE750
:1042A0009C0000205D5500080656000819560008BD
:1042B000185600085E5600081A5600086056000896
:1042C0005F560008625600086155000800207047DC
:1042D00070B51C481B4D0078A5F1080510F01F04AF
:1042E0000AD01848A5F11801174B4A780079012C1B
:1042F00006D0022C24D109E012481A3828601DE0AB
:10430000F2B1897888421BD2002015E000F08F04BA
:10431000200605D504F00F064FF48030B04001E0D0
:104320000120A0400AB922070AD18A68024207D0B8
:10433000C9680142E8D0012018802B60012070BDBF
:10434000002070BD9C0000204C0A002070B5294A56
:104350000146A2F12004107810F01F031046408897
:1043600004D0012B28D0022B26D110E0012823D124
:1043700029B100F00EFBE08840F0020005E00020CB
:1043800000F007FBE08820F00200E08030E01279C6
:1043900002F08F06320605D506F00F024FF4803585
:1043A000954001E00125B54062782AB1320703D07B
:1043B000A2682A4200D008B1002070BD0D48203804
:1043C000C06800EA050031B190B9304600F052FAF9
:1043D000E06828430BE058B12069284208D13046F4
:1043E000FFF7D2F93046FFF7D7FEE068A843E06058
:1043F000012070BD9C0000202DE9F84F5C4F00208B
:104400000090387810F01F0F6FD1B8784FF0000986
:104410004FF0010B4FF4803AA7F1200600287AD024
:10442000544801783046C07809B901285DD008B1F8
:10443000514C6BE0514C69E06078022804D00428AC
:1044400044D0052860D144E06179B87881423BD1FD
:1044500070702079B0700020494A4A4903E000BFDB
:1044600002F80090401C0B889842F9D30125B04611
:104470000BFA05F0D8F80810084202D02846FFF7DA
:1044800097FAD8F808100AFA05F0084203D045F068
:104490008000FFF78DFA6D1C102DE9D34FF001104D
:1044A000C8E902090120C8F81090FFF72BFAE0795B
:1044B0004006B8F8060002D540F0010001E020F007
:1044C0000100A8F806001FE060881EE0E078009078
:1044D0001AE00098C0B9A07800F08F05280605D52D
:1044E00005F00F010AFA01F002E03CE00BFA05F0DA
:1044F000B16801432046B160FFF7A0F92846FFF7F5
:1045000027FB284600F044F920780444207800284E
:1045100092D124E0FFE7C84686F8019001245D4669
:104520004FEA0A09B16805FA04F0084202D02046B1
:10453000FFF73EFAB16809FA04F0084203D044F0EC
:104540008000FFF735FA641C102CEBD34FF00110FC
:10455000C6E902080020C6F81080FFF7D3F9B87842
:104560007178884202D00020BDE8F88F0120FBE777
:104570009C0000205D5500085E5600081A56000891
:10458000440000205E5500082DE9FC5F444E0027E2
:104590003D463078BB4600F01F00B84601287DD16B
:1045A000A6F120014878002875D03E48BA46027826
:1045B0000846C0780AB9012870D0894608B13A4C3B
:1045C00065E03A4C63E06078022804D0042809D002
:1045D00005285AD117E0617999F80100814254D039
:1045E000608853E0A7783079E5784FF00008B8424A
:1045F0004BD1B078A84248D12D484FF0010A10F8AD
:1046000007B0C55541E03079B8423ED1A07800F0FE
:104610008F000190000605D5019800F00F014FF4BE
:10462000803001E00199012088400090B078A842D4
:1046300017D1D9F80810009A20461143C9F808107C
:10464000D9F80C109143C9F80C10FFF7F7F801984E
:10465000FFF77EFA019800F09BF8009948EA0108FC
:1046600013E05D4511D1009918EA010F0DD1D9F879
:104670000810009A9143C9F80810D9F80C1091431A
:10468000C9F80C100198FFF793F9207804442078BA
:10469000002898D15046BDE8FC9FFFE70020FAE7CC
:1046A0009C0000205D5500085E5600081A56000860
:1046B0004400002010B500202E4908602E490860F3
:1046C0002E490860091F0860002427E02C48E100FB
:1046D00050F8210000F0004028B14FF090412848E8
:1046E000E20040F822102548EC30E10050F82100AB
:1046F00000F0004030B14FF090412048EC30E20033
:1047000040F822101B211D48F430E20040F822102E
:104710001B480830E20040F82210641C032CD5D35B
:104720000121002000F09AF84FF0011013490831E0
:1047300008600B20114908600320091F0860402011
:104740004FF0A04148620F4888620E4810300E4971
:1047500008600C4820304FF0A041C1F8080109481A
:1047600030300949083108600848054910310860AF
:1047700010BD00006C0000206800002014080050EC
:10478000000B0050400010000401005040000820C1
:1047900010B5044604F08000002853D024F08004B3
:1047A0000120A04028490968814327480160274823
:1047B000E10050F8210000F0004048B12348E1003A
:1047C00050F8210040F080412048E20040F82210DB
:1047D0001E48E10050F8210040F000611B48E20053
:1047E00040F8221044F08000FFF7E0FB1748E1009A
:1047F00050F82100C0F38140012823D1FFF7F4FBDA
:1048000000F0010050B11148E10050F8210040F0E3
:1048100080510E48E20040F8221009E00B48E10008
:1048200050F8210040F000510848E20040F8221002
:104830000648E10050F8210040F004410348E2003E
:1048400040F8221010BD0000680000200009005050
:10485000FEF73EBF7047FEF73FBF000039B1044A84
:10486000126822F4FE6242EA0012014B1A6070479D
:104870000008005070B5044604F08000002849D1BB
:104880003848006840F40070364908604FF47A7583
:1048900004E0281EA5F1010500D106E04FF0A0407C
:1048A000406900F080000028F3D000BF2E48E100EE
:1048B00050F8210000F0004048B12B48E10050F8CA
:1048C000210040F080412848E20040F822102648AC
:1048D000E10050F8210040F400112348E20040F8C4
:1048E00022104FF47A7504E0281EA5F1010500D1CD
:1048F00008E01D480830E10050F8210000F00200F7
:104900000028F1D000BF1748006840F480601549C6
:10491000086025E024F080041248FC30E10050F8E3
:10492000210000F0004058B10E48FC30E10050F882
:10493000210040F080410B48FC30E20040F822109A
:104940000848FC30E10050F8210040F4001105480F
:10495000FC30E20040F8221044F08000FFF726FB14
:1049600070BD000004080050000B005001490020F9
:10497000FFF7A2BB9C00002000221146802000F01F
:1049800009B8000001490020FFF796BB4C0A00203F
:1049900070477047F0B5034623F080035548DF00A9
:1049A00050F8270000F4004008B90020F0BD51483D
:1049B000DF0050F82700C0F38140012800D100E05B
:1049C000002006464C48006800283CD14B4850F86F
:1049D0002300A0B301209840494F3F68384000B100
:1049E00076B3484840F82320444850F82350D01C60
:1049F00084083CB102E0086801C5091D201EA4F12D
:104A00000104F8D1002E72D1012098403C4F3F683C
:104A100038433B4F38603748DF0050F8270040F0FC
:104A2000006734484FEAC30C40F82C703148F03826
:104A3000006840F040002F4FF03F386057E002E040
:104A4000FFE70020B2E742B100BF2A481830DF007C
:104A500050F82700B2EB800FF7D842F4002040F066
:104A60000057244810304FEAC30C40F82C70DEB1D8
:104A7000FFF7BAFA00F0010058B11E48DF0050F805
:104A8000270040F080571B484FEAC30C40F82C70B9
:104A90000AE01848DF0050F8270040F0005715489A
:104AA0004FEAC30C40F82C701248DF0050F8270082
:104AB00040F004470F484FEAC30C40F82C7072B125
:104AC0000D46D01C840806E00868DFF83CC00CEBFB
:104AD00003373860091D201EA4F10104F4D136B952
:104AE00001209840064F3F688743054807601046FD
:104AF0005CE70000000900506C0000205800002016
:104B000068000020B8120020001000500FB4084BBD
:104B100010B504A902AA039800F01CF8044602A9E3
:104B2000002000F042FA204610BC5DF814FB0000A3
:104B3000AB4F000802E008C8121F08C1002AFAD1D2
:104B400070477047002001E001C1121F002AFBD10D
:104B5000704700002DE9FF4F8DB00F460546002637
:104B600006E025280BD0DDE90F1290476D1C761C5E
:104B700028780028F5D111B03046BDE8F08F002428
:104B8000A246A1460122E94900E0044315F8013F8D
:104B9000203B02FA03F00842F7D128782A2810D0E7
:104BA0006FF02F022878A0F13001092914D80AEB00
:104BB0008A0102EB410144F0020400EB010A6D1C82
:104BC000F0E701CF5FEA000A03D544F40054CAF1CC
:104BD000000A44F002046D1C28782E2817D115F81D
:104BE000010F44F004042A280ED06FF02F02287819
:104BF000A0F1300109290AD809EB890102EB410132
:104C000000EB01096D1CF2E757F8049B6D1C287836
:104C10006C280FD006DC4C2817D068280DD06A28E5
:104C200014D104E0742810D07A280FD10DE044F498
:104C300000140AE044F4801401E044F4401469785C
:104C4000814202D104F580146D1C6D1C28786E28F9
:104C50001ED00CDC632830D004DC00288BD0582810
:104C600011D19FE0642867D069280CD164E07328D3
:104C70002DD004DC6F2872D0702804D194E0752800
:104C80006ED078286DD0DDE90F129047761C4BE18D
:104C9000C4F30250022806D0032809D0042801CF0B
:104CA00009D0066040E101CFF117C0E900613BE1A6
:104CB00001CF068038E1067036E117F8040B8DF855
:104CC000000000208DF80100EB46012003E057F8BA
:104CD00004BB4FF0FF3061074FF0000102D40DE03C
:104CE00008F10101884649450FDA8045F8DB1BF8D9
:104CF00008100029F4D108E008F10101884681423A
:104D0000FADB1BF808100029F6D1DDE90F23AAEB26
:104D100008008146214600F031F9304400EB0806D6
:104D200004E0DDE90F121BF8010B9047B8F1010810
:104D3000F7D221464846F2E00A21C4F302524FF06E
:104D4000000B0891022A04D001CFC117032A09D011
:104D50000AE0FF1D27F00707F7E8020108E02CE052
:104D60001EE01FE000B2C117042A01D140B2C117F2
:104D7000021E71F1000206DA0023D0EB030063EBA0
:104D800001012D2202E0220504D52B228DF82420DA
:104D9000012203E0E20701D02022F7E7904653E02A
:104DA0000A210BE0102109E010214FF0000B44F024
:104DB00004044FF00809089103E008214FF0000BAC
:104DC0000891C4F30252022A04D001CF0021032A21
:104DD00006D006E0FF1D27F00707F7E8020103E011
:104DE00080B2042A00D1C0B24FF0000822072BD5B0
:104DF0002A78702A07D0DDF820C08CF0100C5CEA0D
:104E00000B0C05D00EE040228DF82420012208E092
:104E100050EA010306D030238DF824308DF8252088
:104E200002229046089B83F0080353EA0B030BD140
:104E300050EA010201D1620706D530228DF8242004
:104E40004FF00108A9F101092A78582A04D038A2A4
:104E50000B9208AA0A920BE03AA2F9E75B46089A7D
:104E6000FBF7CBF90B9B9B5C0A9A521E0A921370BC
:104E700050EA0102F2D10A98ADEB000000F1200BDC
:104E8000600702D524F4803401E04FF00109D945D0
:104E900002DDA9EB0B0000E0002000EB0B01414418
:104EA0000890AAEB010AE00306D4DDE90F232146AE
:104EB000504600F063F806444FF0000908E009A9E5
:104EC00011F80900DDE90F12904709F10109761C7C
:104ED000C145F4DBE0030CD5DDE90F232146504644
:104EE00000F04CF8064404E0DDE90F123020904752
:104EF000761C0899481E08900029F5DC08E00A98FD
:104F00000A990078491C0A91DDE90F129047761C36
:104F1000BBF10001ABF1010BF1DC21465046DDE9AC
:104F20000F2300F019F806446D1C21E60928010042
:104F3000303132333435363738396162636465660F
:104F400000000000303132333435363738394142D1
:104F500043444546000000002DE9F0410446002589
:104F60001E461746880404D405E039462020B04781
:104F70006D1C641EF9D52846BDE8F0812DE9F0418D
:104F8000044600251E469046C80301D5302700E0A0
:104F90002027880404D505E041463846B0476D1CFB
:104FA000641EF9D52846BDE8F0810A68531C0B60E1
:104FB000107070474FF0FF352C46FDF7AFFD00F045
:104FC000D7F8012000F0D2F800BF00F0C7F80028A1
:104FD000FBD0FBF723FA31E0FBF7F6FBFEF702FA12
:104FE0000546CDB11649174A127888182946FEF7AA
:104FF00001FA1448007828441249087008460078DD
:10500000482808DB4820087008460078FBF7B4FE03
:1050100000200C4908700025601C28B90A48046863
:105020004FF0FF3008490860601C38B1214607483E
:10503000FEF7FCF9A04201D14FF0FF34CCE70000AD
:105040008C05002000000020400000208C01002082
:1050500000B587B001210803FEF7B4F80121042050
:10506000FEF7B0F801210420FEF7ACF8E020ADF81F
:10507000040018208DF8070003208DF8060001A910
:105080001B48FDF76AFC1020ADF804008DF80700FE
:1050900003208DF8060001A91548FDF75EFC1021DC
:1050A0001348FDF738FD0020ADF808004FF482707A
:1050B000ADF80A000020ADF80C00ADF80E00ADF818
:1050C00010004FF40070ADF812000820ADF8140085
:1050D0000020ADF816000720ADF8180002A9054819
:1050E000FEF79AF801210348FEF77CF807B000BDEF
:1050F00000080140003001402DE9F04105460E4610
:105100001746002410211248FDF703FD17E000BFE9
:1051100002211048FEF772F80028F9D0295D0D48E9
:10512000FEF778F800BF01210A48FEF767F800286B
:10513000F9D00848FEF76BF83055601C84B2BC42C9
:10514000E5DB10210248FDF7E6FC0020BDE8F08118
:105150000008014000300140FEF784BA0248407860
:10516000002800D0012070477C000020FEF7D4BB4F
:10517000054910B50020C870FFF7EEFFFEF79BFF52
:10518000BDE81040FEF738BF7C00002070470000EB
:1051900006484FF0011201780548C18000210170D6
:1051A0004170C0E902210161704700005C550008B0
:1051B0007C00002009490968094AB1FBF2F1484323
:1051C00007E000BF00BF00BF00BF00BF00BF00BFBF
:1051D00000BF011EA0F10100F3D170477400002050
:1051E000A0860100600798040F0F3E0003030E0025
:1051F00000100200000000000000000040004040DD
:10520000000000000000000000000000000000009E
:10521000000000000000000000002000000000006E
:10522000000000000004000000000000000000007A
:10523000000000000004600000000000000000000A
:1052400000000000000000006004000003000000F7
:10525000000000000000000000000000008040C0CE
:1052600020A060E0109050D030B070F0088848C89E
:1052700028A868E8189858D838B878F8048444C43E
:1052800024A464E4149454D434B474F40C8C4CCC3E
:105290002CAC6CEC1C9C5CDC3CBC7CFC028242C2F6
:1052A00022A262E2129252D232B272F20A8A4ACA3E
:1052B0002AAA6AEA1A9A5ADA3ABA7AFA068646C6DE
:1052C00026A666E6169656D636B676F60E8E4ECEDE
:1052D0002EAE6EEE1E9E5EDE3EBE7EFE018141C1A2
:1052E00021A161E1119151D131B171F1098949C90E
:1052F00029A969E9199959D939B979F9058545C5AE
:1053000025A565E5159555D535B575F50D8D4DCDAD
:105310002DAD6DED1D9D5DDD3DBD7DFD038343C365
:1053200023A363E3139353D333B373F30B8B4BCBAD
:105330002BAB6BEB1B9B5BDB3BBB7BFB078747C74D
:1053400027A767E7179757D737B777F70F8F4FCF4D
:105350002FAF6FEF1F9F5FDF3FBF7FFF0000058014
:105360000F800A001B801E0014001180338036005D
:105370003C00398028002D80278022006380660051
:105380006C00698078007D807780720050005580C5
:105390005F805A004B804E0044004180C380C600AD
:1053A000CC00C980D800DD80D780D200F000F58025
:1053B000FF80FA00EB80EE00E400E180A000A58011
:1053C000AF80AA00BB80BE00B400B180938096007D
:1053D0009C00998088008D8087808200838186016F
:1053E0008C01898198019D8197819201B001B581DD
:1053F000BF81BA01AB81AE01A401A181E001E581C9
:10540000EF81EA01FB81FE01F401F181D381D60134
:10541000DC01D981C801CD81C781C201400145812C
:105420004F814A015B815E01540151817381760194
:105430007C01798168016D81678162012381260188
:105440002C01298138013D813781320110011581FC
:105450001F811A010B810E010401018103830603E0
:105460000C03098318031D8317831203300335834C
:105470003F833A032B832E03240321836003658338
:105480006F836A037B837E037403718353835603A4
:105490005C03598348034D8347834203C003C5839C
:1054A000CF83CA03DB83DE03D403D183F383F60304
:1054B000FC03F983E803ED83E783E203A383A603F8
:1054C000AC03A983B803BD83B783B203900395836C
:1054D0009F839A038B838E0384038183800285825A
:1054E0008F828A029B829E0294029182B382B602CC
:1054F000BC02B982A802AD82A782A202E382E602C0
:10550000EC02E982F802FD82F782F202D002D58233
:10551000DF82DA02CB82CE02C402C182438246021B
:105520004C02498258025D82578252027002758293
:105530007F827A026B826E0264026182200225827F
:105540002F822A023B823E023402318213821602EB
:105550001C02198208020D8207820202000002006A
:1055600002400001010202000004000410001000CB
:10557000400040000000000051480008000000000A
:105580000000000000000000574800080000000074
:10559000253C0008233600080536000800000000FE
:1055A00000000000000000000000000000000000FB
:1055B00000000000000000000000000000000000EB
:1055C00000000000000000000000000000000000DB
:1055D00000000000000000000000000000000000CB
:1055E0000600FF0901A101150026FF0075089501BD
:1055F0000901810295010901910295010901B10298
:10560000C00021004C00120110010200004051C2F4
:105610000524000101020301000009024300020108
:105620000080320904000001020200040524001079
:1056300001052401010104240202052406000107DA
:1056400005810310000209040100020A0000050799
:105650000502024000000705820240000000000031
:105660000000040309041C034B00650069006C0082
:10567000200053006F006600740077006100720024
:10568000650020034B00650069006C002000550098
:10569000530042002000440065007600690063006A
:1056A00065001A0330003000300031004100300046
:1056B0003000300030003000300030001003550062
:1056C000530042005F0043004400430012035500B2
:1056D000530042005F0043004400430031000000DB
:1056E0000057000800000020E8000000344B0008CC
:1056F000E8570008E8000020F0190000444B0008BB
:105700000000000000000000000000000000000099
:105710000000000000000000000000000000000089
:10572000000000000000000050C300000000000066
:105730000000000000000000000000000000000069
:10574000FFFFFFFF0000000040000000000000001D
:10575000000000000000000000000000981200207F
:105760000000000000000000000000000000000039
:105770000000000000A24A04000000000000000039
:105780000000000000000000000000000000000019
:105790000000000000000000000000000000000009
:1057A00000000000000000000000000000000000F9
:1057B00000000000000000000000000000000000E9
:1057C00000000000000000000000000000000000D9
:1057D00000000000000000000000000000000000C9
:0857E0000000000000000000C1
:04000005080001519D
:00000001FF
