:020000040800F2
:1000000078040020650100086D0100086F010008F8
:10001000710100087301000875010008000000006C
:100020000000000000000000000000007701000850
:1000300079010008000000007B010008250D000880
:100040007F0100087F0100087F0100087F01000890
:100050007F0100087F0100087F0100087F01000880
:100060007F0100087F0100087F0100087F01000870
:100070007F0100087F0100087F0100087F01000860
:100080007F0100087F0100087F0100087F01000850
:10009000C50200087F010008ED0200087F0100088A
:1000A0007F0100087F0100087F0100087F01000830
:1000B0007F0100087F0100087F0100087F01000820
:1000C0007F0100087F0100087F0100087F01000810
:1000D0007F0100087F010008850E00087F010008ED
:1000E0007F0100087F0100087F0100080000000078
:1000F0000000000000000000000000000000000000
:1001000000000000000000007F0100087F010008DF
:100110007F0100087F0100087F0100087F010008BF
:100120007F0100087F0100087F0100087F010008AF
:100130007F0100087F0100087F0100087F0100089F
:100140004D0400087F010008750400087F010008C5
:10015000DFF80CD000F018F80048004781100008C4
:10016000780400200648804706480047FEE7FEE77F
:10017000FEE7FEE7FEE7FEE7FEE7FEE7FEE7FEE757
:10018000350D000851010008064C074D06E0E068F7
:1001900040F0010394E8070098471034AC42F6D3CE
:1001A000FFF7DAFFC0130008D0130008B0B582B023
:1001B00046F20044C4F200040546204600F0CEF9A1
:1001C00040F23E00C2F2000000214FF48072F92D8F
:1001D000C0F806104281817007DC322D10D0642DEA
:1001E00010D07D2D1AD124210FE0FA2D0CD0B5F5B9
:1001F0007A7F0CD0B5F5FA7F10D10C21032208E0EC
:100200005A2102E02D2100E01221052201E00921FE
:1002100001220023C37002714371018040F23E014C
:10022000C2F20001204600F061FA4FF4E06000F0F5
:10023000E3FC1420C0F2001001AD0190284600F04C
:10024000ABFC20460221012200F048FA4020C0F217
:1002500000100190284600F09FFC04F58060022108
:10026000012200F03BFA1620C0F20010019028464F
:1002700000F092FC20464FF48061012200F02EFA3B
:1002800002B0B0BD0D2988BF70474FEAC00C0CF119
:10029000040C002A08BF4FEA405C40F23000C2F272
:1002A0000000817240F2011181814FEA1C410180FE
:1002B00081800021C372A0F802C0A0F806C00181AD
:1002C00000F062B910B546F20044C4F200042046C2
:1002D000022100F0EBF840F20002C2F200022046D8
:1002E0000021BDE8104000F073BA000040F2140095
:1002F000C2F20000016841F48061016070470000B3
:1003000080B586B00DF1040EDDF820C08EE80F1028
:1003100046F20040C4F2000001A900F0B3FA06B0B2
:1003200080BD000070B582B046F60004C4F200043F
:100330000646204600F012F940F23E05C2F20005E2
:10034000284600F095FA00204FF48071F92EC5F888
:1003500006006981A87007DC322E10D0642E10D000
:100360007D2E1AD124200FE0FA2E0CD0B6F57A7F1C
:100370000CD0B6F5FA7F10D10C20032108E05A20EA
:1003800002E02D2000E01220052101E009200121DA
:100390000022EA7029716A71288040F23E01C2F29F
:1003A0000001204600F0A2F94FF4E06000F024FCC8
:1003B0001420C0F2001001AE0190304600F0ECFBBA
:1003C000A4F5806528460221012200F087F940202B
:1003D000C0F200100190304600F0DEFB2046022102
:1003E000012200F07BF91620C0F200100190304687
:1003F00000F0D2FB28464FF48061012200F06EF934
:1004000002B070BDA1F11C0C1CF10E0F38BF70477B
:100410004FEAC00C0CF1040C002A08BF4FEA405C04
:1004200040F23000C2F20000817240F2011181817D
:100430004FEA1C41018081800021C372A0F802C0F4
:10044000A0F806C0018100F09FB8000010B546F684
:100450000004C4F200042046022100F027F840F214
:100460001802C2F2000220460021BDE8104000F050
:10047000AFB9000040F22C00C2F20000016841F464
:10048000806101607047000080B586B00DF1040EF8
:10049000DDF820C08EE80F1046F60000C4F2000020
:1004A00001A900F0EFF906B080BD0000B1F5007FB2
:1004B0001CDA4A1E1F2A34D80FF20401DFE802F0CA
:1004C000104646394646463C464646464646464619
:1004D0004646464646464646464646464646463FC3
:1004E00040F20111C0F2010181607047B1F5004F87
:1004F0000CDAB1F5007F19D0B1F5806F16D0B1F5E7
:10050000006F18BF7047002181610FE01AD0B1F56C
:10051000803F1CD0B1F5003F02BF10214160704701
:1005200014E0402916D0B1F5807F0FD1042141603D
:1005300070470821C16070471021C16070470821D1
:1005400001617047002181610421416070470821E9
:1005500041607047102101617047000010B546F2FC
:100560000041C4F200014FF08064884208BF4FF0A0
:1005700000742046012100F055FB20460021BDE813
:10058000104000F04FBB0000B0B546F20061C4F26D
:10059000000190F80AE0037B0A68012442F001029E
:1005A0000A60CA6904FA0EF56FEA050CAA43012B2A
:1005B000CA610DD0F3B9CA6802EA0C02CA60C288E7
:1005C000438843EA024201EBCE031A6403460AE081
:1005D000CA682A43CA600288438843EA024201EBA0
:1005E000CE031A64831D82881B8843EA024201EB12
:1005F000CE035A64C27A4B68002A43EA050408BF56
:1006000003EA0C044C600389012B04D03BB94A690E
:1006100002EA0C0302E04A6942EA05034B61407BAF
:10062000012802D1C8692843C861086820F0010088
:100630000860B0BD70B582B00120012100F0FEFA63
:100640000820012100F0FAFA4FF00070012100F0BB
:10065000DDFA4FF4EA10012100F056FA40F60044AA
:100660004FF48070C4F2010401ADADF804004826D7
:10067000204629468DF8076000F0E6F940F2002098
:10068000C1F6030001902046294600F0DDF94FF045
:100690000070012100F0BAFA0820012100F0CEFA22
:1006A0004FF08060012100F0B1FA4020C0F220003C
:1006B000012100F029FA2020ADF804002046294647
:1006C0008DF8076000F0C0F94020C1F603000190EA
:1006D0002046294600F0B8F902B070BD002A4269F0
:1006E0000CBF22EA010111434161704710B5026855
:1006F0004FF0000C22F002020260026842F0010298
:1007000002604FF6FF7200BFD0F804E0013A4CF1EE
:1007100000045FEACE7301D1002CF5D14268D20704
:100720004FF0000252D08B790468012B24F0800432
:1007300008BF80340460CB790468012B24F04004A6
:1007400008BF403404600B7A0468012B24F02004B5
:1007500008BF203404604B7A0468012B24F0100495
:1007600008BF103404608B7A0468012B24F008045D
:1007700008BF08340460CB7A0468012B24F0040419
:1007800008BF04340460CC7891F802C00B792406C9
:1007900091F805E044EA8C74098844EA034343EA8B
:1007A0000E5301391943C161016821F00101016053
:1007B0004FF6FF714468013942F10003E40718BFA6
:1007C000002BF7D14068012121EA0002104610BD3C
:1007D00010B500EB0114D4F8B0C11CF0040313727F
:1007E000D4F8B0E104F5D87C19BF4FEADE035360BA
:1007F0004FEA5E531360DCF80030002903F0020377
:100800005372D4F8B43103F00F039372D4F8B431B7
:100810004FEA1323D374D4F8B831D372D4F8B83173
:100820004FEA13231373D4F8B8314FEA13435373C9
:10083000D4F8B8314FEA13639373D4F8BC31D3734F
:10084000D4F8BC314FEA13231374D4F8BC314FEA07
:1008500013435374D4F8BC314FEA136393744FF0CD
:10086000100208BF0C22815841F02001815010BDB8
:100870000021C0F80610418140F20321818001214E
:1008800001607047B0B50246806840010ED49068A0
:1008900000014FF001000CD4936813F0805380EAFC
:1008A00013734FF0020008BF042003E00023002070
:1008B00000E00023002B18BFB0BD02EB0012D2F8FD
:1008C000803102F5C07E03F00103C2F8803191F857
:1008D00008C0BCF1000F03D04B684CEAC30C02E027
:1008E0000B684FEA435C4B7A8C7ADEF8005043EA9F
:1008F0000C032B43CEF8003004F00F038B72D2F8B8
:10090000845125F00F05C2F88451D2F884512B434D
:10091000C2F88431D1F80B30C2F88831D1F80F1009
:10092000C2F88C11DEF8001041F00101CEF8001081
:10093000B0BD0000F0B581B00820012100F07EF9C3
:100940001420012100F07AF90120012100F076F94C
:1009500040F20020C0F23000012100F0D5F841F251
:10096000000448F20000C4F20104C1F20300A4F53F
:1009700000656E4600902846314600F065F840F26A
:100980000040C1F2030000902046314600F05CF8C0
:1009900040F60000C1F2030000902046314600F00E
:1009A00053F841F20000C1F20300009020463146A6
:1009B00000F04AF82020C1F20300009020464FF4D6
:1009C000004100F0E5F82046314600F03DF841F2E4
:1009D0000000C4F60300A4F5806700903846314655
:1009E00000F032F842F20000C4F6030000903846EE
:1009F000314600F029F844F20000C4F603000090EC
:100A00003846314600F020F848F20000C4F60300F2
:100A100000903846314600F017F828464FF4004160
:100A200000F0B6F820464FF4806100F0B1F820469F
:100A30004FF4006100F0ACF820464FF4805100F014
:100A4000A7F801B0F0BD00002DE9F047CA7802F028
:100A50000F0CD30644BF8B784CEA030C09880B06B5
:100A600025D082465AF8144B00F1100E00254FF0A5
:100A700001094FF00F08002706E000BF1E60013794
:100A8000082F05F1040511D009FA07F60E42F6D039
:100A900008FA05F324EA03030CFA05F41C43282A98
:100AA0005346EBD0482AEAD17346E7E70460B1F534
:100AB000807F38BFBDE8F087436800F1100E00F179
:100AC000140900254FF4807A4FF00F08002705E045
:100AD00034600137082F05F1040512D00AFA07F433
:100AE00004EA0106A642F4D108FA05F6B3430CFA6B
:100AF00005F63343282A4E46EAD0482AE9D17646FD
:100B0000E6E74360BDE8F087B0B50422C4F2010215
:100B1000134602F1180E002848BF73461C6800F403
:100B20004013B3F5401F1FFA80FC06D1156824F06E
:100B3000706325F07064146015E0C3020AD46FF08E
:100B40000F0303EA50430CFA03F324EA030343F0D0
:100B5000706308E0C0F30343032505FA03F324EAB6
:100B6000030343F070636FF00F0404EA504400295C
:100B70000CFA04F518BF2B43002848BF72461360D7
:100B8000B0BD00008068084018BF01207047000019
:100B9000416170470161704710B5C17800294EF27C
:100BA0000011CEF200011AD04EF60C52CEF2000225
:100BB0001268072323EA12220F23C2F1040C23FA3E
:100BC00002F24378847890F800E003FA0CF32240B4
:100BD0001A43120101EB0E0383F8002300E0803179
:100BE0000078012300F01F0203FA02F2C0F3421062
:100BF00041F8202010BD000040F080604EF60C51FE
:100C000040F0FD70CEF2000108607047002941F20B
:100C10001C01C4F202010A680CBF22EA0000104362
:100C200008607047002941F21001C4F202010A680D
:100C30000CBF22EA0000104308607047002941F20F
:100C40001801C4F202010A680CBF22EA0000104336
:100C50000860704710B541F20401C4F202010A684D
:100C600002F00C02082A41F20022C0F27A0232D1CC
:100C70000B68D1F800C0C3F3834303F1020E0D2BC0
:100C800008BF4FF0060E5FEACC3306D440F60012E0
:100C9000C0F23D020EFB02F21DE0D1F828C08B6AC3
:100CA00003F00F045FEACC3304F1010C04D4B2FB6F
:100CB000FCF202FB0EF20EE08B6A8C6AC3F30313A4
:100CC0000133C4F30324B2FBF3F2A31C5A43B2FB77
:100CD000FCF202FB0EF202600A6841F2AE33C2F38C
:100CE0000312C0F600039A5C046824FA02F2426020
:100CF0000C68C4F302241C5D22FA04F484600C68BE
:100D0000C4F3C2241B5DDA40C260096841F2AA3311
:100D1000C1F38131C0F60003595CB2FBF1F101610E
:100D200010BD000040F24C00C2F200000168013129
:100D30000160704782B041F20400C4F2020050F832
:100D4000041C002241F0010140F8041C0168CFF2AC
:100D5000FF021140016050F8041C4FF6FF72CFF6FD
:100D6000F662114040F8041C50F8041C21F4802164
:100D700040F8041C016821F4FE01016050F8041CD5
:100D800021F0A05140F8041C4FF47F014160002184
:100D900081620191009150F8041C41F4803140F8C7
:100DA000041C00BF50F8041C01F4003100910199AB
:100DB00001310191009919B90199B1F5A06FF1D1F3
:100DC00050F8041C890354BF0021012100910099AF
:100DD00001294ED142F20001C4F202010A6842F038
:100DE00010020A600A6822F003020A600A6842F0F0
:100DF00002020A6001684FF2000201600168CFF64A
:100E0000FE720160016841F480610160816A1140F5
:100E10008162816A41F4843141F01401816250F8A9
:100E2000041C41F0806140F8041C00BF50F8041C11
:100E30000901FBD5016821F47C110160016841F4CE
:100E4000E811016050F8041C41F0807140F8041C66
:100E500050F8041C8901FBD5016821F003010160F1
:100E6000016841F002010160016801F00C010829EC
:100E7000FAD14EF60850CEF200004FF0006101604A
:100E800002B0704710B544F20044C4F2000420469A
:100E900040F2255100F018F8002818BFA08810BDB6
:100EA000C9430180704700008289002918BF0121D1
:100EB00022F4005242EA41318181704700880840A3
:100EC00018BF012070470000C1F34212022A06D069
:100ED000012A14BF00F1140200F10C0201E000F13C
:100EE00010021288008801F01F03090ADA40C84086
:100EF000104000F001007047C1F3421301F01F0CD5
:100F00001421022B08BF1021012B4FF0010308BF51
:100F10000C21002A03FA0CF243580CBF23EA020208
:100F20001A4342507047000070B586B00446008AEC
:100F30000D46C98820F4405008432082A0894EF60F
:100F4000F3110840A9882A896B8908431043184384
:100F5000A081A08AA98920F44070084301AEA08234
:100F60003046FFF777FE43F6000106F10800C4F2B1
:100F700001018C4208BF06F10C0000681922B4F987
:100F80000C1050432A680123B1F1FF3FC8BF022370
:100F900002FA03F1B0FBF1F048F21F51C5F2EB1178
:100FA000A0FB01235A096FF0630302FB0300B4F9AD
:100FB0000C300326B3F1FF3FC8BF042600FA06F049
:100FC00000F13200A0FB01014FF00700C8BF0F2065
:100FD00000EA511040EA0210208106B070BD000006
:100FE0006FF35F218180704770B586B005200121C5
:100FF000FFF724FE4FF400300121FFF707FE44F213
:1010000000440420C4F20004C1F6030004F5444582
:1010100005AE059028463146FFF716FD0820C4F6B8
:101020000300059028463146FFF70EFD4FF4964029
:10103000009000204FF4402101900291ADF80C0087
:1010400069462046FFF770FF204640F225510122F5
:10105000FFF752FF20464021FFF722FF4FF4A06028
:10106000FFF7CAFD2620C0F20010049004A8FFF785
:1010700093FD20460121FFF717FF06B070BD000069
:1010800084B04EF2100041F63F11CEF20000C0F2E3
:10109000010141604EF62351CEF20001F02240F6EC
:1010A00000440A7000250721C4F201048560016034
:1010B000FFF740FCFFF7BEFA7D20FFF777F800202E
:1010C000002100220023FFF7DDF840F25001C2F2B8
:1010D000000140F2231841F23420C1E900804FF0B2
:1010E00011300826C1F80F00C1F80B007D200D81DA
:1010F0008E72FFF717F900200E2100220023FFF760
:1011000081F940F26401C2F2000140F2213244F25E
:101110002130C1E900204FF022300D818E7240F263
:101120002136C1F80F00C1F80B00FFF75DFF40F258
:101130004C0B40F2000A40F21809C2F2000BA4F571
:10114000806004F58067C2F2000AC2F200090390D1
:10115000029700BF20464FF48051FFF713FD28BBD4
:10116000CBF80050DBF800000A28FBD320464FF4F0
:101170008051FFF707FDC8B903984FF40041FFF70E
:1011800007FDCBF8005000BFDBF800000A28FBD3B6
:1011900040F25007C2F200078FCF0097FFF7B0F878
:1011A00003984FF40041FFF7F5FC029F20464FF4EF
:1011B0000051FFF7E7FC28BBCBF80050DBF800003C
:1011C0000A28FBD320464FF40051FFF7DBFCC8B9D7
:1011D00038464FF48061FFF7DBFCCBF8005000BFCE
:1011E000DBF800000A28FBD340F26407C2F20007D4
:1011F0008FCF0097FFF748F9029F4FF48061384680
:10120000FFF7C8FC20464FF48041FFF7BBFC98BBBA
:10121000CBF80050DBF800000A28FBD320464FF43F
:101220008041FFF7AFFC38BB38464FF40061FFF751
:10123000AFFC4FF0000800BFA4F5484738465521E1
:10124000FFF7CEFE38464021FFF738FE0028F9D0E0
:10125000B8F1040F08F10108EED3CBF8005000BF3D
:10126000DBF800000A28FBD3029F4FF400613846E8
:10127000FFF790FC40F2231820464FF40041FFF79F
:1012800081FC78BBCBF80050DBF800000A28FBD3C8
:1012900020464FF40041FFF775FC18BB38464FF469
:1012A0008051FFF775FC0026A4F5484738465521C4
:1012B000FFF796FE38464021FFF700FE0028F9D0E0
:1012C000042E06F10106EFD3CBF80050DBF8000046
:1012D0000A28FBD3029F4FF480513846FFF75AFC8F
:1012E00040F22136DAF80000B04224D1002000BFDD
:1012F0000AEB0001C97A222904D1072800F1010074
:10130000F6D30820082816D103984FF40041FFF7C0
:101310003FFCCBF8005000BFDBF800000A28FBD3ED
:1013200003984FF40041CAE90055CAE90255CAF8CA
:101330001050FFF72FFCD9F8000040457FF40AAFAA
:10134000002000BF09EB0001C97A112904D1072848
:1013500000F10100F6D3082008287FF4FBAE3846E0
:101360004FF48061FFF714FCCBF80050DBF800006D
:101370000A28FBD338464FF48061C9E90055C9E912
:101380000255C9F81050FFF705FCE3E602E008C873
:10139000121F08C1002AFAD170477047002001E0EF
:1013A00001C1121F002AFBD1704702040608000089
:1013B00000000102030401020304060708090000FB
:1013C000D013000800000020780400009C130008DF
:04000005080001519D
:00000001FF
