:020000040800F2
:1000000090090020650100086D0100086F010008DB
:10001000710100087301000875010008000000006C
:100020000000000000000000000000007701000850
:1000300079010008000000007B0100087D01000834
:100040007F0100087F0100087F0100087F01000890
:100050007F0100087F0100087F0100087F01000880
:100060007F0100087F0100087F0100087F01000870
:100070007F0100087F0100087F0100087F01000860
:100080007F0100087F0100087F0100087F01000850
:100090007F0100087F0100087F0100087F01000840
:1000A0007F0100087F0100087F0100087F01000830
:1000B0007F0100087F0100087F0100087F01000820
:1000C0007F0100087F0100087F0100087F01000810
:1000D0007F0100087F0100087F0100087F01000800
:1000E0007F0100087F0100087F0100080000000078
:1000F0000000000000000000000000000000000000
:1001000000000000000000007F0100087F010008DF
:100110007F0100087F0100087F0100087F010008BF
:100120007F0100087F0100087F0100087F010008AF
:100130007F0100087F0100087F0100087F0100089F
:100140007F0100087F0100087F0100087F0100088F
:10015000DFF80CD000F04EF8004800478D1C000876
:10016000900900200648804706480047FEE7FEE762
:10017000FEE7FEE7FEE7FEE7FEE7FEE7FEE7FEE757
:100180003D1B0008510100080649074A0868504312
:1001900043F2390210440860400870470149086082
:1001A00070470000000000206D4EC64140EA010388
:1001B0009B0703D009E008C9121F08C0042AFAD21D
:1001C00003E011F8013B00F8013B521EF9D27047E1
:1001D000D2B201E000F8012B491EFBD27047002289
:1001E000F6E710B513460A4604461946FFF7F0FF36
:1001F000204610BD064C074D06E0E06840F00103C4
:1002000094E8070098471034AC42F6D3FFF7A4FFF8
:10021000082100082821000810B5002001F0BEF9CF
:10022000002000F087FE0020FF2101F007F840F2D7
:100230000C04C2F20004204600F05EFE20786178D3
:1002400040F02000207001F0BF00607000202146C7
:1002500000F018FE40F23C14C2F20004204601F007
:10026000E5F92178E720607001F0C10002302070CC
:1002700000200221224601F0A1F940F22804C2F236
:100280000004204601F07CF82088012140F4EF7042
:1002900020F0200020800020224601F035F840F2B6
:1002A0001402C2F20002DA2010600020002100F0E7
:1002B000D5FE40F21C02C2F200024FF080401060F6
:1002C0000020002100F0A2FE0020002101220123D5
:1002D00000F0ECFE002010210222002300F098FB29
:1002E00000200021002200F0F9FE0020012101225F
:1002F00001F04EF80020032100F026FF002000212D
:10030000BDE8104000F06ABF70B582B001F0B6FAE7
:100310001C200121012601F0CDFB0120012101F06B
:10032000C9FB40F20020C0F23000012101F07AFB4D
:10033000102041F20005C4F60300C4F2010501AC2F
:1003400001902846214601F00DFB0220C4F603006F
:1003500001902846214601F005FB0120C4F6030068
:1003600001902846214601F0FDFA48F20000C1F252
:1003700003000190A5F50060214601F0F3FA41F277
:100380000000C4F603000190A5F58060214601F04D
:10039000E9FA40F21900C2F20000067040F20800CB
:1003A000C2F200000021017002B070BD70B540F2D1
:1003B0002006C2F20006307840B140F20400C2F2DA
:1003C0000000016849B10139016070BD40F20400CC
:1003D000C2F200000021016070BD317940F20132AB
:1003E000016040F24411C2F2000100BF00BF086882
:1003F000737962F30A0008600A79707802F02002CB
:1004000000F00F052A4442EA831242F080020A718A
:1004100000F07CFDB178C4B2B9B140F21805C2F267
:1004200000050020287064B140F25016C2F20006A8
:10043000FFF7AAFE29787054481CC1B2A142287067
:10044000F6D3BDE8704000F095BA4CB10546F2789D
:1004500040F25010C2F200002146FFF7B9FE00E062
:10046000002540F21800F178C2F200000570481C27
:10047000F070BDE8704000F07DBA00002DE9F04357
:1004800081B040F60008C4F2010808F500600121BF
:1004900000BF00BF01F004FB18B1052001B0BDE8AA
:1004A000F08340F22C0640F23805C2F20006C2F298
:1004B000000540270020012132462B46009700F01E
:1004C000A5FF30686FF3DF20B0F5007F2EDC40F22F
:1004D0000111884272D0B0F5007FDED12D7840F254
:1004E0001806C2F20006002701244FF4FF7900BF6E
:1004F00037700BE0380613D0307809EA4404013035
:10050000C1B2814207F101073070C6D02C42F1D050
:100510003806F1D140464FF4004101F0C7FAEBE74D
:1005200040464FF4004101F0C3FAE5E740F20121F3
:1005300088425FD0B0F5407FAFD140F24410C2F2A4
:10054000000000BF00BF016840F2013262F30A01FF
:1005500001600179327901F0200102F0DF021144DB
:100560000171D5E9000140F25012C2F200021060A0
:10057000A8685160E96890602869D1606969106174
:10058000A8695161E9699061286AD161696A10625C
:10059000A86A5162E96A9062286BD162696BC2E90C
:1005A0000C01D5E90E01C2E90E0140F21800C2F2B9
:1005B00000004021017000F0DDF96EE700BF00BFD0
:1005C0002878AA7840F220076978EB78002818BFCD
:1005D0000120C2F200073870B2FA82F04009B87008
:1005E0000020F870287979703B71002818BF01202D
:1005F000787152E72878C00705D140464FF4004192
:1006000001F056FA49E740464FF4004101F04EFA36
:1006100043E700002DE9F04F81B040F2080BC2F231
:10062000000B9BF80000082847D8DFE800F0051809
:1006300037464A50565B600040F60004C4F201049D
:1006400020464FF4004100BF01F030FAFFF7E4FD0F
:1006500020464FF4004101F02BFA0120CCE040F29B
:100660004410C2F20000002140F20132C0E9002132
:10067000CF21017140F250114FF0FF30C2F2000162
:10068000821C0B1801303F285A70F9D140F2180033
:10069000C2F20000402101700220ADE040F20401EE
:1006A000C2F2000100BF00BF086840F21A0900282A
:1006B000C2F2000952D0013897E0002000BF00BF0D
:1006C0009AE000BF00BFFFF7D9FE052094E000BF0D
:1006D00000BFFFF76BFE08208EE000F093F8B8B380
:1006E000072089E000F0E8F8A8B3062084E040F68F
:1006F0000000C4F2010000F580604FF4805100BF9B
:1007000001F0CEF940F244110446C2F20001002883
:1007100018BF01240A6840F2012363F30A020B792F
:100720000A6003F02002C132002840F250100A7122
:100730004FF04101C2F2000018BF4021017000F0EB
:1007400019F940F21900C2F200000470042053E0CD
:1007500000BF072050E000BF06204DE099F80000E0
:1007600040F21B01C2F2000100284FF0000040F6E9
:10077000000A0A7808BF42F00100087000BF0F7835
:1007800040F21804C4F2010A0026C2F20004012556
:100790004FF4FF7800BF26700CE000BF300613D086
:1007A000207808EA45050130C1B2814206F1010610
:1007B00020700FD03D42F1D03006F1D150464FF4B9
:1007C000004101F073F9EBE750464FF4004101F0AE
:1007D0006FF9E5E799F8000040F20401013089F86B
:1007E00000004CF25030C2F20001086099F800108D
:1007F0000220022988BF04208BF8000001B0BDE868
:10080000F08F00002DE9F04F81B040F2180440F263
:10081000501940F2380504274FF00108C2F20004D5
:100820000020C2F20009C2F200054FF0FF0B00BF2A
:10083000207000BFFFF7A8FC2178FEB209F8010084
:10084000481C05F801B0C1B2B1422070F2D30020BB
:100850004FF480614A46334600BF4FF0000A00F073
:10086000E3FF00204FF480612A46334600F016FD76
:100870005FFA8AF019F80010285C814211D10AF160
:10088000010A5FFA8AF0B042F2D3277004373D2E96
:100890004FF000084FF0000038BF4FF00108C7D3F9
:1008A00003E084F800A000BF00BF012020EA080098
:1008B00001B0BDE8F08F00002DE9F04F81B040F2AB
:1008C000180740F2501B40F238054FF00108C2F201
:1008D00000070020C2F2000BC2F200054FF0FF0A31
:1008E000012400BF387000BFFFF74EFC397800F0DC
:1008F0007F000BF80100481C05F801A0C1B2E6B268
:10090000B1423870F0D300204FF4F8715A463346A4
:1009100000BF4FF0000900F087FF00204FF4F8718E
:100920002A46334600F0BAFC5FFA89F01BF8001043
:10093000285C814213D109F101095FFA89F0B042C4
:10094000F2D33C700134402E4FF000084FF000000D
:1009500038BF4FF00108C5D300BF00BF03E087F8E0
:10096000009000BF00BF012020EA080001B0BDE8F0
:10097000F08F000070B582B040F60004C4F20104AC
:1009800020464FF4004101F091F840F24015322624
:10099000C2F20005002002212A4600F04DFE30067A
:1009A00021D02878013EC007F4D040F24415C2F2AD
:1009B0000005287900F00F0000F0A8FAC0B240F25C
:1009C000501301260090C2F20003002002212A46A3
:1009D000019600F057FE20464FF4004102B0BDE8FA
:1009E000704001F065B840F2381140F2260240F242
:1009F000100300BFC2F20001C2F20002C2F2000303
:100A0000002000BF02B0BDE8704000F0BFBA000097
:100A1000B0B50C46022B054642D0012B33D0002B3B
:100A20004BD1112C50D842F25C0142F2A40260B2C8
:100A3000C0F60001C0F6000251F8201052F8200064
:100A40004FF4846241EA0021084340F2D801C2F227
:100A5000000121F8012B002220FA02F30832202A9B
:100A600001F8013FF8D140F2D80140F27802C2F219
:100A70000001C2F200022846062300F041FF0106F1
:100A800025D040B2B0BD112C1AD84FF6FB70C0F281
:100A90000300E040C00725D1FF200106F1D154E05A
:100AA000112C1BD84FF6FB70C0F20300E040C007CA
:100AB00052D1FF200106E4D182E0FF2040B2B0BD58
:100AC000FF200106DDD140E0FF200106D9D12846F4
:100AD00021460022BDE8B04000F05CB9FF200106CD
:100AE000CFD16DE041F6CC7142F2140260B2C0F693
:100AF0000001C0F6000251F8201052F820004FF417
:100B0000846241EA0021084340F2D801C2F20001A8
:100B100021F8012B002200BF20FA02F30832202A1C
:100B200001F8013FF8D140F2D80140F27802C2F258
:100B30000001C2F200022846062300F0E1FE002870
:100B400018BF6FF0010001069BD128462146002204
:100B5000BDE8B04000F0B0B841F63C7141F6847297
:100B600060B2C0F60001C0F6000251F8201052F841
:100B700020004FF4846241EA0021084340F2D8018A
:100B8000C2F2000121F8012B002200BF20FA02F37B
:100B90000832202A01F8013FF8D140F2D80140F292
:100BA0007802C2F20001C2F200022846062300F0D9
:100BB000A7FE002818BF6FF0010001067FF461AFA7
:100BC000284621460022BDE8B04000F001B80000F0
:100BD000F0B581B0044611294FF0FF0000F26980A2
:100BE0004FF4E0664FF4003701224FF4C023DFE8F2
:100BF00001F01E1060606060606009181E60106087
:100C0000606060094FF47066002703224FF4602390
:100C10000DE04FF4407600224FF400334FF40037DC
:100C200005E04FF40066002702224FF4E02343EA78
:100C3000022040F2D8011043C2F200014FF40262D8
:100C400021F8012B002200BF20FA02F30832202AEB
:100C500001F8013FF8D140F2D805C2F2000540F298
:100C60007802C2F2000220462946062300F048FE20
:100C700008B1FE201DE04FF4426146EA070025F866
:100C8000011B002120FA01F20831202905F8012F6B
:100C9000F8D140F2D80140F27802C2F20001C2F26B
:100CA00000022046062300F02BFE002818BF6FF03C
:100CB000020040B201B0F0BDF0B581B0112909D8F1
:100CC00004464DF61B70C0F20200C840C00703D1B5
:100CD000FF205CE0FF205AE048B241F6B44141F603
:100CE000FC4241F64453C0F60001C0F60002C0F6D3
:100CF000000351F8201052F8202053F8206041F6EC
:100D00008C53C0F6000353F8207041EA022040F2F1
:100D1000D8011043C2F200014FF4026221F8012B06
:100D2000002200BF20FA02F30832202A01F8013F16
:100D3000F8D140F2D805C2F2000540F27802C2F2C2
:100D4000000220462946062300F0DAFD08B1FE2005
:100D50001DE04FF4426147EA060025F8011B00211F
:100D600020FA01F20831202905F8012FF8D140F2CC
:100D7000D80140F27802C2F20001C2F2000220461D
:100D8000062300F0BDFD002818BF6FF0020040B23E
:100D900001B0F0BD2DE9F04111294CD8044648B20C
:100DA00041F6D45141F6AC6241F64457C0F6000119
:100DB000C0F6000241F6F463C0F6000751F82010B7
:100DC00052F82020C0F6000357F8208041F61C6737
:100DD00041F6646653F82030C0F60007C0F60006FE
:100DE00057F8207056F8206041EA020040F2D8011E
:100DF00040EA0320C2F200014FF40262184321F8D6
:100E0000012B002220FA02F30832202A01F8013FC8
:100E1000F8D140F2D805C2F2000540F27802C2F2E1
:100E2000000220462946062300F06AFD38B1FE2064
:100E300040B2BDE8F081FF2040B2BDE8F08147EA52
:100E400008004FF44261304325F8011B002100BF28
:100E500020FA01F20831202905F8012FF8D140F2DB
:100E6000D80140F27802C2F20001C2F2000220462C
:100E7000062300F045FD002818BF6FF0020040B2C5
:100E8000BDE8F08180B50A784B7891F802E002F075
:100E90007F0CD20963F3420203F0040142EA8101AC
:100EA000DA084FEA0E13043380321B0643EA02428B
:100EB00042EA012140F2D802C2F20002202313705C
:100EC00000238C4402F8013F2CFA03F10833202B55
:100ED00002F8011FF8D140F2D80140F27802C2F2C4
:100EE0000001C2F20002062300F00AFD002818BF2C
:100EF0004FF0FF3080BD000001468A784CF2E030B0
:100F0000088002F0F00200208A707047082800BFB5
:100F100000BF98BF70470938C1B2062984BF0020BE
:100F2000704742F2EC0140B2C0F6000151F82000D7
:100F30007047000070B540F2D8050446C2F20005C3
:100F400040F63E4040F2780628800020C2F20006BB
:100F5000A870204629463246032300F0D1FC10B188
:100F6000FF2040B270BDB07840F62E4140F0010045
:100F70002980A870204629463246032300F0C0FC91
:100F8000002818BF6FF0010040B270BD2DE9F0439A
:100F900081B00E4640F2D80140F278079146C2F285
:100FA000000143F23042C2F2000798460A803A46F6
:100FB000062300F0A5FC28B1002300220021D8B1AF
:100FC000FF201FE07B1C002700240022002100BF1F
:100FD000120213F8015F92B264F31742C9B2BD4026
:100FE0001144294408370A0A202F4FEA1144EFD14F
:100FF00004F03F030028E3D10020327089F800108C
:1010000088F8003040B201B0BDE8F08380B54FF4FD
:10101000FA7303EBC103190A01F1200C40F2D80165
:10102000D2F800E0C2F2000181F800C001F8013FEF
:10103000002300BF2EFA03F20833202B01F8012F02
:10104000F8D140F2D80140F27802C2F20001C2F2B7
:1010500000020623BDE8804000F052BC80B54FF48A
:10106000F87303EBC103190A01F1200C40F2D80117
:10107000D2F800E0C2F2000181F800C001F8013F9F
:10108000002300BF2EFA03F20833202B01F8012FB2
:10109000F8D140F2D80140F27802C2F20001C2F267
:1010A00000020623BDE8804000F02ABC02F01F0CBD
:1010B00001F5E872110A63F3C71C01F1200340F245
:1010C000D801C2F200014A7040F278020B70C2F2FD
:1010D0000002032381F802C000F012BC2DE9F041A8
:1010E00040F2D8050446C2F2000540F23E7040F2DC
:1010F000780728800020C2F2000790460E46A870AC
:10110000204629463A46032300F0FAFB18B1FF2097
:1011100040B2BDE8F081B87806F0010100F0FC00B3
:1011200068F34101084440F22E712980A8702046DE
:1011300029463A46032300F0E3FB002818BF6FF06E
:10114000010040B2BDE8F081F0B581B040F2D805B1
:1011500040F278070446C2F2000541F63060C2F260
:1011600000070E462880204629463A46042300F010
:10117000C7FB08B100210AE07A1C0023002100BF50
:1011800012F8017F9F400833102B3944F8D108B181
:10119000FF2020E026F0E00008434FF4F15125F84D
:1011A000011B80B2002100BF20FA01F20831102992
:1011B00005F8012FF8D140F2D80140F27802C2F2CE
:1011C0000001C2F200022046042300F099FB00282F
:1011D00018BF6FF0010040B201B0F0BDF0B581B0B2
:1011E00040F2D8050446C2F200054FF44C7040F2BC
:1011F000780728800020C2F200070E46A87020461B
:1012000029463A46032300F07BFB08B1FF2011E09A
:10121000B8784FF4487100F0F80030432980A87086
:10122000204629463A46032300F06AFB002818BFEF
:101230006FF0010040B201B0F0BD00002DE9F04FA9
:1012400081B040F2D806C2F2000640F27808894622
:1012500082464FF4806415254FF0020BB71CC2F292
:10126000000800BF200A6BF31F1030703846602161
:101270004A467470FEF7ACFF504631464246622340
:1012800000F03EFB28B9013D04F16004EAD10020E2
:1012900000E0FF2040B201B0BDE8F08F2DE9F04141
:1012A0000646981C904687B20A0A032060F31F1274
:1012B00040F2D8001C46C2F20000032F02704170B9
:1012C00005D3611E89B201310230FEF788FF40F27A
:1012D000780540F2D801C2F20005C2F200013046A2
:1012E0002A463B4600F00CFB002C08BFBDE8F0810D
:1012F000691CA8F1010200BF11F8013F013C02F88E
:10130000013FF9D1BDE8F081002904BF6FF063000F
:10131000704710B512884FF06043C2F3440C03EAE3
:10132000C25302F0010E01EB4101502202EB810495
:1013300043EA0C61230A022241EA4E1162F31F13B1
:1013400040F2D80241F4C001C2F2000241F48061CF
:10135000137002F8014F002321FA03F40833202B05
:1013600002F8014FF8D140F2D80140F27802C2F2FF
:101370000001C2F200020623BDE8104000F0C0BA2E
:101380000146008800F47E4200200A807047000079
:101390002DE9F04381B0F9B1044601EB4100502141
:1013A00001EB8007C7F3032540F2D80605F13000B2
:1013B000C2F2000640F2780830700020C2F2000845
:1013C0009146B0702046314642460323777000F0C4
:1013D00097FA18B1FF2015E09C2013E098F802005E
:1013E00009F00F01084305F120013170B07020466B
:1013F000314642460323777000F082FA002818BF76
:101400006FF0010040B201B0BDE8F0832DE9F04F6C
:1014100099B0824601EB4106502040F2D80900EB1A
:1014200086003021C2F2000940F2780541EA10211D
:1014300089F801000020C2F200051C46934689F895
:101440000010C9F80200C9F80600C9F80A005046A1
:1014500049462A460E2300F053FA08B1FF2098E0CF
:10146000DDF888E04FEA860C022100220DF10C081D
:1014700016AB0026029400BF002403928FB2EF5DEA
:10148000013108F804700134042CF7D1039F43F8AC
:1014900026700136032EEFD108B1FF2079E01698AF
:1014A00001063ED410F0200000904FF00C00CDF863
:1014B00004C0BDF8601008BF0820704403306FF30B
:1014C0001F3100F0FC0501F580614C2D28BF4C2533
:1014D000AC1C302040EA1120022C89F8000089F869
:1014E000011006D0681E80B2411C09F10200FEF70F
:1014F00076FE40F2D80940F27806C2F20009C2F244
:101500000006504649463246234600F0F9F90746A0
:1015100025B1B11C03A82A46FEF748FE1FB1FD20E5
:1015200037E0FE2035E0DDE90301CBF8000000984C
:10153000CBF8041038B90020229ACBF808000198A3
:1015400072B1082006E00598229ACBF808000198AD
:1015500032B10C2008EB00010298FEF727FE01983B
:101560005130010A022262F31F1189F801000120A3
:1015700040F2780289F8001089F80200C2F20002F5
:1015800050464946032300F0BBF9002818BF6FF00E
:10159000030040B219B0BDE8F08F000040F2D8015E
:1015A00040F27802C2F200014FF0000CC2F20002D9
:1015B0000223A1F800C000F0A3B9000010B5137811
:1015C00092F801C0802242EA831E01EB41015022C1
:1015D00002EB81044FF4FE0101EAC33141EA0C61E0
:1015E0005FFA8EF21144230A022262F31F1340F2C3
:1015F000D802C2F2000201F58061137002F8014FB7
:10160000002300BF21FA03F40833202B02F8014F16
:10161000F8D140F2D80140F27802C2F20001C2F2E1
:1016200000020623BDE8104000F06AB90146C0225E
:1016300000200A8070470000B0B5144601EB41015C
:10164000542202EB8102302141EA122340F2D801F8
:10165000C2F2000140F278054A700022C2F2000591
:101660000B708A702A46032300F04AF910B1FF205C
:1016700040B2B0BDA87800F017002070002040B242
:10168000B0BD00002DE9F04F97B0814601EB410459
:10169000502040F2D80B00EB84003021C2F2000B46
:1016A00040F2780741EA10218BF801000020C2F2D5
:1016B00000079A4690468BF80010CBF80200CBF852
:1016C0000600CBF80A00484659463A460E2300F079
:1016D00017F908B1FF20A2E0DDF880E0A100009139
:1016E00002224FF0000C01A914AC00260025CDF811
:1016F00004C000BF93B2FB5C01324B550135042D91
:10170000F8D1019B44F826300136032EEED108B102
:10171000FF2084E09DF85000000601D4FE207EE00A
:1017200098F8042000BF02F00F00082800BF01D87D
:1017300075460DE00928754609D3D01D42F2EC022A
:1017400040F30300C0F6000252F8200000E0002041
:10175000A84201D2FD2062E0BDF858006FF31F30AF
:1017600000F58067D8E900020190029255B100228D
:10177000002000BF01301AF802305618C2B2AA4247
:101780003372F7D3219C15F003000AD0C0F1040690
:1017900005F10800C0B2084408303146FEF71FFDCD
:1017A00000E00026A8190A3086B2380A022161F347
:1017B0001F10032E8BF800008BF8017005D3B21EAA
:1017C0000BF1020001A9FEF7F1FC40F2D805C2F2CC
:1017D000000540F27802C2F200024846294633462C
:1017E00000F08EF808B1FC2019E000980223513077
:1017F000020A012163F31F12002C18BF03212A7073
:1018000040F278026870A970C2F200024846294688
:10181000032300F075F8002818BF6FF0040040B2F1
:1018200017B0BDE8F08F000080B502334FEA112CED
:101830004FF0020E9BB26EF31F1C40F2D80EC2F2A4
:10184000000E032B8EF800C08EF801100AD3A2F10F
:10185000010C0EF10102991E1CF801EF013902F88A
:1018600001EFF9D140F2D80140F27802C2F2000152
:10187000C2F20002BDE8804000F042B8B0B586B0C8
:101880004FF48050012100F015F90420012100F0EF
:1018900011F90420012100F00DF9E02040F60004C8
:1018A000C1F60300C4F201046D46009020462946AB
:1018B00000F058F81020C1F203000090204629469D
:1018C00000F050F82046102100F0F2F84FF082703E
:1018D0000190002002904FF00070039008200490C7
:1018E000072004F52054ADF8140001A9204600F0AB
:1018F00001F92046012100F0E9F806B0B0BD000072
:101900002DE9F04381B043F20005C4F20105A5F5CD
:1019100020580F46404610211C46914600F0C6F85C
:10192000C4B100262846022100F0DAF80028F9D0D8
:10193000B95D284600F0DCF82846012100F0D0F817
:101940000028F9D0284600F0D1F809F80600013641
:10195000A642E7D14046102100F0AAF8002001B0CD
:10196000BDE8F0832DE9F047CA7802F00F0CD306EA
:1019700044BF8B784CEA030C09880B0625D08246BD
:101980005AF8144B00F1100E00254FF001094FF0EA
:101990000F08002706E000BF1E600137082F05F181
:1019A000040511D009FA07F60E42F6D008FA05F33D
:1019B00024EA03030CFA05F41C43282A5346EBD00F
:1019C000482AEAD17346E7E70460B1F5807F38BF63
:1019D000BDE8F087436800F1100E00F114090025FE
:1019E0004FF4807A4FF00F08002705E0346001378C
:1019F000082F05F1040512D00AFA07F404EA0106DB
:101A0000A642F4D108FA05F6B3430CFA05F63343BF
:101A1000282A4E46EAD0482AE9D17646E6E74360CE
:101A2000BDE8F087B0B50422C4F20102134602F10A
:101A3000180E002848BF73461C6800F44013B3F525
:101A4000401F1FFA80FC06D1156824F0706325F052
:101A50007064146015E0C3020AD46FF00F0303EA48
:101A600050430CFA03F324EA030343F0706308E0E5
:101A7000C0F30343032505FA03F324EA030343F009
:101A800070636FF00F0404EA504400290CFA04F567
:101A900018BF2B43002848BF72461360B0BD00003A
:101AA0008068084018BF01207047000041617047FE
:101AB00001617047002941F21801C4F202010A686D
:101AC0000CBF22EA0000104308607047028800291A
:101AD00018BF012122F0400242EA811101807047C3
:101AE0000089084018BF01207047000080897047B6
:101AF000818170472DE9F04102880B8802F4415C36
:101B00004A88B1F804E043EA0C03CC881A430D89F3
:101B100042EA0E024E8922438F892A43B1F80E8091
:101B200032433A4342EA08020280828B22F4006286
:101B30008283098A0182BDE8F081000082B041F20F
:101B40000400C4F2020050F8041C002241F001011C
:101B500040F8041C0168CFF2FF021140016050F808
:101B6000041C4FF6FF72CFF6F662114040F8041CD9
:101B700050F8041C21F4802140F8041C016821F471
:101B8000FE01016050F8041C21F0A05140F8041C33
:101B90004FF47F014160002181620191009150F872
:101BA000041C41F4803140F8041C00BF50F8041CB0
:101BB00001F400310091019901310191009919B9A5
:101BC0000199B1F5A06FF1D150F8041C890354BFFD
:101BD000002101210091009901294ED142F200011A
:101BE000C4F202010A6842F010020A600A6822F098
:101BF00003020A600A6842F002020A6001684FF2BA
:101C0000000201600168CFF6FE720160016841F4D4
:101C100080610160816A11408162816A41F484318E
:101C200041F01401816250F8041C41F0806140F8D9
:101C3000041C00BF50F8041C0901FBD5016821F405
:101C40007C110160016841F4E811016050F8041C46
:101C500041F0807140F8041C50F8041C8901FBD548
:101C6000016821F003010160016841F00201016097
:101C7000016801F00C010829FAD14EF60850CEF2A5
:101C800000004FF00061016002B07047FEF73CFBBE
:101C9000FEF7C0FCFCE702E008C8121F08C1002ADA
:101CA000FAD170477047002001E001C1121F002ADD
:101CB000FBD1704700000E000000060000000E007F
:101CC000000002000000010000000E0000000E00F5
:101CD00000000E0000001E000000110000000E00B9
:101CE000000008000000060000000E0000000200D6
:101CF0000000020000000E0000001E0003000000B3
:101D000001000000030000000000000000000000CF
:101D100003000000030000000300000007000000B3
:101D200004000000030000000200000001000000A9
:101D3000030000000000000000000000030000009D
:101D40000700000000000200000002000000020086
:101D5000000002000000020000000200000002007B
:101D6000000002000000000000000000000002006F
:101D7000000002000000020000000200000002005B
:101D8000000002000000020000000000000F000040
:101D900000070000000F0000000300000002000028
:101DA000000F0000000F0000000F0000001F0000E7
:101DB00000120000000F00000009000000070000F2
:101DC000000F00000003000000030000000F0000EF
:101DD000001F0000000000000000000000000000E4
:101DE00000000000000000000000000000000000F3
:101DF00000000000000000010000000100000000E1
:101E000000000000000000000000000000000000D2
:101E1000000000000000000000000001001F0000A2
:101E2000000F00000009000000070000000500008E
:101E3000000400000003000000020000001F00007A
:101E400000120000001F000000130000000F00003F
:101E50000009000000070000000700000003000068
:101E6000001F000000000000000000000000000053
:101E70000000000000000000000000000100000061
:101E80000000000000000000000000000000000052
:101E90000000000000000000000000000000000042
:101EA00000000000010000000000000000001E0013
:101EB00000000E0000000800000006000000040002
:101EC00000000300000002000000010000001E00EE
:101ED0000000110000001E000000120000000E00B3
:101EE00000000800000006000000060000000200DC
:101EF00000001E00070000000300000002000000B8
:101F000001000000010000000000000000000000CF
:101F100000000000070000000400000007000000AF
:101F200005000000030000000200000001000000A6
:101F300001000000000000000700000000000E008B
:101F400000000E0000000E0000000E0000000E0059
:101F500000000E0000000E0000000E0000001E0039
:101F600000001E0000001E0000001E0000001E00F9
:101F700000001E0000001E00000007000000070017
:101F800000003E000300000003000000030000000A
:101F90000300000003000000030000000300000035
:101FA0000300000007000000070000000700000019
:101FB0000700000007000000070000000700000005
:101FC00002000000020000000F00000000001E00E0
:101FD00000001E0000001E0000001E0000001E0089
:101FE00000001E0000001E0000001E0000003E0059
:101FF00000003E0000003E0000003E0000003E00E9
:1020000000003E0000003E0000000E0000000E0038
:1020100000007E000700000007000000070000002D
:102020000700000007000000070000000700000094
:10203000070000000F0000000F0000000F0000006C
:102040000F0000000F0000000F0000000F00000054
:1020500003000000030000001F00000000003E001D
:1020600000003E0000003E0000003E0000003E0078
:1020700000003E0000003E0000003E0000007E0028
:1020800000007E0000007E0000007E0000007E0058
:1020900000007E0000007E0000001E0000001E0008
:1020A0000000FE000F0000000F0000000F00000005
:1020B0000F0000000F0000000F0000000F000000E4
:1020C0000F0000001F0000001F0000001F000000A4
:1020D0001F0000001F0000001F0000001F00000084
:1020E00007000000070000003F0000000C00000097
:1020F0001000000014000000180000002000000084
:1021000030000000400000002821000800000020EE
:1021100008000000961C000830210008080000207C
:1021200088090000A61C00080000000050C3000041
:04000005080001519D
:00000001FF
