:020000040800F2
:10000000A8050020450100084D0100084F01000827
:1000100051010008530100085501000800000000CC
:100020000000000000000000000000005701000870
:1000300059010008000000005B0100085D01000894
:100040005F0100085F0100085F0100085F01000810
:100050005F0100085F0100085F0100085F01000800
:100060005F0100085F0100085F0100085F010008F0
:100070005F0100085F0100085F0100085F010008E0
:100080005F0100085F0100085F0100085F010008D0
:100090005F0100085F0100085F0100085F010008C0
:1000A0005F0100085F0100085F0100085F010008B0
:1000B0005F0100085F0100085F0100085F010008A0
:1000C0005F0100085F0100085F0100085F01000890
:1000D0005F0100085F0100085F0100085F01000880
:1000E0005F0100085F0100085F0100085F01000870
:1000F0005F0100085F0100085F0100085F01000860
:100100005F0100085F0100085F0100085F0100084F
:100110005F0100085F0100085F0100085F0100083F
:100120005F0100085F0100085F0100085F0100082F
:10013000DFF80CD000F02AF8004800477F270008BD
:10014000A80500200648804706480047FEE7FEE76E
:10015000FEE7FEE7FEE7FEE7FEE7FEE7FEE7FEE777
:1001600001270008310100080649074A0868504382
:1001700043F23902104408604008704701490860A2
:10018000704700003C0000206D4EC641064C074DF4
:1001900006E0E06840F0010394E807009847103457
:1001A000AC42F6D3FFF7C8FF1C2C00083C2C00081B
:1001B00010B5002001F03CFF002001F0A8FBFF215A
:1001C000002001F0B8FC4C4801F02EFB4A480068C2
:1001D00020F020002030484908600846006820F4DC
:1001E00080400860002001F0C3FA444801F070FF2D
:1001F0004248006820F4F85000F5E0603F4908608C
:100200000846006820F4604000F560400860084639
:10021000006820F03E00801C08600A460221002091
:1002200001F01AFF364801F0E3FD3548006820F080
:100230003E001E30324908600846006820F4E07035
:1002400000F5E07008600A460121002001F09CFDE5
:1002500000202C490860084600686FF30A00DA3075
:1002600008600846006820F08040086000212548AA
:10027000006861F3DC20234908600A460021084633
:1002800001F0A4FB002020490860084600686FF3D5
:100290000A0008600846006820F0804000F18040B5
:1002A000086000211848006861F3DC2016490860E6
:1002B0000A460021084601F071FB01231A4600217D
:1002C000084601F09BFB012302220F21002000F0D1
:1002D0009FFB00221146104601F0B3FB012211469C
:1002E000002001F0A1FD0321002001F0D6FB002138
:1002F000084601F0FAFB10BD040000200C000020AD
:1003000014000020180000201C00002008B502F096
:1003100081F80121482002F037F94020ADF80000B3
:1003200003208DF8020048208DF80300694620481C
:1003300002F081F84FF48070ADF8000003208DF8D2
:10034000020048208DF803006946194802F073F84E
:100350004FF40070ADF8000003208DF80200482033
:100360008DF803006946124802F065F82020ADF8C8
:10037000000003208DF8020010208DF8030069466C
:100380000B4802F058F81020ADF8000003208DF85B
:10039000020048208DF803006946064802F04BF839
:1003A00001200549087000200449087008BD0000BC
:1003B000000C0140001801402C000020000000202B
:1003C00010B5044624B92021034802F0CAF800E021
:1003D00000BF00BF10BD0000000C014010B5044676
:1003E00024B92021034802F0BAF800E000BF00BFA2
:1003F00010BD0000000C014070B506460124002528
:1004000000BF00200D49087012E006EA040018B190
:100410002846FFF7E3FF02E02846FFF7D1FF60061A
:10042000040E06480078401C04490870681CC5B2D8
:10043000024800780128E8DB70BD0000350000208C
:1004400010B539480078002869D03848006800287D
:100450005FD1354800793549086000BF00BF344896
:1004600000686FF30A0000F20130314908602E483D
:1004700041782F48406861F303002D4948600846E1
:10048000406820F0100048602748417928484068BB
:1004900061F38610264948600846406820F08000D5
:1004A000803048602049487801F00EFAC4B21E48F6
:1004B000807898B100201F4908700AE0FFF754FEC9
:1004C0001D491C4A127888541A480078401C194962
:1004D000087018480078A042F0DB17E000201549AA
:1004E00008700AE01048C0781349124A12788854FC
:1004F00010480078401C0F4908700E480078A04250
:10050000F0DB0948C078401C0749C87000F0F4F9D6
:1005100008E006480068401E0449086002E0002028
:100520000249086010BD00002D00002024000020BA
:1005300040000020350000204C00002038B500BFEE
:1005400000BF05244FF400714E4801F0FFFF002862
:1005500075D140204C4B4D4A01210090002001F004
:10056000B0FC4A480088C0F30A00A0F2011000283D
:100570005ED0FF284AD0B0F5807F4CD0A0F2FF10AB
:1005800000287BD100BF00BF414800686FF30A001C
:1005900000F201303E4908603C480079496860F348
:1005A00003013B48416039480079010938484068F7
:1005B00061F30410364948603448007981093448B1
:1005C000406861F386103249486030480079C109BB
:1005D0002F48406861F3C7102D49486000202D491D
:1005E00008700CE028482B490978405C2A49294AC0
:1005F0001278885427480078401C264908702548FE
:1006000000784028EEDB00F077F937E01E490878E3
:10061000FFF7F2FE32E01C48007800F0010018B14C
:100620000020FFF7DBFE02E00020FFF7C9FE25E017
:1006300000BF00BF1448007810B1012001E01EE0A7
:100640000020164908701048407848700E4880789D
:1006500010B90120887002E0002010498870002045
:100660000E49C8700848C07808710748007908B179
:10067000012000E000200949487100BF00BF20466A
:1006800038BD0000000C0140980000208C000020C4
:1006900040000020350000204C0000202D000020EC
:1006A00010B56148007809287BD2DFE800F0051218
:1006B00055B58C95A3AC9D0000BF0020FFF78EFEC2
:1006C000FFF776FD0020FFF77BFE012056490870FA
:1006D000A8E00020554908604860084600686FF3AC
:1006E0000A0000F20130086000215048006861F300
:1006F000DC204E4908600846406820F04000403049
:1007000048600846406820F00F000F3048600846F7
:10071000406820F08000803048600846406820F043
:10072000100048600020424908700DE03F48007802
:100730003F49097808443F493D4A127888543C486B
:100740000078401C3A490870394800784028EDDBB1
:1007500002203549087065E000BF00BF36480068D8
:1007600000BB36480078012809DA344801780120B6
:1007700088403349097808433149087002E0002075
:100780002F49087000BF2E480078FFF735FE2B4830
:100790000078401C294908704CF250302649086006
:1007A00005E039E024480068401E234908602348DA
:1007B0000078022803DD04201B49087002E00220B3
:1007C000194908702EE000BF00BFFFF7B7FE1649B9
:1007D00008700520087025E000BF00BFFFF730FE5D
:1007E0000820114908701DE000F0C4F804200E49EB
:1007F000087017E000F026F8044604B900BF07208F
:10080000094908700EE000F01DF8044604B900BF65
:1008100006200549087005E000BF00BF002002491E
:10082000087000BF00BF10BD000000204000002085
:10083000350000204C000020240000203300002060
:100840003400002070B5002500BF042449E00020DA
:10085000264908700FE0FFF787FC2549234A1278E4
:100860008854FF202349214A127888541F48007871
:10087000401C1E4908701D480078A042EBDB00BFF9
:1008800023461B4A4FF48061002001F045FD2346BA
:10089000184A4FF48061002001F094F900250020EF
:1008A0001249087017E0124810490978405C114954
:1008B0000E4A1278895C884201D1012000E00020B4
:1008C00005461DB900BF00BF002070BD0748007875
:1008D000401C0649087005480078A042E3DB201D53
:1008E000C4B2402CB3DD0120EFE70000350000204A
:1008F0004C000020980000207CB50020FFF76EFD22
:10090000322400BF154A0221002001F009FC44B93D
:1009100000BF00BF124B134A1349002001F01AF820
:100920007CBD601EC4B20D48007800F001000028B4
:10093000E8D00E49097901F00F0000F0C5FFC5B2FB
:1009400001200B4B094A0221CDE90050002001F0A3
:1009500007FC0020FFF734FD00BFE1E71000002096
:100960003800002037000020360000204000002022
:100970004C00002038B500BF1021214801F0E6FDF1
:1009800008B1012000E0002000909DF800001D4902
:100990000978884201D0012000E00020044654B3C9
:1009A000194800686FF30A0000F201201649086038
:1009B0000846406820F00F00401C48600846406828
:1009C00020F0100048600846406820F040004030A9
:1009D00048600846406820F0800080304860002071
:1009E0000A4908709DF8000018B908460078401CB4
:1009F0000870FFF781FF9DF800000249087038BDBC
:100A0000001801402C000020400000204C00002075
:100A10002DE9F04106460F4690461D46002425B1BB
:100A2000012D12D0022D2ED11EE03946304600F0A5
:100A300015FE044614B12046BDE8F0814246394611
:100A4000304600F0C3FA044620E03946304600F054
:100A500079FD04460CB12046EEE742463946304661
:100A600000F028F9044611E03946304600F0DEFC7B
:100A700004460CB12046DFE742463946304600F0D6
:100A800009F8044602E04FF0FF3400BF00BF2046E3
:100A9000D2E700002DE9FC4107460D4690460026AE
:100AA00083488068019000200090009820F4403036
:100AB00000F5003000900024122D76D2DFE805F01A
:100AC0000929DE464748494A50769ABABDDADB4BD7
:100AD0004C51019820F07F400190019820F4F810CB
:100AE00000F5C0200190019820F4706000F580703E
:100AF0000190019820F00F00401C0190009820F414
:100B0000FE4000F5E0600090009864F3050000905E
:100B1000B7E0019820F07F400190019820F4F81090
:100B200000F500300190019820F470600190019868
:100B300020F00F000190009820F4FE4000F5407076
:100B40000090009864F3050000909AE000BF00BF99
:100B500000BF00BF00BF00BF4FF0FF30BDE8FC8109
:100B600000BF019820F07F400190019820F4F81018
:100B700000F560200190019820F4706000F540704D
:100B80000190019820F00F00C01C0190009820F403
:100B9000FE4000F570600090009864F3050000903E
:100BA000009820F4403000906BE067E0019820F05E
:100BB0007F400190019820F4F81000F5E0200190AA
:100BC000019820F4706000F500700190019820F009
:100BD0000F00801C0190009820F4FE4000F500609A
:100BE0000090009864F305000090009820F44030D5
:100BF000009046E0019820F07F400190019820F499
:100C0000F81000F5C0200190019820F4706000F504
:100C100080700190019820F00F00401C0190009816
:100C200020F4FE4000F5E0600090009864F30500B9
:100C3000009026E04FF0FF3090E7019820F07F40D1
:100C40000190019820F4F81000F50030019001980F
:100C500020F470600190019820F00F00019000983E
:100C600020F4FE4000F540700090009864F3050009
:100C7000009006E000BF4FF0FF306FE74FF0FF300D
:100C80006CE700BF08213846019A01F099FB06463F
:100C900016B16FF0010061E70C213846009A01F0AF
:100CA0008FFB064616B16FF0020057E7304655E756
:100CB000A42800082DE9FC4107460D469046002671
:100CC000C1488068019000200090009820F44030D6
:100CD00000F5003000900024122D7CD2DFE805F0F2
:100CE00009297B49678687888DB2D6FAF8F7F64AD4
:100CF000898E019820F07F400190019820F4F8102F
:100D000000F560200190019820F4706000F54070BB
:100D10000190019820F00F00C01C0190009820F471
:100D2000FE4000F570600090009864F305000090AC
:100D300033E1019820F07F400190019820F4F810F1
:100D400000F5C0200190019820F4706000F58070DB
:100D50000190019820F00F00401C0190009820F4B1
:100D6000FE4000F5E0600090009864F305000090FC
:100D700013E100BF019820F07F400190019820F41A
:100D8000F81000F500300190019820F47060019097
:100D9000019820F00F000190009820F4FE4000F52B
:100DA00040700090009864F305000090F5E0019811
:100DB00020F07F400190019820F4F81000F5803079
:100DC0000190019820F470600190019820F00F00CC
:100DD0000190009800E0DDE020F4FE4000F5007096
:100DE0000090009864F305000090D6E000BF00BFBB
:100DF00000BF4FF0FF30BDE8FC8100BF019820F03C
:100E00007F400190019820F4F81000F5F010019057
:100E1000019820F4706000F5E0600190019820F0E6
:100E20000F00C01D0190009820F4FE4000F5F8501E
:100E30000090009864F305000090009820F4403082
:100E40000090AAE0019820F07F400190019820F4E2
:100E5000F81000F588100190019820F4706000F5FA
:100E600080600190019820F00F00001D0190009813
:100E700020F4FE4000F590500090009864F30500C7
:100E80000090009820F44030009086E0019820F017
:100E90007F400190019820F4F81000F56020019047
:100EA000019820F4706000F540700190019820F0E6
:100EB0000F00C01C0190009820F4FE4000F5706007
:100EC0000090009864F30500009066E045E041E082
:100ED00020E0FFE7019820F07F400190019820F486
:100EE000F81000F500200190019820F4706000F5E2
:100EF00000700190019820F00F00801C0190009874
:100F000020F4FE4000F510600090009864F30500A6
:100F1000009042E0019820F07F400190019820F479
:100F2000F81000F5C0200190019820F4706000F5E1
:100F300080700190019820F00F00401C01900098F3
:100F400020F4FE4000F5E0600090009864F3050096
:100F5000009022E04FF0FF304DE7019820F07F40F5
:100F60000190019820F4F81000F5003001900198EC
:100F700020F470600190019820F00F00019000981B
:100F800020F4FE4000F540700090009864F30500E6
:100F9000009002E04FF0FF302DE700BF08213846F7
:100FA000019A01F00DFA064616B16FF0010022E732
:100FB0000C213846009A01F003FA064616B16FF08C
:100FC000020018E7304616E7A42800082DE9FC4186
:100FD00007460D4690460026FE4880680190002096
:100FE0000090009820F4403000F50030009000247C
:100FF000122D7DD2DFE805F0092949698CACC9F1D1
:10100000EFEEEDECEBEAE96ACAE8019820F07F40E8
:101010000190019820F4F81000F5F010019001986B
:1010200020F4706000F5E0600190019820F00F005E
:10103000C01D0190009820F4FE4000F5F85000908B
:10104000009864F305000090D9E1019820F07F40FA
:101050000190019820F4F81000F5602001900198AB
:1010600020F4706000F540700190019820F00F00AE
:10107000C01C0190009820F4FE4000F570600090C4
:10108000009864F305000090B9E1019820F07F40DA
:101090000190019820F4F81000F5002001900198CB
:1010A00020F4706000F500700190019820F00F00AE
:1010B000801C0190009820F4FE4000F51060009024
:1010C000009864F30500009099E100BF019820F0BA
:1010D0007F400190019820F4F81000F5C0200190A5
:1010E000019820F4706000F580700190019800E094
:1010F00081E120F00F00401C0190009820F4FE4098
:1011000000F5E0600090009864F30500009076E13F
:10111000019820F07F400190019820F4F81000F52C
:1011200080200190019820F4706000F5807001909B
:10113000019820F00F00401C0190009820F4FE4020
:1011400000F5A0600090009864F30500009056E15F
:10115000019820F07F400190019820F4F81000F5EC
:1011600040300190019820F470600190019820F0C7
:101170000F000190009820F4FE4000F58060009080
:10118000009864F30500009039E100BF019820F059
:101190007F400190019820F4F81000F50030019094
:1011A000019820F470600190019820F00F000190E8
:1011B000009820F4FE4000F540700090009820F068
:1011C0003F00401C00901AE125E0F0E0CFE0AEE0E7
:1011D0008DE06CE045E01DE0FFE7019820F07F40E6
:1011E0000190019820F4F81000F5803001900198EA
:1011F00020F470600190019820F00F000190009899
:1012000020F4FE4000F500700090009820F03F00B0
:101210000090F4E000BF019820F07F4000F1807062
:101220000190019820F4F81000F5F0100190019859
:1012300020F4706000F5E0600190019820F00F004C
:10124000C01D0190009820F4FE4000F5F850009079
:10125000009864F305000090009820F4403000905E
:10126000CDE0019820F07F4000F18070019001985E
:1012700020F4F81000F588100190019820F47060B7
:1012800000F580600190019820F00F00001D019092
:10129000009820F4FE4000F590500090009864F310
:1012A00005000090009820F440300090A7E00198DD
:1012B00020F07F400190019820F4F81000F5F01024
:1012C0000190019820F4706000F5E06001900198B1
:1012D00020F00F00C01D0190009820F4FE4000F5A2
:1012E000F8500090009864F30500009087E00198A2
:1012F00020F07F400190019820F4F81000F5901044
:101300000190019820F4706000F5A06001900198B0
:1013100020F00F00401D0190009820F4FE4000F5E1
:1013200098500090009864F30500009067E00198E1
:1013300020F07F400190019820F4F81000F5602023
:101340000190019820F4706000F5407001900198C0
:1013500020F00F00C01C0190009820F4FE4000F522
:1013600070600090009864F30500009047E00198D9
:1013700020F07F400190019820F4F81000F5002043
:101380000190019820F4706000F5007001900198C0
:1013900020F00F00801C0190009820F4FE4000F522
:1013A00010600090009864F30500009027E0019819
:1013B00020F07F400190019820F4F81000F5C02043
:1013C0000190019820F4706000F580700190019800
:1013D00002E00000A428000820F00F00401C01904B
:1013E000009820F4FE4000F5E0600090009864F35F
:1013F0000500009003E04FF0FF30BDE8FC8100BF26
:1014000008213846019A00F0DBFF064616B16FF05E
:101410000100F2E70C213846009A00F0D1FF0646A1
:1014200016B16FF00200E8E73046E6E7F8B5064689
:101430000C460025424840680090122C70D2DFE82C
:1014400004F0090A6F0B0C0D0E0F25262728292AF8
:101450002B41425800BF00BF00BF00BF00BF00BF0C
:10146000009820F07F400090009820F47F0000F565
:1014700060200090009820F4FE4000F5407000903D
:10148000009820F07F00C01C00904CE000BF00BF1F
:1014900000BF00BF00BF00BF009820F07F40009059
:1014A000009820F47F0000F5F0100090009820F4E0
:1014B000FE4000F5E0600090009820F07F00C01D25
:1014C000009030E000BF009820F07F40009000982E
:1014D00020F47F0000F5E0200090009820F4FE400A
:1014E00000F500700090009820F07F00801C0090B4
:1014F00019E0009820F07F400090009820F47F00D1
:1015000000F578100090009820F4FE4000F570601F
:101510000090009820F07F000F30009003E0FFE77C
:101520004FF0FF30F8BD00BF04213046009A00F0B4
:1015300047FF054615B16FF00100F3E72846F1E7D4
:10154000A4280008F8B506460C4600254248406825
:101550000090122C70D2DFE804F0090A6F0B0C0D1A
:101560000E0F25262728292A2B41425800BF00BFED
:1015700000BF00BF00BF00BF009820F07F40009078
:10158000009820F47F0000F5F0100090009820F4FF
:10159000FE4000F5E0600090009820F07F00C01D44
:1015A00000904CE000BF00BF00BF00BF00BF00BF05
:1015B000009820F07F400090009820F47F0000F514
:1015C00078100090009820F4FE4000F570600090C4
:1015D000009820F07F000F30009030E000BF0098AE
:1015E00020F07F400090009820F47F0000F56020FC
:1015F0000090009820F4FE4000F5407000900098A4
:1016000020F07F00C01C009019E0009820F07F407F
:101610000090009820F47F0000F5FC0000900098F6
:1016200020F4FE4000F5F8500090009820F07F0074
:101630001F30009003E0FFE74FF0FF30F8BD00BF20
:1016400004213046009A00F0BBFE054615B16FF04C
:101650000100F3E72846F1E7A4280008F8B505469D
:101660000C460026414840680090122C71D2DFE8F9
:1016700004F0090A0B0C0D0E0F10262728292A2B1F
:101680002C42435900BF00BF00BF00BF00BF00BFD6
:1016900000BF009820F07F400090009820F47F0069
:1016A00000F578100090009820F4FE4000F570607E
:1016B0000090009820F07F000F3000904CE000BFB9
:1016C00000BF00BF00BF00BF00BF009820F07F40F8
:1016D0000090009820F47F0000F5FC000090009836
:1016E00020F4FE4000F5F8500090009820F07F00B4
:1016F0001F30009030E000BF009820F07F40009045
:10170000009820F47F0000F5F0100090009820F47D
:10171000FE4000F5E0600090009820F07F00C01DC2
:10172000009019E0009820F07F400090009820F48D
:101730007F0000F57E000090009820F4FE4000F548
:101740007C500090009820F07F003F30009003E034
:10175000FFE74FF0FF30F8BD00BF04212846009A94
:1017600000F02EFE06463046F5E70000A4280008EB
:10177000F8B506460C4600252A48006800902078F7
:10178000009960F30401009120784109009861F309
:101790004510009020788109009861F38610009030
:1017A0002078C109009861F3082000902088010A80
:1017B000009861F34A2000902088810A009861F324
:1017C0000C3000902088C10A009861F3104000900E
:1017D0002088010B009861F3514000902088410B54
:1017E000009861F3924000902088810B009861F38B
:1017F000D34000902088C10B009861F314500090F2
:101800002068010C009861F31F70009000213046A1
:10181000009A00F0D5FD054615B14FF0FF30F8BD38
:101820002846FCE7A428000808B5014625480068BA
:10183000009000980A6860F304020A600098420968
:10184000086862F34510086000988209086862F32E
:10185000861008600098020A086862F3C7100860E2
:101860000098420A086862F3092008600098020B99
:10187000086862F38A2008600098020C086862F326
:10188000CB2008600098420C086862F30C300860B6
:101890000098820C086862F34D3008600098C20C12
:1018A000086862F38E3008600098020D086862F3E1
:1018B000CF3008600098020F086862F31340086098
:1018C000002008BDA42800080146002000BF00BF7A
:1018D000092901DA084619E0A1F10902072A13D201
:1018E000DFE802F00406080A0C0E10000C200CE0E1
:1018F00010200AE0142008E0182006E0202004E070
:10190000302002E0402000E000BF00BF704738B543
:1019100005460024002000906A4640F60C612846E7
:1019200000F030F9044614B14FF0FF3038BD9DF897
:10193000000040F0010000909DF8002040F60C618E
:10194000284600F0CBFC044614B16FF00100EDE72F
:101950000020EBE72DE9F84380460C4615461E466D
:101960000027B9464FF03409002000906A464946E6
:10197000404600F08BF907461FB14FF0FF30BDE83D
:10198000F8839DF8010020709DF8000028709DF8F4
:10199000020000F03F0030703846F0E72DE9F843D0
:1019A00006460C4615464FF00008002000902868B7
:1019B00000904FF4FA7000EBC40739463046009AA5
:1019C00000F0FEFC80464046BDE8F8832DE9F84370
:1019D00006460C4615464FF0000800200090286887
:1019E00000904FF4F87000EBC40739463046009A77
:1019F00000F0E6FC80464046BDE8F8832DE9F84358
:101A000080460C4615461E464FF000092EB1009840
:101A100020F080008030009003E0009820F08000EB
:101A20000090009865F30400009004F5E8779DF8B5
:101A300000203946404600F051FC81464846BDE84A
:101A4000F8832DE9F84307460D4616460024A046C4
:101A500040F60768002000900DF103024146384629
:101A600000F090F804461CB14FF0FF30BDE8F88359
:101A7000009865F318600090009866F35960009034
:101A80009DF803204146384600F028FC044614B176
:101A90006FF00100EAE72046E8E7F8B506460D4694
:101AA000002400271E270020ADF800006A463946B2
:101AB000304600F0B9F8044614B14FF0FF30F8BDDD
:101AC000BDF800004FF61F7129400843ADF8000033
:101AD000BDF800203946304600F048FC044614B1F9
:101AE0006FF00100EBE72046E9E7F8B506460D4642
:101AF0000020009000246A460321304600F042F89E
:101B0000044614B14FF0FF30F8BD9DF8000020F0FE
:101B1000070000909DF80000284300909DF80020E9
:101B20000321304600F0DAFB044614B16FF00100E7
:101B3000EAE72046E8E72DE9F04198B080460E46F6
:101B40000027002402E00DF80460641C602CFAD326
:101B50004FF48065002410E060236A462946404621
:101B600000F0DAFB074627B14FF0FF3018B0BDE8B0
:101B7000F08105F1600085B2641C152CECD3384669
:101B8000F4E700002DE9F04106460C461546032710
:101B90004FF00008C4F303203030084908704C703F
:101BA000002088703B46064A304600F037FC8046ED
:101BB0000348807828704046BDE8F081E4000020AA
:101BC000440100202DE9F04781460D4617461E4688
:101BD000B01C1FFA80F84FF0000AC5F30320303024
:101BE0000F4908704D70022404E000200C4908558C
:101BF000601C84B24445F8DB43460A4A084948461B
:101C000000F00CFC8246002405E00649A01C085C9C
:101C10003855601C84B2B442F7DB5046BDE8F0870B
:101C2000E4000020440100202DE9F04781460E46E3
:101C300015464FF0040A4FF00008C6F30320303079
:101C4000104908704E7053460F4A484600F0E6FBB4
:101C50008046B8F1000F02D04046BDE8F087002072
:101C6000288002240AE00848075D2988A01EC000D9
:101C700007FA00F008442880601CC4B2042CF2DB90
:101C80004046EAE7E4000020440100202DE9F04747
:101C900081460E4615464FF0060A4FF00008C6F37F
:101CA00003203030104908704E7053460F4A4846A2
:101CB00000F0B4FB8046B8F1000F02D04046BDE80A
:101CC000F0870020286002240AE00848075DA01E73
:101CD000C00007FA00F0296808442860601CC4B2FC
:101CE000062CF2DB4046EAE7E40000204401002035
:101CF0002DE9FF4F81B00E4691461D46022000EBB4
:101D000085001FFA80FA4FF0000BC6F30320303035
:101D10001B4908704E70022404E000201849085541
:101D2000601C84B25445F8DB5346164A14490198A6
:101D300000F074FB8346BBF1000F03D0584605B09A
:101D4000BDE8F08F4FF00208002415E0002000905D
:101D500000270AE00B4810F808000DF80700781C6F
:101D600087B208F101001FFA80F8042FF2DB009817
:101D700049F82400601C84B2AC42E7DB5846DEE739
:101D8000E4000020440100202DE9F84306460D46FA
:101D900014460027B8461DB96FF06300BDE8F8830C
:101DA000124800680090009820F080000090207891
:101DB0004108009861F31C60009020888109009818
:101DC00061F35F7000902078009960F345110091F5
:101DD00005EB4500502101EB800841463046009A52
:101DE00000F0EEFA07463846D8E70000F42800086D
:101DF00008B501460B48006800900098020E08687C
:101E000062F3450008600098420F086862F388108A
:101E1000086000984209086862F30000086000202A
:101E200008BD0000F42800082DE9F84307460C46D9
:101E300016460025A8461CB96FF06300BDE8F8837C
:101E400004EB4400502101EB8008002000906A461A
:101E500041463846FFF796FE054615B14FF0FF3074
:101E6000ECE79DF8000006F00F0108438DF8000034
:101E70009DF800204146384600F030FA054615B17D
:101E80006FF00100DAE72846D8E7F8B505460C46BA
:101E9000002600270020009004EB4400502101EBB5
:101EA0008000461C009820F4807000F5807000903F
:101EB0009DF801203146284600F010FA07463846C2
:101EC000F8BD2DE9FF4F9BB08A4616469846DDF8CF
:101ED000A0900024002500270AEB4A00502101EBC6
:101EE000800B032318AA59461B98FFF701FF0746EA
:101EF0001FB1601E1FB0BDE8F08F1898179017989B
:101F0000C0F3C01010B16FF00100F3E719981690FC
:101F10001A9815901598C0F30B0B0BF5806B09F10F
:101F20000800C4B21798C0F3401008B1201DC4B215
:101F3000E11704EB91718910A4EB810149B12046AE
:101F4000E11704EB91718910A4EB8102211D891A1C
:101F5000CCB24C2C00DD4C24234602AA59461B98D7
:101F6000FFF730FE074617B16FF00200C2E79DF899
:101F700008008DF804009DF809008DF805009DF813
:101F80000A008DF806009DF80B008DF807000198F7
:101F900030609DF80C008DF804009DF80D008DF860
:101FA00005009DF80E008DF806009DF80F008DF8D5
:101FB0000700019870601798C0F34010F0B19DF8C9
:101FC00010008DF804009DF811008DF805009DF8B3
:101FD00012008DF806009DF813008DF80700019897
:101FE000B060002507E002A905F10C00085C08F8C4
:101FF0000500681CC5B24D45F5DB0DE00020B06062
:10200000002507E002A905F10800085C08F80500B2
:10201000681CC5B24D45F5DB51461B98FFF735FFEF
:10202000074617B16FF0030064E7384662E7000027
:1020300070B5044602250026002005490870487046
:102040002B46044A204600F0E9F90646304670BDAA
:10205000E4000020440100202DE9F84306460D4627
:1020600014460027B846194800680090009820F0F0
:102070008000803000902088010A009861F31C6085
:1020800000902088410B009861F35F7000902078E9
:102090008109009861F3565000902078410800981B
:1020A00061F3144000902078009960F3861100914C
:1020B00005EB4500502101EB800841463046009A6F
:1020C00000F07EF907463846BDE8F883F42800089A
:1020D00008B5014611480068009000988209086818
:1020E00062F3000008600098020C086862F3450083
:1020F00008600098420D086862F387100860009835
:10210000020E086862F30C2008600098420F08680D
:1021100062F34F300860002008BD0000F42800087A
:102120002DE9F84307460C4615460026B046002028
:10213000009004EB4400542101EB80086A464146BC
:102140003846FFF71FFD06461EB14FF0FF30BDE8D1
:10215000F8839DF8000000F0170028703046F6E77D
:102160002DE9FF4F9BB08B461446289D00270BEBB3
:102170004B00502101EB80001A90032317AADDE9E0
:102180001A10FFF7B5FD074627B14FF0FF301FB01B
:10219000BDE8F08F179816901698C0F3C01010B9CC
:1021A0006FF00100F3E7217901F00F00FFF78CFBDE
:1021B0008146A94502D26FF00200E8E71898159011
:1021C000199814901498C0F30B001A901A9800F5FF
:1021D00080601A9020788DF8040060788DF80500F2
:1021E000A0788DF80600E0788DF8070020798DF84A
:1021F000080060798DF80900A0798DF80A00E0796F
:102200008DF80B00002607E01E98815D01AA06F1FB
:1022100008001154701CC6B2AE42F5D34FF0000A4C
:10222000D04605F00300A0B105F00300C0F1040A98
:1022300005F10800C6B200BF09E0002106F1080060
:10224000404401AA115408F1010000F0FF08D045F4
:10225000F3DB05F10800504483B201AADDE91A104E
:1022600000F05AF8074617B16FF003008FE75946A0
:10227000299A1B9800F007F8074617B16FF0040081
:1022800085E7384683E72DE9F84307460C461546AF
:10229000002604EB4400502101EB800000F101080E
:1022A00000200090009820F4807000F5807000906D
:1022B0002DB1009820F4007000F5007000909DF89A
:1022C00001204146384600F009F806461EB14FF09D
:1022D000FF30BDE8F8833046FBE700002DE9F04110
:1022E00006460C46154603274FF00008C4F30320AA
:1022F0002030074908704C70084685703B46054AF7
:10230000304600F08BF880464046BDE8F081000082
:10231000E4000020440100202DE9F04781460D46ED
:1023200016461F46B81C1FFA80F84FF0000AC5F386
:10233000032020300B4908704D70022405E0A01ED8
:10234000305C08490855601C84B24445F7DB4346BD
:10235000054A0449484600F061F882465046BDE807
:10236000F0870000E4000020440100202DE9F04740
:1023700007460D4616464FF004084FF00009C5F316
:10238000032020300C4908704D70002408E0E00064
:1023900046FA00F0C1B2084AA01C1154601CC4B235
:1023A000022CF4DB4346054A0349384600F036F870
:1023B00081464846BDE8F087E40000204401002043
:1023C0002DE9F04707460D4616464FF006084FF038
:1023D0000009C5F3032020300C4908704D7000241B
:1023E00008E0E00026FA00F0C1B2084AA01C11542F
:1023F000601CC4B2042CF4DB4346054A034938464A
:1024000000F00CF881464846BDE8F087E400002063
:102410004401002010B500F0B9F910BD2DE9F041DC
:1024200007460C4615461E4632462946204600F011
:1024300007FABDE8F0812DE9F041024600250026AB
:10244000002000230024002791F803C00CF00F05A2
:1024500091F803C00CF0100CBCF1000F03D091F800
:1024600002C04CEA050591F800C0BCF1000F31D064
:10247000146800202BE04FF0010C0CFA00F3B1F8C7
:1024800000C00CEA03069E4220D183004FF00F0CDF
:102490000CFA03F7BC4305FA03FC4CEA040491F878
:1024A00003C0BCF1280F06D14FF0010C0CFA00FC60
:1024B000C2F814C00AE091F803C0BCF1480F05D17E
:1024C0004FF0010C0CFA00FCC2F810C0401C0828A8
:1024D000D1D31460B1F800C0BCF1FF0F34DD5468F3
:1024E00000202EE000F1080C4FF0010808FA0CF370
:1024F000B1F800C00CEA03069E4221D183004FF0E0
:102500000F0C0CFA03F7BC4305FA03FC4CEA040475
:1025100091F803C0BCF1280F05D100F1080C08FAAE
:102520000CF8C2F8148091F803C0BCF1480F07D131
:1025300000F1080C4FF0010808FA0CF8C2F81080FE
:10254000401C0828CED35460BDE8F081024600202C
:1025500093680B400BB1012000E0002070474161FF
:10256000704701617047000029B1064AD2690243F1
:10257000044BDA6104E0034AD2698243014BDA6119
:10258000704700000010024029B1064A92690243D8
:10259000044B9A6104E0034A92698243014B9A61B9
:1025A000704700000010024021B1028842F0400252
:1025B000028004E002884FF6BF731A400280704721
:1025C0000246002013890B400BB1012000E00020DF
:1025D00070470146888970478181704710B5002295
:1025E000028802F441520B884C8823438C88234391
:1025F000CC8823430C8923434C8923438C89234370
:10260000CC8923431A430280838B4FF2FF7423400B
:1026100083830B8A038210BD10B500F001F810BD52
:102620000CB50020019000903348006840F48030E1
:102630003149086000BF3048006800F40030009065
:102640000198401C0190009818B90198B0F5A06F4E
:10265000F1D12948006800F4003010B10120009049
:1026600001E0002000900098012843D12348006831
:1026700040F01000214908600846006820F003007F
:1026800008600846006840F0020008601A48406888
:10269000194948600846406848600846406840F468
:1026A000806048600846406820F47C104860084616
:1026B000406840F4E81048600846006840F08070C8
:1026C000086000BF0C48006800F000700028F9D0D6
:1026D0000948406820F00300074948600846406800
:1026E00040F00200486000BF0348406800F00C0062
:1026F0000828F9D10CBD0000001002400020024063
:1027000010B51348006840F0010011490860084600
:102710004068104908400E494860084600680E4964
:1027200008400B4908600846006820F480200860D3
:102730000846406820F4FE0048604FF41F0088609F
:10274000FFF76AFF4FF000600449086010BD000009
:10275000001002400000FFF8FFFFF6FE08ED00E069
:1027600002E008C8121F08C1002AFAD1704770475A
:10277000002001E001C1121F002AFBD17047FDF7C4
:10278000C5FD01E0FDF78CFFFCE7000000B587B058
:1027900001218803FFF7E8FE01210820FFF7F4FE7E
:1027A00001212020FFF7F0FE4FF46040ADF8040057
:1027B00018208DF8070003208DF8060001A91D4898
:1027C000FFF739FE4FF40070ADF8040010208DF8CB
:1027D000070003208DF8060001A91748FFF72BFE1C
:1027E0004FF400711448FFF7BCFE0020ADF808005C
:1027F0004FF48270ADF80A000020ADF80C00ADF87F
:102800000E00ADF810004FF40070ADF8120010206B
:10281000ADF814000020ADF816000720ADF8180040
:1028200002A90648FFF7DAFE01210448FFF7BCFEC3
:1028300007B000BD000C014000140140003800400A
:102840002DE9F04105460E46174600244FF400716D
:102850001248FFF784FE17E000BF02211048FFF77F
:10286000AFFE0028F9D0295D0D48FFF7B5FE00BF87
:1028700001210B48FFF7A4FE0028F9D00848FFF714
:10288000A8FE3055601C84B2BC42E5DB4FF40071F9
:102890000248FFF766FE0020BDE8F0810014014009
:1028A00000380040600798040F0F3E0003030E003D
:1028B0000010020000000000000000004000404046
:1028C0000000000000000000000000000000000008
:1028D00000000000000000000000200000000000D8
:1028E00000000000000400000000000000000000E4
:1028F0000000000000046000000000000000000074
:102900000000000000000000600400000300000060
:10291000000000000000000000000000008040C037
:1029200020A060E0109050D030B070F0088848C807
:1029300028A868E8189858D838B878F8048444C4A7
:1029400024A464E4149454D434B474F40C8C4CCCA7
:102950002CAC6CEC1C9C5CDC3CBC7CFC028242C25F
:1029600022A262E2129252D232B272F20A8A4ACAA7
:102970002AAA6AEA1A9A5ADA3ABA7AFA068646C647
:1029800026A666E6169656D636B676F60E8E4ECE47
:102990002EAE6EEE1E9E5EDE3EBE7EFE018141C10B
:1029A00021A161E1119151D131B171F1098949C977
:1029B00029A969E9199959D939B979F9058545C517
:1029C00025A565E5159555D535B575F50D8D4DCD17
:1029D0002DAD6DED1D9D5DDD3DBD7DFD038343C3CF
:1029E00023A363E3139353D333B373F30B8B4BCB17
:1029F0002BAB6BEB1B9B5BDB3BBB7BFB078747C7B7
:102A000027A767E7179757D737B777F70F8F4FCFB6
:102A10002FAF6FEF1F9F5FDF3FBF7FFF000005807D
:102A20000F800A001B801E001400118033803600C6
:102A30003C00398028002D802780220063806600BA
:102A40006C00698078007D8077807200500055802E
:102A50005F805A004B804E0044004180C380C60016
:102A6000CC00C980D800DD80D780D200F000F5808E
:102A7000FF80FA00EB80EE00E400E180A000A5807A
:102A8000AF80AA00BB80BE00B400B18093809600E6
:102A90009C00998088008D808780820083818601D8
:102AA0008C01898198019D8197819201B001B58146
:102AB000BF81BA01AB81AE01A401A181E001E58132
:102AC000EF81EA01FB81FE01F401F181D381D6019E
:102AD000DC01D981C801CD81C781C2014001458196
:102AE0004F814A015B815E015401518173817601FE
:102AF0007C01798168016D816781620123812601F2
:102B00002C01298138013D81378132011001158165
:102B10001F811A010B810E01040101810383060349
:102B20000C03098318031D831783120330033583B5
:102B30003F833A032B832E032403218360036583A1
:102B40006F836A037B837E0374037183538356030D
:102B50005C03598348034D8347834203C003C58305
:102B6000CF83CA03DB83DE03D403D183F383F6036D
:102B7000FC03F983E803ED83E783E203A383A60361
:102B8000AC03A983B803BD83B783B20390039583D5
:102B90009F839A038B838E038403818380028582C3
:102BA0008F828A029B829E0294029182B382B60235
:102BB000BC02B982A802AD82A782A202E382E60229
:102BC000EC02E982F802FD82F782F202D002D5829D
:102BD000DF82DA02CB82CE02C402C1824382460285
:102BE0004C02498258025D825782520270027582FD
:102BF0007F827A026B826E026402618220022582E9
:102C00002F822A023B823E02340231821382160254
:102C10001C02198208020D82078202023C2C000865
:102C20000000002040000000602700087C2C000805
:102C30004000002068050000702700080000000028
:102C40000000000000000000000000000000000084
:102C50000000000000000000000000000000000074
:102C600050C3000000000000000000000000000051
:0C2C700000000000000000000000000058
:0400000508000131BD
:00000001FF
